:100000000C9469000C9491000C9491000C94580B82
:100010000C94580B0C94580B0C9491000C94910078
:100020000C9491000C9491000C9491000C9491000C
:100030000C9491000C9491000C9491000C949100FC
:100040000C94B60A0C9491000C94260B0C94000BA3
:100050000C9491000C9491000C9491000C949100DC
:100060000C9497090C949100475053204C4F5354D3
:100070002121210000000000240027002A000000A8
:100080000008000201000003040700000000000057
:1000900000000000000023002600290000000000EE
:1000A000250028002B0004040404040404040202B4
:1000B00002020202030303030303010204081020E7
:1000C0004080010204081020010204081020D00B17
:1000D0005F1111241FBECFEFD8E0DEBFCDBF11E00E
:1000E000A0E0B1E0EAE5F9E202C005900D92A03887
:1000F000B107D9F724E0A0E8B1E001C01D92A73014
:10010000B207E1F710E0C8E6D0E004C02197FE0195
:100110000E940912C736D107C9F70E94740D0C94CA
:10012000A0140C9400000895089520911902260F40
:100130003327331F21323105ECF420916202FC0198
:1001400090E080E0243069F082E00895A0911902E7
:100150002191AC0147505E4FA40FB52FB11D2C93D8
:100160000196861798F380911902680F609319021F
:1001700080E0089581E008950895E0912E03809134
:100180002D03E81730F4F0E0E852FE4F808190E054
:1001900008958FEF9FEF089590912E0380912D0386
:1001A0002FEF3FEF981748F4E92FF0E0E852FE4FA9
:1001B000208130E09F5F90932E03C90108958091C4
:1001C0002D0390912E03891B990B0895CF92DF92F6
:1001D000EF92FF920F931F93CF93DF937C01CB019C
:1001E0008A0120916802222389F0EB016B01C40E81
:1001F000D51ECC15DD0569F06991D701ED91FC9113
:100200000190F081E02DC7010995F3CF642F0E9482
:100210009500C801DF91CF911F910F91FF90EF9052
:10022000DF90CF900895CF93DF931F92CDB7DEB7C5
:100230006983209168022223F9F020912B03203258
:1002400058F021E030E0FC013383228390E080E02D
:100250000F90DF91CF91089580912C03E82FF0E06B
:10026000E759FD4F998190838F5F80932C03809392
:100270002B0381E090E0ECCF61E0CE0101960E947B
:100280009500F7CF90E0FC01E258FF4F2491FC016C
:10029000E654FF4F3491FC01EA55FF4FE491EE2301
:1002A000C9F0222339F0233001F1A8F4213019F1EB
:1002B000223029F1F0E0EE0FFF1FE456FF4FA59129
:1002C000B4918FB7F894EC91611126C030953E231C
:1002D0003C938FBF08952730A9F02830C9F024300F
:1002E00049F7809180008F7D03C0809180008F77D7
:1002F00080938000DFCF84B58F7784BDDBCF84B55A
:100300008F7DFBCF8091B0008F778093B000D2CFEC
:100310008091B0008F7DF9CF3E2BDACF1092620230
:1003200081E08093610210923C0261E082E10E94D0
:10033000420161E083E10E944201E9EBF0E080814B
:100340008E7F808380818D7F808388E48093B80056
:1003500085E48093BC000895CF93DF9391E0909360
:10036000F8018823B9F0C091B800D091BA0080910B
:10037000BC008A7B8093BC0060E082E10E94420165
:1003800060E083E10E9442010E948E01D093BA0096
:10039000C093B800DF91CF910895CF93DF9390E0A1
:1003A000FC01E654FF4F24918A559F4FFC01849134
:1003B0008823D1F090E0880F991FFC01EC58FF4F83
:1003C000A591B491FC01E456FF4FC591D491611100
:1003D0000EC09FB7F8948C91E22FE0958E238C93FA
:1003E0002881E223E8839FBFDF91CF9108958FB7E3
:1003F000F894EC91E22BEC938FBFF6CF3FB7F894D3
:100400008091D4019091D501A091D601B091D701EE
:1004100026B5A89B05C02F3F19F00196A11DB11D5F
:100420003FBFBA2FA92F982F8827BC01CD01620F9B
:10043000711D811D911D42E0660F771F881F991F56
:100440004A95D1F70895CF92DF92EF92FF920F93E2
:100450001F93CF93DF93D0912B0381E0D13208F02B
:100460009CC0C09189020E94FE016B017C018091B9
:10047000620281116CC082E08093620281E080930D
:1004800061028FEF8093600210925F02D0935E0250
:10049000A9E6B2E0EEE3F2E080E0D8138DC010925E
:1004A0003D0280913D02CC0FC82BC0933D0280914C
:1004B0003C02813009F084C010923C020E94FE018F
:1004C0006B017C0180913D028093BB0080916402AE
:1004D00090916502A0916602B0916702892B8A2BE8
:1004E0008B2BA1F00E94FE01009164021091650225
:1004F00020916602309167026C197D098E099F096F
:10050000061717072807390708F442C08091BC0076
:1005100083FDD8CF85EC8093BC000E94FE016B0167
:100520007C0180916202823009F44CC080916002AB
:100530008F3F09F469C080916002803209F466C07F
:1005400080916002803309F463C084E026C080910A
:10055000640290916502A0916602B0916702892BB6
:100560008A2B8B2B09F483CF0E94FE010091640239
:100570001091650220916602309167026C197D0925
:100580008E099F09061717072807390708F06FCF4C
:10059000809163020E94AC0185E010922C031092BE
:1005A0002B0310926802DF91CF911F910F91FF9062
:1005B000EF90DF90CF9008959D9191938F5F6DCFD5
:1005C00085EEA9CF8091640290916502A0916602A8
:1005D000B0916702892B8A2B8B2B09F4A2CF0E9442
:1005E000FE01009164021091650220916602309133
:1005F00067026C197D098E099F09061717072807DE
:10060000390708F08ECFC4CF80E0C7CF82E0C5CFD6
:1006100083E0C3CF2FB7F8946091D0017091D101DE
:100620008091D2019091D3012FBF08958F929F9214
:10063000AF92BF92CF92DF92EF92FF92CF93DF9370
:100640006C010E940A034B015C010D2C000CEE08AA
:10065000FF08C3E5D2E00E940A03681979098A09F4
:100660009B096C157D058E059F0578F461E085E09A
:100670000E944201CE010197F1F760E085E00E94FF
:100680004201CE010197F1F7E6CF60E085E0DF910E
:10069000CF91FF90EF90DF90CF90BF90AF909F9061
:1006A0008F900C944201AF92BF92CF92DF92EF9263
:1006B000FF920F931F93CF93DF936C017B018B010C
:1006C000040F151FEB015E01AE18BF08C017D1075C
:1006D00059F06991D601ED91FC910190F081E02DE6
:1006E000C6010995892B79F7C501DF91CF911F913B
:1006F0000F91FF90EF90DF90CF90BF90AF90089553
:10070000FC01538D448D252F30E0842F90E0821B17
:10071000930B541710F0CF96089501970895FC019C
:10072000918D828D981761F0A28DAE0FBF2FB11DF4
:100730005D968C91928D9F5F9F73928F90E008954C
:100740008FEF9FEF0895FC01918D828D981731F006
:10075000828DE80FF11D858D90E008958FEF9FEF5A
:100760000895FC01918D228D892F90E0805C9F4F30
:10077000821B91098F73992708958AE892E00E945D
:10078000B10321E0892B09F420E0822F089580E055
:1007900090E0892B29F00E94BD0381110C94000088
:1007A0000895FC01A48DA80FB92FB11DA35ABF4F06
:1007B0002C91848D90E001968F739927848FA68960
:1007C000B7892C93A089B1898C91837080648C93B4
:1007D000938D848D981306C00288F389E02D808163
:1007E0008F7D80830895EF92FF920F931F93CF9395
:1007F000DF93EC0181E0888F9B8D8C8D98131AC05C
:10080000E889F989808185FF15C09FB7F894EE8942
:10081000FF896083E889F98980818370806480839F
:100820009FBF81E090E0DF91CF911F910F91FF90EA
:10083000EF900895F62E0B8D10E00F5F1F4F0F7392
:100840001127E02E8C8D8E110CC00FB607FCFACF4D
:10085000E889F989808185FFF5CFCE010E94D10317
:10086000F1CFEB8DEC0FFD2FF11DE35AFF4FF0821E
:100870009FB7F8940B8FEA89FB8980818062CFCF84
:10088000CF93DF93EC01888D8823B9F0AA89BB89C7
:10089000E889F9898C9185FD03C0808186FD0DC0B2
:1008A0000FB607FCF7CF8C9185FFF2CF808185FFD3
:1008B000EDCFCE010E94D103E9CFDF91CF91089512
:1008C000CF93DF93EC018A859B85AC85BD858E83B4
:1008D0009F83A887B9870E940A036A837B838C83DE
:1008E0009D8381E089838883DF91CF910895CF93A1
:1008F000DF93EC018E819F81A885B9858A839B83D4
:10090000AC83BD830E940A036A877B878C879D879F
:1009100081E089838883DF91CF9108952091C2017E
:100920003091C3012817390771F49091C00180916B
:10093000C101981741F0E091C001F0E0E058FE4F8E
:10094000808190E008958FEF9FEF0895EF92FF92DE
:100950000F931F93CF93DF93DC015C96ED90FC9097
:100960005D97E114F10479F481E090E013969C9393
:100970008E93129790E080E0DF91CF911F910F91BD
:10098000FF90EF9008955196ED91FC9152975096FB
:100990008C915097982F90950FB75E962C915E97FB
:1009A000122F127021FD6095F8942081112319F106
:1009B000282B2083E7012197F1F728E0462F50E00C
:1009C000308160FF1AC0382B3083E7012197F1F79F
:1009D000BA0175956795215089F7112381F08081BF
:1009E000892380830FBF5C968D919C910197F1F7CD
:1009F00081E090E0C1CF2923DCCF3923E5CF90817E
:100A0000892BEFCF2091C2013091C30128173907FC
:100A100071F48091C1012091C00190E0805C9F4FF2
:100A2000821B910960E470E00E94D311089590E068
:100A300080E008952091C2013091C3012817390741
:100A4000B9F49091C0018091C101981789F0E091AB
:100A5000C001F0E0E058FE4F80812091C00130E0FD
:100A60002F5F3F4F2F7333272093C00190E00895ED
:100A70008FEF9FEF089590E080E00895FC010190D2
:100A80000020E9F73197AF01481B590BBC018AE8F8
:100A900092E00C9453038F929F92AF92BF920F9368
:100AA0001F93CF93DF93CDB7DEB7A1970FB6F8941E
:100AB000DEBF0FBECDBF19A2423008F44AE08E015E
:100AC0000F5D1F4F842E912CB12CA12CA5019401F8
:100AD0000E94E711E62FB901CA01EA30F4F4E05DA3
:100AE000D801EE938D01232B242B252B79F790E051
:100AF00080E0109719F0CD010E943E05A1960FB637
:100B0000F894DEBF0FBECDBFDF91CF911F910F9143
:100B1000BF90AF909F908F900895E95CE1CF2F92A6
:100B20003F924F925F926F927F928F929F92AF927D
:100B3000BF92CF92DF92EF92FF920F931F93CF93CA
:100B4000DF93D82FC92F8B010E947B1124E630E060
:100B500040E050E00E94E71149019B01AC0160E8D0
:100B600076E988E990E00E94B7116B017C01F801F9
:100B700091828082ED2FFC2F2191822F022E000C7A
:100B8000990BC0970A97C0F32E3239F51F0180E800
:100B9000882E86E9982E88E9A82EB12C9AE0492E55
:100BA000512C612C712CF101C1911F010C2E000CF4
:100BB000DD0BE097CA30D10580F4C501B401A30173
:100BC00092010E94E71149015A01DE010E941A12A6
:100BD000C60ED71EE81EF91EE6CFA5E0B0E0A701BD
:100BE00096010E940F126F5F7F4F8F4F9F4F23E040
:100BF00030E040E050E00E94E711F80122833383A7
:100C0000448355831682DF91CF911F910F91FF90FE
:100C1000EF90DF90CF90BF90AF909F908F907F909C
:100C20006F905F904F903F902F9008951F93CF93B8
:100C3000DF93EC0118811D3209F42196CE010E9448
:100C40007B119B01AC01A4E6B0E00E940F12AB0146
:100C5000BC01FE012991822F022E000C990BC09736
:100C60000A97B8F32E3231F58181082E000C990BCA
:100C7000C0978A309105F0F4AAE0A89F9001A99F3F
:100C8000300D1124C901330FAA0BBB0B480F591F9C
:100C90006A1F7B1F8281082E000C990BC0978A3037
:100CA000910540F4092E000CAA0BBB0B480F591FED
:100CB0006A1F7B1F1D3239F47095609550954195E0
:100CC0005F4F6F4F7F4FCB01BA01DF91CF911F91E3
:100CD0000895AF92BF92CF92DF92EF92FF920F935F
:100CE0001F93CF93DF930E940A036B017C0112E0F4
:100CF000D1E08BE393E00E940205892B09F4C0C286
:100D00008BE393E00E941A05C82F8091F70390911E
:100D1000F803A091F903B091FA030196A11DB11D4A
:100D20008093F7039093F803A093F903B093FA0329
:100D3000C43209F484C2E091F103C5320CF0BDC0A5
:100D4000CA3019F0CD3009F087C2EF3008F032C157
:100D5000F0E0E052FC4F10828091DF03882309F419
:100D600037C12091E003822F022E000C990B3FEB3C
:100D7000320F363008F0ADC0C7978295807F9091D2
:100D8000E103292F092E000C330B4FEB490F46309E
:100D900008F0A7C027533109820F9091DE03891311
:100DA000F6C08091030490910404A0910504B091D1
:100DB00006040196A11DB11D8093030490930404C1
:100DC000A0930504B09306048091F203882399F060
:100DD0008091FB039091FC03A091FD03B091FE0371
:100DE0000196A11DB11D8093FB039093FC03A0937A
:100DF000FD03B093FE030091EF03002309F47AC0D2
:100E00000130A1F58CE793E00E9477048AE893E033
:100E10000E9477048091F203882341F187E0EAE69B
:100E2000F3E0ACE5B3E001900D928A95E1F787E03D
:100E3000E1E7F3E0A3E6B3E001900D928A95E1F7D4
:100E40000E940A03609378037093790380937A0376
:100E500090937B0300935B0300935A0388E993E02C
:100E60000E94600486EA93E00E946004A090F5036B
:100E7000B090F603A114B10409F49CC0E091F5030D
:100E8000F091F60366A177A1F50186A197A10E94D2
:100E90008114892B09F08EC0B501C50140960E94CE
:100EA0008A140E940A03F50160A371A382A393A38D
:100EB000D5A3D4A3A2A4B3A4DDCFCA3209F445CFED
:100EC000CC3209F0C9C18091DE038C278093DE0308
:100ED0003CCF2156263018F4875591094ECFC09744
:100EE0004CCF9156963018F42755310955CF2053E1
:100EF000310952CF8AE893E00E9477048091F2038F
:100F0000882321F187E0EAE6F3E0ACE5B3E0019065
:100F10000D928A95E1F787E0E1E7F3E0A3E6B3E01D
:100F200001900D928A95E1F70E940A03609378037D
:100F30007093790380937A0390937B03D0935B0340
:100F4000D0935A0384EB93E00E9460048091CC0319
:100F50009091CD03A091CE03B091CF038093C803AD
:100F60009093C903A093CA03B093CB030E940A03D2
:100F70006093C4037093C5038093C6039093C70323
:100F8000D093C303D093C20380ED93E06DCF8091E3
:100F9000FF0390910004A0910104B0910204019616
:100FA000A11DB11D8093FF0390930004A093010441
:100FB000B09302048091F0038F5F8093F00310924E
:100FC000F10381E0CA3209F080E08093DF0391CE23
:100FD0009091F003911144C068E371E080EE93E0DA
:100FE0000E948114892B41F06EE371E080EE93E062
:100FF0000E948114892BF1F4D093EF038091F303C5
:101000009091F4039093F6038093F503A090F50379
:10101000B090F603A114B10469F260EE73E0F5013B
:1010200086A197A10E94811497FF41C1F50182A575
:1010300093A5E8CF64E471E080EE93E00E94811410
:10104000892B41F06AE471E080EE93E00E94811404
:10105000892B19F41092EF03D1CF1093EF03CECF69
:10106000E091EF03E23009F448C08091E003882367
:1010700009F443C020E2E29FF0011124E92B3197EB
:10108000E932F10508F039C0E85BF74F0C9409121A
:101090007108B208B908C008C308F108F8080509C2
:1010A00012097D087D087D087D087D087D087D0882
:1010B0007D087D087D087D087D087D087D087D0808
:1010C0007D087D087D087D087D087D087D087D08F8
:1010D0007108AC08B208B908C008C308CA08D70824
:1010E000E40880EE93E00E941606609390037093EC
:1010F00091038093920390939303A090F503B09093
:10110000F6030091F003A114B10409F453CFE09168
:10111000F503F091F60366A177A1F50186A197A1E9
:101120000E948114892B09F045CFF50120A531A536
:10113000802F90E0821793070CF43CCF28173907D3
:1011400039F440E150E060EE73E0C5010E94911473
:10115000F501A2A4B3A4D5CF91E0813409F445C030
:1011600090E043C06AE673E080EE93E00E948F0552
:10117000C4CF91E0833509F090E090937003BDCF28
:1011800061E773E0F1CF91E0873509F090E090934B
:101190007703B3CF80EE93E00E9416066093A2031C
:1011A0007093A3038093A4039093A503A6CF80EE2E
:1011B00093E00E9416066093B0037093B10380938E
:1011C000B2039093B30399CF80EE93E00E947B111A
:1011D00060938203709383038093840390938503C9
:1011E0008CCF91E081330CF4BBCF9093F20385CF89
:1011F00080EE93E00E947B116093CC037093CD034B
:101200008093CE039093CF0378CF80EE93E00E943B
:1012100016066093DA037093DB038093DC039093EC
:10122000DD036BCF80EE93E00E9416066093BE0351
:101230007093BF038093C0039093C1035ECF10925D
:10124000F1031092F0031092DE031093EF0310925B
:10125000DF031092F2034DCDEE3040F481E08E0FAB
:101260008093F103F0E0E052FC4FC0838091DF03F4
:1012700081113FCD8091DE03C827C093DE0339CDB5
:101280000E940A036C197D098E099F09683E73400C
:101290008105910508F42DCDDF91CF911F910F911C
:1012A000FF90EF90DF90CF90BF90AF900895892B83
:1012B00009F480CE1092F6031092F5037BCE85EDF3
:1012C0008093BC008091640290916502A0916602B7
:1012D000B09167020796A11DB11D23E0B695A795B1
:1012E000979587952A95D1F72091BC0024FD03C0DE
:1012F00010926202089540916402509165026091DB
:10130000660270916702452B462B472B69F30097C5
:10131000A105B10541F025E32A95F1F700000197F9
:10132000A109B109E1CF809163020C94AC011F9235
:101330000F920FB60F9211242F933F934F935F9309
:101340006F937F938F939F93AF93BF93EF93FF938D
:101350008091B900887F803609F44AC0F0F5883260
:1013600009F4A7C018F5803109F49BC0B8F48823AC
:1013700009F4F9C0883009F494C0FF91EF91BF914E
:10138000AF919F918F917F916F915F914F913F911D
:101390002F910F900FBE0F901F901895883109F470
:1013A00088C0803251F78093600214C0803409F401
:1013B0009DC040F48033B9F38833F9F6809360021E
:1013C00085ECB0C0803509F485C0883509F496C035
:1013D000883499F60E945F09D0CF883909F48CC00F
:1013E00038F5883729F050F4883611F0803729F61F
:1013F00083E08093620210923B0257C0883809F460
:101400007BC0803919F0803809F0B7CF80913B025A
:10141000803208F071C0E0913B0281E08E0F809332
:101420003B028091BB00F0E0E55EFD4F80833DC054
:10143000803B39F0E0F4803A09F479C0883A09F049
:101440009CCF84E08093620210921A0210921902DB
:10145000E0912903F0912A030995809119028111E5
:101460000FC081E0809319021092F90109C0803CFD
:1014700009F4A6CF883C09F4A3CF883B09F07DCFBF
:10148000E0911A0281E08E0F80931A02F0E0E7509B
:10149000FE4F80818093BB0090911A0280911902C7
:1014A00029C080913D028093BB0085EC8093BC00F5
:1014B00064CF90915F0280915E02981758F5E09199
:1014C0005F0281E08E0F80935F02F0E0E25CFD4FEF
:1014D0008081E9CFE0915F0281E08E0F80935F020F
:1014E0008091BB00F0E0E25CFD4F808390915F0251
:1014F00080915E029817C8F285E8D8CFE0915F022C
:1015000081E08E0F80935F028091BB00F0E0E25C8F
:10151000FD4F80838091610281115CCF81E08093D7
:101520003C0284EA8093BC001092620226CF85ECD4
:101530008093BC001092620280913B02803230F4B2
:10154000E0913B02F0E0E55EFD4F108260913B02CE
:1015500070E0E0912703F09128038BE192E0099578
:1015600010923B020ACF1092600234CF1F920F926A
:101570000FB60F9211242F933F938F939F93AF93A6
:10158000BF938091D0019091D101A091D201B091EF
:10159000D3013091CF0123E0230F2D3758F5019669
:1015A000A11DB11D2093CF018093D0019093D10153
:1015B000A093D201B093D3018091D4019091D50131
:1015C000A091D601B091D7010196A11DB11D8093C4
:1015D000D4019093D501A093D601B093D701BF91C8
:1015E000AF919F918F913F912F910F900FBE0F90D0
:1015F0001F90189526E8230F0296A11DB11DD2CF8A
:101600001F920F920FB60F9211242F933F934F9377
:101610005F936F937F938F939F93AF93BF93EF935A
:10162000FF938AE892E00E94D103FF91EF91BF916E
:10163000AF919F918F917F916F915F914F913F916A
:101640002F910F900FBE0F901F9018951F920F9221
:101650000FB60F9211242F938F939F93EF93FF93C5
:10166000E0919A02F0919B028081E091A002F091BA
:10167000A10282FD1BC090818091A3028F5F8F73B6
:101680002091A402821741F0E091A302F0E0E65716
:10169000FD4F958F8093A302FF91EF919F918F91C2
:1016A0002F910F900FBE0F901F9018958081F4CF4F
:1016B0001F920F920FB60F9211242F933F934F93C7
:1016C0005F936F937F938F939F93AF93BF93EF93AA
:1016D000FF93E091C201F091C301309749F0A685D4
:1016E000B7858585968D91FF14C09C918923A1F4BF
:1016F000FF91EF91BF91AF919F918F917F916F91EA
:101700005F914F913F912F910F900FBE0F901F90BF
:1017100018959C91892361F7A389B4899C91858947
:10172000809589238C93868997890197F1F7608D3D
:10173000718DA685B785558538E020E0CB010197EE
:10174000F1F7822F90E095958795282F4C914523AE
:1017500009F02068315091F7868D81FD20958091A8
:10176000C10190E001968F7399273091C00138171D
:1017700099F0A091C101B0E0A058BE4F2C93809386
:10178000C101828D938D0197F1F7A389B4898C9162
:101790009589892B8C93ACCF868D8160868FF1CF14
:1017A000CF92DF92EF92FF921092320310923103A8
:1017B00098EEC92E93E0D92EE12CF12CC092330380
:1017C000D0923403E0923503F092360386E091E044
:1017D0009093300380932F0310928D0210928C020D
:1017E000C0928E02D0928F02E0929002F09291020B
:1017F00088E191E090938B0280938A0285EC90E0DF
:10180000909397028093960284EC90E090939902D3
:101810008093980280EC90E090939B0280939A02D0
:1018200081EC90E090939D0280939C0282EC90E08A
:1018300090939F0280939E0286EC90E09093A10289
:101840008093A0021092A3021092A4021092A5020B
:101850001092A60210922E0310922D0310922C03C8
:1018600010922B030E948E0183E990E090932A034B
:101870008093290384E990E09093280380932703C1
:1018800010925A0310925B0310925D0310925C0356
:1018900010925E0310925F03109260031092610336
:1018A0001092620310926403109263031092650316
:1018B00010926603109267031092680310926903F6
:1018C00010926B0310926A0310926C0310926D03D6
:1018D00010926E0310926F031092700310927203B5
:1018E0001092710310927303109274031092750397
:1018F000109276031092770310927C0310927D036E
:1019000010927E0310927F03109280031092810345
:1019100010928A0310928B0310928C0310928D0305
:1019200010928E0310928F031092980310929903D5
:1019300010929E0310929F031092A0031092A10395
:101940001092A6031092A7031092AC031092AD035D
:101950001092AE031092AF031092B4031092B5032D
:101960001092BA031092BB031092BC031092BD03F5
:101970001092C2031092C3031092C8031092C903BD
:101980001092CA031092CB031092D0031092D1038D
:101990001092D6031092D7031092D8031092D90355
:1019A0001092DE031092DF0382E08093EF03109227
:1019B000F0031092F1031092F2031092F4031092CC
:1019C000F3031092F6031092F5031092F7031092AE
:1019D000F8031092F9031092FA031092FB0310928D
:1019E000FC031092FD031092FE031092FF0310926D
:1019F0000004109201041092020410920304109249
:101A0000040410920504109206041092E003109250
:101A10003E0310923D03C0923F03D0924003E092F8
:101A20004103F09242038AE291E090933C03809359
:101A30003B031092520310925103109254031092E0
:101A400053031092560310925503109258031092AC
:101A50005703609159036E7F6D7F609359036695BC
:101A6000617081E0682783E00E94420161E083E0C9
:101A70000E94CD01EDEBF0E0E491E0934B03E9EA45
:101A8000F0E0E491F0E0EE0FFF1FE456FF4F859188
:101A9000949190934D0380934C0360E082E00E9408
:101AA000CD018091590381FD04C061E082E00E9474
:101AB000420182E080934703ECEBF0E0E491E09395
:101AC0004803E8EAF0E0E491F0E0EE0FFF1FEE5685
:101AD000FF4F8591949190934A0380934903FF901F
:101AE000EF90DF90CF900895789484B5826084BDA4
:101AF00084B5816084BD85B5826085BD85B5816012
:101B000085BD80916E00816080936E00109281008F
:101B1000809181008260809381008091810081604A
:101B2000809381008091800081608093800080910B
:101B3000B10084608093B1008091B0008160809397
:101B4000B00080917A00846080937A0080917A005E
:101B5000826080937A0080917A00816080937A001D
:101B600080917A00806880937A001092C10061E0D1
:101B700085E00E94CD0160E085E00E9442018DE792
:101B800090E00E9416030E94FE014B015C0192E36B
:101B9000C92ED12CE12CF12C0E94FE016819790983
:101BA0008A099B09683E734081059105A8F321E0ED
:101BB000C21AD108E108F10888EE880E83E0981E69
:101BC000A11CB11CC114D104E104F10429F78DE773
:101BD00090E00E941603E0919A02F0919B0282E04D
:101BE0008083E0919602F09197021082E091980232
:101BF000F091990280E180831092A202E0919E020E
:101C0000F0919F0286E08083E0919C02F0919D021A
:101C1000808180618083E0919C02F0919D028081AF
:101C200088608083E0919C02F0919D0280818068B1
:101C30008083E0919C02F0919D0280818F7D808362
:101C400010925603109255031092540310925303AE
:101C500010925203109251038DE991E09093580332
:101C60008093570390914703963108F047C02DEBBE
:101C700030E030935203209351032BE931E030934D
:101C80005403209353032CE231E030935603209306
:101C900055032091680084E0983048F031E09E3090
:101CA00008F430E081E001C0880F3A95EAF7822B12
:101CB000809368002DE630E0983050F02BE630E05D
:101CC0009E3030F02CE630E0963110F030E020E02D
:101CD00030934F0320934E03292F30E0983008F0C3
:101CE0001BC281E001C0880F9A95EAF780935003E8
:101CF00080915703909158030197F1F78091550314
:101D000090915603892B49F1E091C201F091C301F2
:101D100023E0EB33F20709F1309739F0A389B48956
:101D20009C918589809589238C93809159038E7F1E
:101D3000809359031092C1011092C0018BE393E08C
:101D40009093C3018093C201E0914E03F0914F0341
:101D5000808190915003892B80830E9469061092A4
:101D60007D0360917E0370917F0380918003909149
:101D7000810320E137E240E050E00E94E7112111A9
:101D800008C080E591E00E943E0583E691E00E9454
:101D90003E050E94690683E691E00E943E0580E0D0
:101DA000282E80E0382E11E008E610929903609109
:101DB0009E0370919F038091A0039091A1030E94C4
:101DC0005A1326E53EE04DEE5FE30E940F1420E03B
:101DD00030E048EC52E40E94B7126B017C01209184
:101DE000C4013091C5014091C6015091C7010E94C4
:101DF00045124B015C0120E030E0A9010E940A1469
:101E000018160CF096C12DEC3CEC4CE45EE3C501D9
:101E1000B4010E940A1418160CF495C110927D03A7
:101E2000C0907E03D0907F03E0908003F090810308
:101E3000C701B60120E137E240E050E00E94E7111F
:101E40002093CC01C701B60124E630E040E050E029
:101E50000E94E711C62FCA01B90124E630E040E034
:101E600050E00E94E7116093CD01C25EC093CE01A5
:101E700010928B03C0908C03D0908D03E0908E0362
:101E8000F0908F03C701B60120E432E44FE050E048
:101E90000E94E7112D5F2093CA01C701B60120E11E
:101EA00037E240E050E00E94E711CA01B90124E6A0
:101EB00030E040E050E00E94E711C62F6093C90176
:101EC000C701B60124E630E040E050E00E94E7118F
:101ED000CA01B90124E630E040E050E00E94E71179
:101EE0006093C801C11182C0611180C01093680263
:101EF0000093890210922C0310922B0360E08FE272
:101F000093E00E94130160E88FE293E00E941301C6
:101F10008091C901CAE06C2F0E94C7118295807F11
:101F2000682F690F8FE293E00E9413018091CA012C
:101F30006C2F0E94C7118295807F682F690F8FE2F6
:101F400093E00E9413018091CB016C2F0E94C71176
:101F50008295807F682F690F8FE293E00E941301C2
:101F60008091CC016C2F0E94C7118295807F682FD1
:101F7000690F8FE293E00E9413018091CD016C2FD5
:101F80000E94C7118295807F682F690F8FE293E0CE
:101F90000E9413018091CE018E516C2F0E94C711B7
:101FA0008295807F682F690F8FE293E00E94130172
:101FB0000E94230281111AC01093680210922C0310
:101FC00010922B0360E08FE293E00E941301809156
:101FD000C8016C2F0E94C7118295807F682F690FFE
:101FE0008FE293E00E9413010E942302809100017E
:101FF0009091010101969093010180930001CC978B
:1020000041F48EE190E00E941603109201011092BB
:102010000001D091C801F090C901E090CA01D090B0
:10202000CD01C091CE016091CC0170E090E080E0E4
:102030004AE00E944B0581E691E00E943E056D2D2D
:1020400070E090E080E04AE00E944B0581E691E07C
:102050000E943E056C2F70E06E54784F072E000CE6
:10206000880B990B4AE00E944B0586E691E00E949E
:102070003E056E2D70E090E080E04AE00E944B0546
:102080008DE791E00E943E056F2D70E090E080E0CA
:102090004AE00E944B058DE791E00E943E056D2FBE
:1020A00070E090E080E04AE00E944B0583E691E01A
:1020B0000E943E050E9469060E940A036938734126
:1020C00081059105E8F08091F7039091F803A091C4
:1020D000F903B091FA030A97A105B10588F4C8E69F
:1020E000D0E0FE016491662339F08AE892E00E9414
:1020F000F3032196892BA9F783E691E00E943E0520
:102100002114310409F451CE0E94BD03882309F43F
:102110004CCE0E94000049CE9E3040F42850310938
:1021200081E001C0880F2A95EAF7E0CD2E503109F1
:10213000F7CF2DEC3CEC4CE45EEBC501B4010E9402
:10214000B21287FF6BCE1092C3036091C8037091E7
:10215000C9038091CA039091CB034AE00E944B05CA
:1021600086E691E00E943E05A7019601C701B601EF
:102170000E947C14882389F08AE691E00E943E0543
:1021800086E791E00E943E05C092C401D092C5014D
:10219000E092C601F092C70141CE46015701E89492
:1021A000B7F82FEF3FEF4FE75FE7C501B4010E949B
:1021B0007C1481110DC02FEF3FEF4FE75FE7C501A2
:1021C000B4010E94B21218161CF48EE691E0D6CF2C
:1021D0002FEF3FEF4FE75FE4C701B6010E940A14FB
:1021E00018161CF482E791E0C9CF2FEF3FEF4FE7BD
:1021F0005FECC701B6010E94B21287FDF3CF20E069
:1022000030E0A901C701B6010E94B21287FF54C095
:102210006DE28AE892E00E94F303C701B60190588C
:102220002AE037ED43EA5BE30E9446122B013C01B2
:102230000E9429134B015C010E9458139B01AC01C1
:10224000C301B2010E9445122B013C014AE0C501C5
:10225000B4010E944B056EE28AE892E00E94F3030B
:1022600020E030E040E251E4C301B2010E940F14CB
:102270002B013C010E9429134B01B12CA12C4AE0F7
:10228000C501B4010E944B05C501B4010E94581359
:102290009B01AC01C301B2010E94451220E030E075
:1022A00040E251E40E940F140E94291390E080E064
:1022B0004AE00E944B0564CFC701B601B1CF8AE264
:1022C00091E090933C0380933B038091C2019091F5
:1022D000C3018B53934071F4E0914E03F0914F038F
:1022E0009081809150038095892380831092C3014F
:1022F0001092C20108951F93FC0199278827BC0101
:10230000E89411911032E9F3193010F01E30C8F33F
:102310001B3251F01D3249F4689406C00E94A2118C
:10232000610F711D811D911D119110531A30B0F371
:102330003EF490958095709561957F4F8F4F9F4F9C
:102340001F910895592F482F372F262F660F771F7B
:10235000881F991F660F771F881F991F620F731FB1
:10236000841F951F660F771F881F991F0895DB0133
:102370008F939F930E940F12BF91AF91A29F800DE8
:10238000911DA39F900DB29F900D11240895991B4C
:1023900079E004C0991F961708F0961B881F7A955C
:1023A000C9F78095089597FB072E16F4009407D07F
:1023B00077FD09D00E94221207FC05D03EF49095CB
:1023C00081959F4F0895709561957F4F0895A1E283
:1023D0001A2EAA1BBB1BFD010DC0AA1FBB1FEE1F9F
:1023E000FF1FA217B307E407F50720F0A21BB30BEA
:1023F000E40BF50B661F771F881F991F1A9469F766
:1024000060957095809590959B01AC01BD01CF01C1
:102410000895EE0FFF1F0590F491E02D09940E949E
:102420003612A59F900DB49F900DA49F800D911D15
:1024300011240895B7FF0C940F120E940F12821BF3
:10244000930B0895AA1BBB1B51E107C0AA1FBB1F1A
:10245000A617B70710F0A61BB70B881F991F5A9530
:10246000A9F780959095BC01CD010895A29FB00178
:10247000B39FC001A39F700D811D1124911DB29FB8
:10248000700D811D1124911D08955058BB27AA2756
:102490000E945D120C94D0130E94C21338F00E9467
:1024A000C91320F039F49F3F19F426F40C94BF139C
:1024B0000EF4E095E7FB0C94B913E92F0E94E113A9
:1024C00058F3BA17620773078407950720F079F469
:1024D000A6F50C9403140EF4E0950B2EBA2FA02D44
:1024E0000B01B90190010C01CA01A0011124FF27C1
:1024F000591B99F0593F50F4503E68F11A16F040BC
:10250000A22F232F342F4427585FF3CF46953795BA
:102510002795A795F0405395C9F77EF41F16BA0B7F
:10252000620B730B840BBAF09150A1F0FF0FBB1F2D
:10253000661F771F881FC2F70EC0BA0F621F731F76
:10254000841F48F4879577956795B795F7959E3FD3
:1025500008F0B0CF9395880F08F09927EE0F979564
:10256000879508950E94951308F481E008950E94CC
:10257000CB120C94D0130E94C91358F00E94C213BE
:1025800040F029F45F3F29F00C94B91351110C94D9
:1025900004140C94BF130E94E11368F39923B1F360
:1025A000552391F3951B550BBB27AA276217730779
:1025B000840738F09F5F5F4F220F331F441FAA1F0D
:1025C000A9F335D00E2E3AF0E0E832D091505040C9
:1025D000E695001CCAF72BD0FE2F29D0660F771F77
:1025E000881FBB1F261737074807AB07B0E809F05D
:1025F000BB0B802DBF01FF2793585F4F3AF09E3FE2
:10260000510578F00C94B9130C9404145F3FE4F373
:10261000983ED4F3869577956795B795F7959F5F24
:10262000C9F7880F911D9695879597F90895E1E070
:10263000660F771F881FBB1F621773078407BA07CF
:1026400020F0621B730B840BBA0BEE1F88F7E0952A
:1026500008950E94E91388F09F5798F0B92F9927A1
:10266000B751B0F0E1F0660F771F881F991F1AF07D
:10267000BA95C9F714C0B13091F00E940314B1E0CB
:1026800008950C940314672F782F8827B85F39F0CA
:10269000B93FCCF3869577956795B395D9F73EF416
:1026A00090958095709561957F4F8F4F9F4F0895BE
:1026B000E89409C097FB3EF49095809570956195DC
:1026C0007F4F8F4F9F4F9923A9F0F92F96E9BB2792
:1026D0009395F695879577956795B795F111F8CF0E
:1026E000FAF4BB0F11F460FF1BC06F5F7F4F8F4F79
:1026F0009F4F16C0882311F096E911C0772321F06F
:102700009EE8872F762F05C0662371F096E8862F06
:1027100070E060E02AF09A95660F771F881FDAF75D
:10272000880F9695879597F90895990F0008550F8A
:10273000AA0BE0E8FEEF16161706E807F907C0F047
:1027400012161306E407F50798F0621B730B840B4F
:10275000950B39F40A2661F0232B242B252B21F429
:1027600008950A2609F4A140A6958FEF811D811DC9
:10277000089597F99F6780E870E060E008959FEF03
:1027800080EC089500240A94161617061806090608
:10279000089500240A9412161306140605060895D7
:1027A000092E0394000C11F4882352F0BB0F40F45F
:1027B000BF2B11F460FF04C06F5F7F4F8F4F9F4F9F
:1027C000089557FD9058440F551F59F05F3F71F021
:1027D0004795880F97FB991F61F09F3F79F0879588
:1027E0000895121613061406551FF2CF4695F1DF11
:1027F00008C0161617061806991FF1CF86957105A1
:10280000610508940895E894BB2766277727CB01D4
:1028100097F908950E94951308F48FEF08950E9488
:1028200022140C94D0130E94C21338F00E94C913D2
:1028300020F0952311F00C94B9130C94BF131124BC
:102840000C9404140E94E11370F3959FC1F3950F4B
:1028500050E0551F629FF001729FBB27F00DB11D24
:10286000639FAA27F00DB11DAA1F649F6627B00DB4
:10287000A11D661F829F2227B00DA11D621F739F9D
:10288000B00DA11D621F839FA00D611D221F749FAB
:102890003327A00D611D231F849F600D211D822FF2
:1028A000762F6A2F11249F5750409AF0F1F0882319
:1028B0004AF0EE0FFF1FBB1F661F771F881F915046
:1028C0005040A9F79E3F510580F00C94B9130C9429
:1028D00004145F3FE4F3983ED4F3869577956795AB
:1028E000B795F795E7959F5FC1F7FE2B880F911D70
:1028F0009695879597F908950E949513880B990BE3
:102900000895FB01DC018D91019080190110D9F32C
:10291000990B0895FB01DC0101900D920020E1F775
:102920000895FB01DC014150504048F001900D92A8
:102930000020C9F701C01D9241505040E0F70895B2
:1029400010E0C8E6D0E004C0FE010E940912219602
:0A295000C936D107C9F7F894FFCF8C
:10295A000100000000001301E6003B05BC00DF0097
:10296A00CC00BD0000000000F303530380034004C1
:10297A00B1038F03A30300000000A60453033B0521
:10298A00BC0002051A058E044750524D4300474EBB
:10299A00524D4300475047474100474E4747410081
:1029AA0057616974696E6720666F72204750532EAB
:1029BA002E2E000D0A00202020006E616E00696E26
:1029CA0066006F76660020202D2D2020003A000038
:00000001FF
