:100000000C9469000C9491000C9491000C945D0880
:100010000C945D080C945D080C9491000C94910074
:100020000C9491000C9491000C9491000C9491000C
:100030000C9491000C9491000C9491000C949100FC
:100040000C94BB070C9491000C942B080C9405089D
:100050000C9491000C9491000C9491000C949100DC
:100060000C9491000C949100475053204C4F5354E2
:100070002121210000000000240027002A000000A8
:100080000008000201000003040700000000000057
:1000900000000000000023002600290000000000EE
:1000A000250028002B0004040404040404040202B4
:1000B00002020202030303030303010204081020E7
:1000C0004080010204081020010204081020D50815
:1000D000870D11241FBECFEFD8E0DEBFCDBF11E0EA
:1000E000A0E0B1E0E2E9F1E202C005900D92AE3687
:1000F000B107D9F723E0AEE6B1E001C01D92A4320A
:10010000B207E1F710E0C8E6D0E004C02197FE0195
:100110000E94250EC736D107C9F70E94470A0C94E2
:10012000BC100C94000090E0FC01E258FF4F2491B9
:10013000FC01E654FF4F3491FC01EA55FF4FE49176
:10014000EE23C9F0222339F0233001F1A8F4213045
:1001500019F1223029F1F0E0EE0FFF1FE456FF4FB6
:10016000A591B4918FB7F894EC91611126C03095A8
:100170003E233C938FBF08952730A9F02830C9F063
:10018000243049F7809180008F7D03C080918000EA
:100190008F7780938000DFCF84B58F7784BDDBCFEE
:1001A00084B58F7DFBCF8091B0008F778093B000B6
:1001B000D2CF8091B0008F7DF9CF3E2BDACFCF9395
:1001C000DF9390E0FC01E654FF4F24918A559F4F46
:1001D000FC0184918823D1F090E0880F991FFC01E5
:1001E000EC58FF4FA591B491FC01E456FF4FC59127
:1001F000D49161110EC09FB7F8948C91E22FE095D5
:100200008E238C932881E223E8839FBFDF91CF91D7
:1002100008958FB7F894EC91E22BEC938FBFF6CF53
:100220003FB7F8948091B7019091B801A091B901BE
:10023000B091BA0126B5A89B05C02F3F19F00196D1
:10024000A11DB11D3FBFBA2FA92F982F8827BC0130
:10025000CD01620F711D811D911D42E0660F771F58
:10026000881F991F4A95D1F708952FB7F894609188
:10027000B3017091B4018091B5019091B6012FBF87
:1002800008958F929F92AF92BF92CF92DF92EF929A
:10029000FF92CF93DF936C010E9435014B015C010B
:1002A0000D2C000CEE08FF08C3E5D2E00E943501DA
:1002B000681979098A099B096C157D058E059F05CA
:1002C00078F461E085E00E949300CE010197F1F798
:1002D00060E085E00E949300CE010197F1F7E6CF40
:1002E00060E085E0DF91CF91FF90EF90DF90CF90BD
:1002F000BF90AF909F908F900C949300AF92BF925D
:10030000CF92DF92EF92FF920F931F93CF93DF93E1
:100310006C017B018B01040F151FEB015E01AE1810
:10032000BF08C017D10759F06991D601ED91FC9132
:100330000190F081E02DC6010995892B79F7C5015F
:10034000DF91CF911F910F91FF90EF90DF90CF90B1
:10035000BF90AF900895FC01538D448D252F30E060
:10036000842F90E0821B930B541710F0CF960895C2
:1003700001970895FC01918D828D981761F0A28DEF
:10038000AE0FBF2FB11D5D968C91928D9F5F9F73B5
:10039000928F90E008958FEF9FEF0895FC01918D6B
:1003A000828D981731F0828DE80FF11D858D90E0D8
:1003B00008958FEF9FEF0895FC01918D228D892F75
:1003C00090E0805C9F4F821B91098F73992708955D
:1003D0008BEB91E00E94DC0121E0892B09F420E005
:1003E000822F089580E090E0892B29F00E94E80197
:1003F00081110C9400000895FC01A48DA80FB92F61
:10040000B11DA35ABF4F2C91848D90E001968F733C
:100410009927848FA689B7892C93A089B1898C915B
:10042000837080648C93938D848D981306C00288AA
:10043000F389E02D80818F7D80830895EF92FF9274
:100440000F931F93CF93DF93EC0181E0888F9B8DF7
:100450008C8D98131AC0E889F989808185FF15C0B1
:100460009FB7F894EE89FF896083E889F9898081D4
:100470008370806480839FBF81E090E0DF91CF91A3
:100480001F910F91FF90EF900895F62E0B8D10E0C5
:100490000F5F1F4F0F731127E02E8C8D8E110CC034
:1004A0000FB607FCFACFE889F989808185FFF5CF7F
:1004B000CE010E94FC01F1CFEB8DEC0FFD2FF11D61
:1004C000E35AFF4FF0829FB7F8940B8FEA89FB89BC
:1004D00080818062CFCFCF93DF93EC01888D88231A
:1004E000B9F0AA89BB89E889F9898C9185FD03C097
:1004F000808186FD0DC00FB607FCF7CF8C9185FF7C
:10050000F2CF808185FFEDCFCE010E94FC01E9CFC3
:10051000DF91CF910895CF93DF93EC018A859B857E
:10052000AC85BD858E839F83A887B9870E943501DE
:100530006A837B838C839D8381E089838883DF91B9
:10054000CF910895CF93DF93EC018E819F81A88591
:10055000B9858A839B83AC83BD830E9435016A87FA
:100560007B878C879D8781E089838883DF91CF910A
:1005700008952091B0013091B1012817390771F425
:100580009091AE018091AF01981741F0E091AE01DA
:10059000F0E0E259FE4F808190E008958FEF9FEFE9
:1005A00008950895EF92FF920F931F93CF93DF93D7
:1005B000DC015C96ED90FC905D97E114F10479F418
:1005C00081E090E013969C938E93129790E080E0E8
:1005D000DF91CF911F910F91FF90EF900895519669
:1005E000ED91FC91529750968C915097982F909541
:1005F0000FB75E962C915E97122F127021FD6095B9
:10060000F8942081112319F1282B2083E7012197E9
:10061000F1F728E0462F50E0308160FF1AC0382BF8
:100620003083E7012197F1F7BA017595679521505D
:1006300089F7112381F08081892380830FBF5C9625
:100640008D919C910197F1F781E090E0C1CF292332
:10065000DCCF3923E5CF9081892BEFCF2091B001FA
:100660003091B1012817390771F48091AF012091C1
:10067000AE0190E0805C9F4F821B910960E470E0C6
:100680000E94EF0D089590E080E008952091B00160
:100690003091B10128173907B9F49091AE018091DA
:1006A000AF01981789F0E091AE01F0E0E259FE4FFA
:1006B00080812091AE0130E02F5F3F4F2F733327B1
:1006C0002093AE0190E008958FEF9FEF089590E0A2
:1006D00080E008952F923F924F925F926F927F92A7
:1006E0008F929F92AF92BF92CF92DF92EF92FF9242
:1006F0000F931F93CF93DF93D82FC92F8B010E94A5
:10070000A30D24E630E040E050E00E94030E4901D2
:100710009B01AC0160E876E988E990E00E94DF0D7A
:100720006B017C01F80191828082ED2FFC2F2191D9
:10073000822F022E000C990BC0970A97C0F32E321D
:1007400039F51F0180E8882E86E9982E88E9A82EC1
:10075000B12C9AE0492E512C612C712CF101C191E0
:100760001F010C2E000CDD0BE097CA30D10580F480
:10077000C501B401A30192010E94030E49015A016F
:10078000DE010E94360EC60ED71EE81EF91EE6CF09
:10079000A5E0B0E0A70196010E942B0E6F5F7F4F8E
:1007A0008F4F9F4F23E030E040E050E00E94030E67
:1007B000F80122833383448355831682DF91CF91DE
:1007C0001F910F91FF90EF90DF90CF90BF90AF906F
:1007D0009F908F907F906F905F904F903F902F9061
:1007E00008951F93CF93DF93EC0118811D3209F414
:1007F0002196CE010E94A30D9B01AC01A4E6B0E0BE
:100800000E942B0EAB01BC01FE012991822F022E0A
:10081000000C990BC0970A97B8F32E3231F58181FD
:10082000082E000C990BC0978A309105F0F4AAE0CD
:10083000A89F9001A99F300D1124C901330FAA0B65
:10084000BB0B480F591F6A1F7B1F8281082E000CAB
:10085000990BC0978A30910540F4092E000CAA0B21
:10086000BB0B480F591F6A1F7B1F1D3239F470954F
:100870006095509541955F4F6F4F7F4FCB01BA0107
:10088000DF91CF911F910895AF92BF92CF92DF92E7
:10089000EF92FF920F931F93CF93DF930E94350146
:1008A0006B017C0112E0D1E088E592E00E942E030A
:1008B000892B09F4C0C288E592E00E944603C82F44
:1008C0008091140390911503A0911603B091170322
:1008D0000196A11DB11D8093140390931503A0935D
:1008E0001603B0931703C43209F484C2E0910E03D7
:1008F000C5320CF0BDC0CA3019F0CD3009F087C246
:10090000EF3008F032C1F0E0E350FD4F10828091EB
:10091000FC02882309F437C12091FD02822F022EA8
:10092000000C990B3FEB320F363008F0ADC0C79783
:100930008295807F9091FE02292F092E000C330BA7
:100940004FEB490F463008F0A7C027533109820FFB
:100950009091FB028913F6C08091200390912103AE
:10096000A0912203B09123030196A11DB11D809394
:10097000200390932103A0932203B093230380913B
:100980000F03882399F08091180390911903A09187
:100990001A03B0911B030196A11DB11D809318038A
:1009A00090931903A0931A03B0931B0300910C03B7
:1009B000002309F47AC00130A1F589E992E00E9490
:1009C000A20287EA92E00E94A20280910F0388238C
:1009D00041F187E0E7E8F2E0A9E7B2E001900D928B
:1009E0008A95E1F787E0EEE8F2E0A0E8B2E0019056
:1009F0000D928A95E1F70E943501609395027093FC
:100A00009602809397029093980200937802009345
:100A1000770285EB92E00E948B0283EC92E00E94C9
:100A20008B02A0901203B0901303A114B10409F437
:100A30009CC0E0911203F091130366A177A1F50128
:100A400086A197A10E949D10892B09F08EC0B50147
:100A5000C50140960E94A6100E943501F50160A3D1
:100A600071A382A393A3D5A3D4A3A2A4B3A4DDCFDF
:100A7000CA3209F445CFCC3209F0C9C18091FB02DA
:100A80008C278093FB023CCF2156263018F48755E3
:100A900091094ECFC0974CCF9156963018F42755F8
:100AA000310955CF2053310952CF87EA92E00E9495
:100AB000A20280910F03882321F187E0E7E8F2E0AA
:100AC000A9E7B2E001900D928A95E1F787E0EEE8A0
:100AD000F2E0A0E8B2E001900D928A95E1F70E9461
:100AE00035016093950270939602809397029093DC
:100AF0009802D0937802D093770281ED92E00E9421
:100B00008B028091E9029091EA02A091EB02B091F0
:100B1000EC028093E5029093E602A093E702B09383
:100B2000E8020E9435016093E1027093E202809333
:100B3000E3029093E402D093E002D093DF028DEEC3
:100B400092E06DCF80911C0390911D03A0911E0334
:100B5000B0911F030196A11DB11D80931C039093BA
:100B60001D03A0931E03B0931F0380910D038F5F9D
:100B700080930D0310920E0381E0CA3209F080E0E9
:100B80008093FC0291CE90910D03911144C066E2D6
:100B900071E08DEF92E00E949D10892B41F06CE294
:100BA00071E08DEF92E00E949D10892BF1F4D093BB
:100BB0000C03809110039091110390931303809381
:100BC0001203A0901203B0901303A114B10469F2B0
:100BD0006DEF72E0F50186A197A10E949D1097FF2D
:100BE00041C1F50182A593A5E8CF62E371E08DEFE5
:100BF00092E00E949D10892B41F068E371E08DEF37
:100C000092E00E949D10892B19F410920C03D1CF11
:100C100010930C03CECFE0910C03E23009F448C0EE
:100C20008091FD02882309F443C020E2E29FF00195
:100C30001124E92B3197E932F10508F039C0ED5D57
:100C4000F94F0C94250E4C068D0694069B069E06C5
:100C5000CC06D306E006ED06580658065806580698
:100C60005806580658065806580658065806580694
:100C70005806580658065806580658065806580684
:100C80005806580658064C0687068D0694069B069D
:100C90009E06A506B206BF068DEF92E00E94F10304
:100CA0006093AD027093AE028093AF029093B00256
:100CB000A0901203B090130300910D03A114B1048E
:100CC00009F453CFE0911203F091130366A177A1C9
:100CD000F50186A197A10E949D10892B09F045CFAF
:100CE000F50120A531A5802F90E0821793070CF421
:100CF0003CCF2817390739F440E150E06DEF72E03E
:100D0000C5010E94AD10F501A2A4B3A4D5CF91E016
:100D1000813409F445C090E043C067E872E08DEF8C
:100D200092E00E946A03C4CF91E0833509F090E01D
:100D300090938D02BDCF6EE872E0F1CF91E08735E0
:100D400009F090E090939402B3CF8DEF92E00E946F
:100D5000F1036093BF027093C0028093C10290932D
:100D6000C202A6CF8DEF92E00E94F1036093CD0204
:100D70007093CE028093CF029093D00299CF8DEFE3
:100D800092E00E94A30D60939F027093A002809353
:100D9000A1029093A2028CCF91E081330CF4BBCFDF
:100DA00090930F0385CF8DEF92E00E94A30D609387
:100DB000E9027093EA028093EB029093EC0278CF01
:100DC0008DEF92E00E94F1036093F7027093F802B6
:100DD0008093F9029093FA026BCF8DEF92E00E941C
:100DE000F1036093DB027093DC028093DD02909349
:100DF000DE025ECF10920E0310920D031092FB02E2
:100E000010930C031092FC0210920F034DCDEE30A4
:100E100040F481E08E0F80930E03F0E0E350FD4F2D
:100E2000C0838091FC0281113FCD8091FB02C827D5
:100E3000C093FB0239CD0E9435016C197D098E09E2
:100E40009F09683E73408105910508F42DCDDF911F
:100E5000CF911F910F91FF90EF90DF90CF90BF90B7
:100E6000AF900895892B09F480CE1092130310924D
:100E700012037BCEFC0101900020E9F73197AF010E
:100E8000481B590BBC018BEB91E00C947E018F92B7
:100E90009F92AF92BF920F931F93CF93DF93CDB7E3
:100EA000DEB7A1970FB6F894DEBF0FBECDBF19A273
:100EB000423008F44AE08E010F5D1F4F842E912CC2
:100EC000B12CA12CA50194010E94030EE62FB901BB
:100ED000CA01EA30F4F4E05DD801EE938D01232BD2
:100EE000242B252B79F790E080E0109719F0CD01A5
:100EF0000E943A07A1960FB6F894DEBF0FBECDBF91
:100F0000DF91CF911F910F91BF90AF909F908F90E5
:100F10000895E95CE1CFCF92DF92EF92FF92CF93F9
:100F2000DF936C01990FEE08FF08F7FE19C06DE220
:100F30008BEB91E00E941E02EC0166277727CB0124
:100F40006C197D098E099F094AE00E9447078C0FA2
:100F50009D1FDF91CF91FF90EF90DF90CF9008958C
:100F60004AE0C701B601DF91CF91FF90EF90DF908B
:100F7000CF900C9447071F920F920FB60F92112437
:100F80002F933F938F939F93AF93BF938091B30120
:100F90009091B401A091B501B091B6013091B20128
:100FA00023E0230F2D3758F50196A11DB11D209385
:100FB000B2018093B3019093B401A093B501B093B3
:100FC000B6018091B7019091B801A091B901B0919B
:100FD000BA010196A11DB11D8093B7019093B8018C
:100FE000A093B901B093BA01BF91AF919F918F9136
:100FF0003F912F910F900FBE0F901F90189526E8EC
:10100000230F0296A11DB11DD2CF1F920F920FB6D2
:101010000F9211242F933F934F935F936F937F937E
:101020008F939F93AF93BF93EF93FF938BEB91E0DD
:101030000E94FC01FF91EF91BF91AF919F918F9121
:101040007F916F915F914F913F912F910F900FBEC4
:101050000F901F9018951F920F920FB60F921124A8
:101060002F938F939F93EF93FF93E091CB01F09198
:10107000CC018081E091D101F091D20182FD1BC0B1
:1010800090818091D4018F5F8F732091D501821759
:1010900041F0E091D401F0E0E554FE4F958F80934C
:1010A000D401FF91EF919F918F912F910F900FBEDF
:1010B0000F901F9018958081F4CF1F920F920FB65A
:1010C0000F9211242F933F934F935F936F937F93CE
:1010D0008F939F93AF93BF93EF93FF93E091B001F2
:1010E000F091B101309749F0A685B7858585968D39
:1010F00091FF14C09C918923A1F4FF91EF91BF91BE
:10110000AF919F918F917F916F915F914F913F919F
:101110002F910F900FBE0F901F9018959C918923CF
:1011200061F7A389B4899C918589809589238C93E3
:10113000868997890197F1F7608D718DA685B785AE
:10114000558538E020E0CB010197F1F7822F90E040
:1011500095958795282F4C91452309F020683150AB
:1011600091F7868D81FD20958091AF0190E00196E9
:101170008F7399273091AE01381799F0A091AF0184
:10118000B0E0A259BE4F2C938093AF01828D938D16
:101190000197F1F7A389B4898C919589892B8C9358
:1011A000ACCF868D8160868FF1CF1092BE011092F8
:1011B000BD0188EE93E0A0E0B0E08093BF01909382
:1011C000C001A093C101B093C20126E031E0309389
:1011D000BC012093BB0125EC30E03093C801209383
:1011E000C70124EC30E03093CA012093C90120EC00
:1011F00030E03093CC012093CB0121EC30E03093F0
:10120000CE012093CD0122EC30E03093D001209329
:10121000CF0126EC30E03093D2012093D10110921F
:10122000D4011092D5011092D6011092D7011092DC
:1012300077021092780210927A021092790210923C
:101240007B0210927C0210927D0210927E0210921C
:101250007F021092810210928002109282021092FC
:1012600083021092840210928502109286021092DC
:101270008802109287021092890210928A021092BC
:101280008B0210928C0210928D0210928F0210929B
:101290008E0210929002109291021092920210927D
:1012A0009302109294021092990210929A02109254
:1012B0009B0210929C0210929D0210929E0210922C
:1012C000A7021092A8021092A9021092AA021092EC
:1012D000AB021092AC021092B5021092B6021092BC
:1012E000BB021092BC021092BD021092BE0210927C
:1012F000C3021092C4021092C9021092CA02109244
:10130000CB021092CC021092D1021092D202109213
:10131000D7021092D8021092D9021092DA021092DB
:10132000DF021092E0021092E5021092E6021092A3
:10133000E7021092E8021092ED021092EE02109273
:10134000F3021092F4021092F5021092F60210923B
:10135000FB021092FC0222E020930C0310920D037A
:1013600010920E0310920F031092110310921003AB
:10137000109213031092120310921403109215038B
:10138000109216031092170310921803109219036B
:1013900010921A0310921B0310921C0310921D034B
:1013A00010921E0310921F0310922003109221032B
:1013B00010922203109223031092FD0210925B02FE
:1013C00010925A0280935C0290935D02A0935E0299
:1013D000B0935F0288E191E09093590280935802A4
:1013E00010926F0210926E021092710210927002AF
:1013F000109273021092720210927502109274028F
:10140000609176026E7F6D7F609376026695617063
:1014100081E0682783E00E94930061E083E00E94FE
:10142000DF00EDEBF0E0E491E0936802E9EAF0E040
:10143000E491F0E0EE0FFF1FE456FF4F8591949189
:1014400090936A028093690260E082E00E94DF006C
:101450008091760281FD04C061E082E00E949300E9
:1014600082E080936402ECEBF0E0E491E0936502AB
:10147000E8EAF0E0E491F0E0EE0FFF1FEE56FF4FD8
:101480008591949190936702809366020895CF931B
:10149000DF9300D000D0CDB7DEB7789484B58260FA
:1014A00084BD84B5816084BD85B5826085BD85B508
:1014B000816085BD80916E00816080936E00109286
:1014C0008100809181008260809381008091810001
:1014D0008160809381008091800081608093800092
:1014E0008091B10084608093B1008091B0008160F0
:1014F0008093B00080917A00846080937A0080911C
:101500007A00826080937A0080917A008160809373
:101510007A0080917A00806880937A001092C100EE
:1015200061E085E00E94DF0060E085E00E949300BA
:101530008DE790E00E9441010E9410014B015C0187
:1015400092E3C92ED12CE12CF12C0E9410016819D4
:1015500079098A099B09683E734081059105A8F3C2
:1015600021E0C21AD108E108F10838EE830E33E019
:10157000931EA11CB11CC114D104E104F10429F78C
:101580008DE790E00E944101E091CB01F091CC0108
:1015900082E08083E091C701F091C8011082E09160
:1015A000C901F091CA0180E180831092D301E091DA
:1015B000CF01F091D00186E08083E091CD01F091E0
:1015C000CE01808180618083E091CD01F091CE01D8
:1015D000808188608083E091CD01F091CE0180818F
:1015E00080688083E091CD01F091CE0180818F7D74
:1015F0008083109273021092720210927102109204
:10160000700210926F0210926E028DE991E0909339
:1016100075028093740290916402963108F047C07D
:101620002DEB30E030936F0220936E022BE931E016
:1016300030937102209370022CE231E030937302F8
:10164000209372022091680084E0983048F031E0E5
:101650009E3008F430E081E001C0880F3A95EAF747
:10166000822B809368002DE630E0983050F02BE616
:1016700030E09E3030F02CE630E0963110F030E073
:1016800020E030936C0220936B02292F30E09830D9
:1016900008F097C181E001C0880F9A95EAF780931E
:1016A0006D0280917402909175020197F1F780911B
:1016B000720290917302892B49F1E091B001F0918F
:1016C000B101B2E0E835FB0709F1309739F0A389A1
:1016D000B4899C918589809589238C938091760229
:1016E0008E7F809376021092AF011092AE0188E552
:1016F00092E09093B1018093B001E0916B02F09180
:101700006C02808190916D02892B80830E94440439
:1017100010929A0260919B0270919C0280919D02AE
:1017200090919E0220E137E240E050E00E94030EDB
:10173000211108C08EE391E00E943A0781E591E013
:101740000E943A070E94440481E591E00E943A0712
:1017500084E6482E512C612C712C00E010E0109290
:10176000E0026091E5027091E6028091E7029091BB
:10177000E8024AE00E94470784E591E00E943A07A8
:1017800010929A0260919B0270919C0280919D023E
:1017900090919E0220E137E240E050E00E94030E6B
:1017A000822F90E00E948B078FE491E00E943A071D
:1017B00010929A0260919B0270919C0280919D020E
:1017C00090919E02A30192010E94030ECA01B901E9
:1017D000A30192010E94030ECB010E948B078FE4AC
:1017E00091E00E943A0710929A0260919B027091D8
:1017F0009C0280919D0290919E02A30192010E9401
:10180000030ECB018053984F0E948B0784E591E033
:101810000E943A071092A8026091A9027091AA0250
:101820008091AB029091AC0220E432E44FE050E0B2
:101830000E94030E822F90E003960E948B0788E59A
:1018400091E00E943A071092A8026091A90270915B
:10185000AA028091AB029091AC0220E137E240E015
:1018600050E00E94030ECA01B901A30192010E9437
:10187000030E7B01CB010E948B0788E591E00E945B
:101880003A071092A8026091A9027091AA02809171
:10189000AB029091AC02A30192010E94030ECA0117
:1018A000B901A30192010E94030E6B01CB010E94BA
:1018B0008B07CD2851F4EF2841F48AE591E00E948E
:1018C0003A0781E591E00E943A0784E591E00E94A1
:1018D0003A071092B6026091BB027091BC028091EF
:1018E000BD029091BE020E94760F26E53EE04DEECD
:1018F0005FE30E942B1020E030E048EC52E40E94AD
:10190000D30E6B017C014B015C01AC019B010E9479
:101910009810882309F462C081E691E00E943A079A
:1019200081E591E00E943A078091000190910101C8
:1019300001969093010180930001CC9741F48EE1D0
:1019400090E00E94410110920101109200010E945A
:1019500044040E943501693873418105910528F1DD
:101960008091140390911503A0911603B091170371
:101970000A97A105B105C8F4E8E6F0E0FA83E98327
:10198000E981FA816491662361F08BEB91E00E941A
:101990001E0229813A812F5F3F4F3A832983892B89
:1019A00079F781E591E00E943A070115110509F4E4
:1019B000D6CE0E94E801882309F4D1CE0E9400000F
:1019C000CECE9E3040F42850310981E001C0880F0E
:1019D0002A95EAF764CE2E503109F7CFD701C60118
:1019E000BF7789839A83AB83BC832FEF3FEF4FE7A9
:1019F0005FE7BC01CD010E94981081110FC02FEF4D
:101A00003FEF4FE75FE769817A818B819C810E947C
:101A1000CE0E18161CF485E691E080CF2FEF3FEF35
:101A20004FE75FE4C701B6010E94261018161CF4A8
:101A300089E691E073CF2FEF3FEF4FE75FECC701EF
:101A4000B6010E94CE0E87FDF3CF20E030E0A90161
:101A5000C701B6010E94CE0E87FF0BC06DE28BEB73
:101A600091E00E941E0246015701B7FAB094B7F800
:101A7000B0942AE037ED43EA5BE3C501B4010E946C
:101A8000620E4B015C010E94450F6B017C010E94BC
:101A9000740F9B01AC01C501B4010E94610E4B01A2
:101AA0005C014AE0C701B6010E9447076EE28BEB7A
:101AB00091E00E941E0220E030E040E251E4C501C6
:101AC000B4010E942B104B015C010E94450F6B0179
:101AD000F12CE12C4AE0C701B6010E944707C7017B
:101AE000B6010E94740F9B01AC01C501B4010E94B4
:101AF000610E20E030E040E251E40E942B100E9491
:101B0000450F90E080E04AE00E94470709CF88E156
:101B100091E090935902809358028091B001909186
:101B2000B1018855924071F4E0916B02F0916C0222
:101B3000908180916D028095892380831092B101FC
:101B40001092B00108951F93FC0199278827BC01CA
:101B5000E89411911032E9F3193010F01E30C8F3F7
:101B60001B3251F01D3249F4689406C00E94CA0D20
:101B7000610F711D811D911D119110531A30B0F329
:101B80003EF490958095709561957F4F8F4F9F4F54
:101B90001F910895592F482F372F262F660F771F33
:101BA000881F991F660F771F881F991F620F731F69
:101BB000841F951F660F771F881F991F0895DB01EB
:101BC0008F939F930E942B0EBF91AF91A29F800D88
:101BD000911DA39F900DB29F900D1124089597FB26
:101BE000072E16F4009407D077FD09D00E943E0E10
:101BF00007FC05D03EF4909581959F4F0895709510
:101C000061957F4F0895A1E21A2EAA1BBB1BFD010F
:101C10000DC0AA1FBB1FEE1FFF1FA217B307E407CB
:101C2000F50720F0A21BB30BE40BF50B661F771F23
:101C3000881F991F1A9469F7609570958095909503
:101C40009B01AC01BD01CF010895EE0FFF1F059070
:101C5000F491E02D09940E94520EA59F900DB49F1F
:101C6000900DA49F800D911D11240895B7FF0C9431
:101C70002B0E0E942B0E821B930B0895AA1BBB1BDD
:101C800051E107C0AA1FBB1FA617B70710F0A61B7C
:101C9000B70B881F991F5A95A9F780959095BC019D
:101CA000CD010895A29FB001B39FC001A39F700D05
:101CB000811D1124911DB29F700D811D1124911D54
:101CC00008955058BB27AA270E94790E0C94EC0F58
:101CD0000E94DE0F38F00E94E50F20F039F49F3F9C
:101CE00019F426F40C94DB0F0EF4E095E7FB0C944A
:101CF000D50FE92F0E94FD0F58F3BA17620773073B
:101D00008407950720F079F4A6F50C941F100EF4C3
:101D1000E0950B2EBA2FA02D0B01B90190010C01FB
:101D2000CA01A0011124FF27591B99F0593F50F413
:101D3000503E68F11A16F040A22F232F342F44276B
:101D4000585FF3CF469537952795A795F040539563
:101D5000C9F77EF41F16BA0B620B730B840BBAF033
:101D60009150A1F0FF0FBB1F661F771F881FC2F79E
:101D70000EC0BA0F621F731F841F48F487957795B2
:101D80006795B795F7959E3F08F0B0CF9395880F6C
:101D900008F09927EE0F9795879508950E94B10F47
:101DA00008F481E008950E94E70E0C94EC0F0E9465
:101DB000E50F58F00E94DE0F40F029F45F3F29F054
:101DC0000C94D50F51110C9420100C94DB0F0E9431
:101DD000FD0F68F39923B1F3552391F3951B550B30
:101DE000BB27AA2762177307840738F09F5F5F4FEE
:101DF000220F331F441FAA1FA9F335D00E2E3AF02D
:101E0000E0E832D091505040E695001CCAF72BD044
:101E1000FE2F29D0660F771F881FBB1F2617370795
:101E20004807AB07B0E809F0BB0B802DBF01FF27C7
:101E300093585F4F3AF09E3F510578F00C94D50FC0
:101E40000C9420105F3FE4F3983ED4F38695779589
:101E50006795B795F7959F5FC9F7880F911D969580
:101E6000879597F90895E1E0660F771F881FBB1FDC
:101E7000621773078407BA0720F0621B730B840B89
:101E8000BA0BEE1F88F7E09508950E94051088F0C0
:101E90009F5798F0B92F9927B751B0F0E1F0660F2E
:101EA000771F881F991F1AF0BA95C9F714C0B1306F
:101EB00091F00E941F10B1E008950C941F10672F3D
:101EC000782F8827B85F39F0B93FCCF3869577959E
:101ED0006795B395D9F73EF4909580957095619587
:101EE0007F4F8F4F9F4F0895E89409C097FB3EF4B2
:101EF00090958095709561957F4F8F4F9F4F992357
:101F0000A9F0F92F96E9BB279395F69587957795D4
:101F10006795B795F111F8CFFAF4BB0F11F460FF94
:101F20001BC06F5F7F4F8F4F9F4F16C0882311F0EC
:101F300096E911C0772321F09EE8872F762F05C000
:101F4000662371F096E8862F70E060E02AF09A959B
:101F5000660F771F881FDAF7880F9695879597F990
:101F60000895990F0008550FAA0BE0E8FEEF16162A
:101F70001706E807F907C0F012161306E407F5077D
:101F800098F0621B730B840B950B39F40A2661F0F1
:101F9000232B242B252B21F408950A2609F4A14094
:101FA000A6958FEF811D811D089597F99F6780E8A1
:101FB00070E060E008959FEF80EC089500240A949B
:101FC0001616170618060906089500240A94121614
:101FD0001306140605060895092E0394000C11F447
:101FE000882352F0BB0F40F4BF2B11F460FF04C0F4
:101FF0006F5F7F4F8F4F9F4F089557FD9058440F4D
:10200000551F59F05F3F71F04795880F97FB991F57
:1020100061F09F3F79F08795089512161306140614
:10202000551FF2CF4695F1DF08C0161617061806A1
:10203000991FF1CF86957105610508940895E8947C
:10204000BB2766277727CB0197F908950E94B10F28
:1020500008F48FEF08950E943E100C94EC0F0E943C
:10206000DE0F38F00E94E50F20F0952311F00C945C
:10207000D50F0C94DB0F11240C9420100E94FD0F3F
:1020800070F3959FC1F3950F50E0551F629FF001CB
:10209000729FBB27F00DB11D639FAA27F00DB11DE4
:1020A000AA1F649F6627B00DA11D661F829F22276D
:1020B000B00DA11D621F739FB00DA11D621F839FF4
:1020C000A00D611D221F749F3327A00D611D231FCA
:1020D000849F600D211D822F762F6A2F11249F5718
:1020E00050409AF0F1F088234AF0EE0FFF1FBB1F1B
:1020F000661F771F881F91505040A9F79E3F5105DA
:1021000080F00C94D50F0C9420105F3FE4F3983EC0
:10211000D4F3869577956795B795F795E7959F5F83
:10212000C1F7FE2B880F911D9695879597F9089515
:102130000E94B10F880B990B0895FB01DC018D9172
:10214000019080190110D9F3990B0895FB01DC016E
:1021500001900D920020E1F70895FB01DC01415050
:10216000504048F001900D920020C9F701C01D9227
:1021700041505040E0F7089510E0C8E6D0E004C0B8
:10218000FE010E94250E2196C936D107C9F7F894A1
:02219000FFCF7F
:102192000100000000001E027E01AB016B02DC01A7
:1021A200BA01CE0100000000D2027E016703D10213
:1021B2002E034603B9024750524D4300474E524D3B
:1021C2004300475047474100474E47474100576148
:1021D2006974696E6720666F72204750532E2E2EE7
:1021E200000D0A00202020003A00534554212121ED
:0E21F200006E616E00696E66006F766600001A
:00000001FF
