:100000000C945D000C947A000C947A000C947A00A5
:100010000C947A000C947A000C947A000C947A0078
:100020000C947A000C947A000C947A000C947A0068
:100030000C947A000C947A000C947A000C947A0058
:100040000C9432010C947A000C947A000C947A008F
:100050000C947A000C947A000C947A000C947A0038
:100060000C947A000C947A00000000002400270011
:100070002A0000000000250028002B0004040404CE
:100080000404040402020202020203030303030342
:10009000010204081020408001020408102001021F
:1000A00004081020000000080002010000030407FB
:1000B00000000000000000006C0211241FBECFEF02
:1000C000D8E0DEBFCDBF21E0A0E0B1E001C01D92CD
:1000D000A831B207E1F710E0CDE5D0E004C02197E8
:1000E000FE010E949302CC35D107C9F70E947C0122
:1000F0000C9499020C940000E6EAF0E02491E2E905
:10010000F0E09491EEE7F0E0E491EE23C9F02223D1
:1001100039F0233001F1A8F4213019F1223029F10E
:10012000F0E0EE0FFF1FEE58FF4FA591B4912FB7EF
:10013000F894EC91811126C090959E239C932FBF3B
:1001400008952730A9F02830C9F0243049F72091CC
:1001500080002F7D03C0209180002F7720938000A6
:10016000DFCF24B52F7724BDDBCF24B52F7DFBCF88
:100170002091B0002F772093B000D2CF2091B00013
:100180002F7DF9CF9E2BDACF8F929F92AF92BF92A5
:10019000CF92DF92EF92FF92CF93DF932FB7F89435
:1001A0008090140190901501A0901601B090170155
:1001B0002FBF6C01990FEE08FF08C3E5D2E02FB7FF
:1001C000F8948091140190911501A0911601B091BD
:1001D00017012FBF88199909AA09BB098C159D051C
:1001E000AE05BF0568F481E00E947C00CE01019756
:1001F000F1F780E00E947C00CE010197F1F7DFCF9C
:1002000080E0DF91CF91FF90EF90DF90CF90BF9093
:10021000AF909F908F900C947C003FB7F8948091A2
:10022000100190911101A0911201B091130126B516
:10023000A89B05C02F3F19F00196A11DB11D3FBF1E
:10024000BA2FA92F982F8827BC01CD01620F711DED
:10025000811D911D42E0660F771F881F991F4A95E7
:10026000D1F708951F920F920FB60F9211242F937A
:100270003F938F939F93AF93BF938091140190917D
:100280001501A0911601B091170130910F0123E0E3
:10029000230F2D3758F50196A11DB11D20930F0195
:1002A0008093140190931501A0931601B093170148
:1002B0008091100190911101A0911201B091130150
:1002C0000196A11DB11D8093100190931101A0937F
:1002D0001201B0931301BF91AF919F918F913F9104
:1002E0002F910F900FBE0F901F90189526E8230FA7
:1002F0000296A11DB11DD2CF789484B5826084BDD1
:1003000084B5816084BD85B5826085BD85B5816019
:1003100085BD80916E00816080936E001092810097
:100320008091810082608093810080918100816052
:100330008093810080918000816080938000809113
:10034000B10084608093B1008091B000816080939F
:10035000B00080917A00846080937A0080917A0066
:10036000826080937A0080917A00816080937A0025
:1003700080917A00806880937A001092C100E2E94F
:10038000F0E02491EEE7F0E08491882399F090E08A
:10039000880F991FFC01E859FF4FA591B491FC010A
:1003A000EE58FF4F859194918FB7F894EC91E22B22
:1003B000EC938FBF80E00E947C008DE790E00E946C
:1003C000C4000E940D014B015C0182E3C82ED12CB8
:1003D000E12CF12C0E940D01681979098A099B0909
:1003E000683E734081059105A8F321E0C21AD10847
:1003F000E108F10888EE880E83E0981EA11CB11C6C
:10040000C114D104E104F10429F78DE790E00E94C2
:10041000C400C0E0D0E080910D01882309F448C0F9
:1004200080910E01882309F449C08FB7F894409158
:1004300014015091150160911601709117018FBF41
:100440008091000190910101A0910201B0910301FE
:1004500000910401109105012091060130910701DE
:100460006A017B01C81AD90AEA0AFB0AC016D1063A
:10047000E206F306E8F0E0910C01EE2351F1401B97
:10048000510B620B730B800F911FA21FB31F8017BC
:100490009107A207B307B8F480930001909301017C
:1004A000A0930201B09303018EE190E00E94C4008A
:1004B000209709F4B0CF0E940000ADCF0E940D013B
:1004C000AB01BC01BDCF84179507A607B707D8F2CB
:1004D000E3CF10920D01E8CFE0E0F1E0108211824D
:1004E00012821382108611861286138681E0848719
:1004F000868740E65AEE60E070E044835583668369
:10050000778385879FB7F894409114015091150126
:1005100060911601709117019FBF408351836283E0
:10052000738386870895EE0FFF1F0590F491E02DE9
:060530000994F894FFCFCE
:00000001FF
