:100000000C944D050C9475050C9475050C945B1BB4
:100010000C945B1B0C945B1B0C9475050C94750580
:100020000C9475050C9475050C9475050C94750568
:100030000C9475050C9475050C9475050C94750558
:100040000C94B91A0C9475050C94291B0C94031B81
:100050000C9475050C9475050C9475050C94750538
:100060000C949A190C94750500000000003E5B4F3B
:100070005B3E3E6B4F6B3E1C3E7C3E1C183C7E3C08
:10008000181C577D571C1C5E7F5E1C00183C180016
:10009000FFE7C3E7FF0018241800FFE7DBE7FF30A6
:1000A000483A060E2629792926407F050507407F14
:1000B00005253F5A3CE73C5A7F3E1C1C08081C1C87
:1000C0003E7F14227F22145F5F005F5F06097F017D
:1000D0007F006689956A606060606094A2FFA29468
:1000E00008047E040810207E201008082A1C080836
:1000F0001C2A08081E101010100C1E0C1E0C303884
:100100003E3830060E3E0E06000000000000005F84
:1001100000000007000700147F147F14242A7F2AA0
:100120001223130864623649562050000807030062
:10013000001C2241000041221C002A1C7F1C2A08AE
:10014000083E080800807030000808080808000011
:1001500060600020100804023E5149453E00427F85
:10016000400072494949462141494D331814127FD4
:100170001027454545393C4A494931412111090774
:100180003649494936464949291E000014000000F5
:1001900040340000000814224114141414140041C7
:1001A00022140802015909063E415D594E7C121184
:1001B000127C7F494949363E414141227F414141BC
:1001C0003E7F494949417F090909013E4141517337
:1001D0007F0808087F00417F41002040413F017FA8
:1001E000081422417F404040407F021C027F7F0470
:1001F00008107F3E4141413E7F090909063E4151B9
:10020000215E7F09192946264949493203017F01A8
:10021000033F4040403F1F2040201F3F4038403FA9
:10022000631408146303047804036159494D4300BF
:100230007F4141410204081020004141417F0402F6
:10024000010204404040404000030708002054548D
:1002500078407F284444383844444428384444286B
:100260007F385454541800087E090218A4A49C78BE
:100270007F0804047800447D40002040403D007F1A
:100280001028440000417F40007C047804787C08FA
:100290000404783844444438FC18242418182424CE
:1002A00018FC7C08040408485454542404043F44B3
:1002B000243C4040207C1C2040201C3C4030403CE2
:1002C00044281028444C9090907C4464544C440042
:1002D00008364100000077000000413608000201A6
:1002E0000204023C2623263C1EA1A161123A404092
:1002F000207A38545455592155557941225454780F
:1003000042215554784020545579400C1E527212A7
:100310003955555559395454545939555454580030
:1003200000457C410002457D420001457C407D1234
:1003300011127DF0282528F07C5455450020545496
:100340007C547C0A097F4932494949323A44444441
:100350003A324A4848303A4141217A3A424020787C
:10036000009DA0A07D3D4242423D3D4040403D3C7D
:1003700024FF2424487E4943662B2FFC2F2BFF09A2
:1003800029F620C0887E0903205454794100004496
:100390007D413048484A32384040227A007A0A0A81
:1003A000727D0D19317D2629292F282629292926F4
:1003B00030484D4020380808080808080808382F39
:1003C00010C8ACBA2F102834FA00007B00000814C3
:1003D0002A142222142A14085500550055AA55AA99
:1003E00055AAFF55FF55FF000000FF00101010FF39
:1003F00000141414FF001010FF00FF1010F010F094
:10040000141414FC001414F700FF0000FF00FF1484
:1004100014F404FC141417101F10101F101F1414D0
:10042000141F00101010F0000000001F101010101A
:100430001F10101010F010000000FF10101010100E
:1004400010101010FF10000000FF140000FF00FF4C
:1004500000001F10170000FC04F4141417101714E8
:1004600014F404F40000FF00F7141414141414140A
:10047000F700F7141414171410101F101F1414147D
:10048000F4141010F010F000001F101F0000001FE7
:1004900014000000FC140000F010F01010FF10FF1A
:1004A000141414FF141010101F00000000F010FFAF
:1004B000FFFFFFFFF0F0F0F0F0FFFFFF0000000093
:1004C00000FFFF0F0F0F0F0F3844443844FC4A4A17
:1004D0004A347E02020606027E027E0263554941CC
:1004E000633844443C04407E201E2006027E020203
:1004F00099A5E7A5991C2A492A1C4C7201724C3017
:100500004A4D4D303048784830BC625A463D3E49ED
:100510004949007E0101017E2A2A2A2A2A44445F91
:10052000444440514A444040444A51400000FF0185
:1005300003E080FF000008086B6B08361236243693
:10054000060F090F060000181800000010100030F8
:1005500040FF0101001F01011E00191D1712003C80
:100560003C3C3C0000000000000103070F1F3F7FE0
:100570000080C0E0F0F8FCFEDB40A4A62EAF200017
:10058000A1C8D300408DAED580A800006000000057
:100590000000000000000000000000E0000000007B
:1005A00000000000000000000001E000000000006A
:1005B000000000000000000001F00000000000004A
:1005C0000000000000000003F00000000000000038
:1005D00000000000000007F0000000000000000024
:1005E000000000000007F80000000000000000000C
:1005F000000000000FF800000003C0007E000001B2
:10060000E0007F0FF800000003C000FE000001E0E2
:1006100000FFEFF800000003C000FE000001E00052
:10062000FFFFF800000003C000F00000000F007F93
:10063000FE7FC0000003C000F00000000F003FFE7E
:100640007FF83FF1FBCFFCFEF3BC3DEFE01FFE7FE8
:10065000FF7FFBFFDFFEFEFFBC3DEFE01FC6FFFF9D
:100660007FFBFFDFFEFEFFBC3DEFE00FE3C7FE7840
:100670007BC3DE1EF0FFBC3DEF0007FF87FC787BED
:10068000C3DE1EF0F83C3DEF0001FFFFF0007BC32E
:10069000C01EF0F03C3DEF0001F37FE03FFBC3CF15
:1006A000FEF0F03C3DEF0003E33F807FFBC3DFFE45
:1006B000F0F03C3DEF0007E73C00787BC3DE1EF026
:1006C000F03C3DEF0007FFBE00787BC3DE1EF0F07C
:1006D0003C3DEF0007FFFE00787BC3DE1EF0F03CE0
:1006E0003DEF000FFFFE007FFBFFDFFEF0F03FFD60
:1006F000EFE00FFFFF007FFBFFDFFEF0F03FFDEFBD
:10070000E00FF9FF003E79F9CF9EF0F01F3DE7E0E2
:100710001FF1FF0000000000000000000000001FAB
:1007200080FF007FFFFFFFFFFFFFFFFFFFE01C00D8
:100730007F007FFFFFFFFEB46D888D18E000001F73
:10074000007FFFFFFFFE95AD7DB577E000000F0055
:100750007FFFFFFFFEA5AD9D8D19E0000006007F25
:10076000FFFFFFFEB5ADEDB57EE00000000000012B
:100770008000000000000000000003800000000076
:10078000000000000007C0000000000000000000A2
:1007900007C00000000000000000000FC0000000C3
:1007A0000000000000001FE000000000000000004A
:1007B000001FE00000000000000000003FE000001B
:1007C000000000000000003FF000000000000000FA
:1007D00000007FF0000000000000001FF87FF00024
:1007E0000000000000003FFE7FF00000000000005D
:1007F000003FFF7FF0000000000000001FFFFBE053
:10080000000000000000000FFFF9FFC00000000022
:1008100000000FFFF9FFF800000000000007FFF1E3
:10082000FFFF00000000000003FC73FFFF800000DA
:1008300000000001FE3FFFFF80000000000000FFFD
:100840001E0FFF000000000000007FFE1FFC0000E4
:1008500000000000003FFFFFF80000000000000063
:100860000FDFFFE0000000000000001F19FFC000C4
:100870000000000000003F3CFF00000000000000FE
:10088000007E7CF800000000000000007FFE7C007D
:1008900000000000000000FFFFFC0000000000005E
:1008A0000000FFFFFE0000000000000000FFFFFE50
:1008B0000000000000000001FFEFFE00000000004B
:1008C000000001FFCFFE0000000000000003FF0752
:1008D000FE0000000000000003FC07FE0000000016
:1008E00000000003F003FE00000000000000018093
:1008F00000FE000000000000000000007E0000007C
:10090000000000000000003E0000000000000000A9
:1009100000000C000000000000078000FC00000345
:10092000C0000000078001FC000003C000000007B9
:100930008001FC000003C0000000078001E000000F
:10094000001E000000078001E00000001E007FE3A1
:10095000F79FF9FDE7787BDFC0FFF7FFBFFDFDFFE5
:10096000787BDFC0FFF7FFBFFDFDFF787BDFC0F0C6
:10097000F787BC3DE1FF787BDE00F0F787BC3DE107
:10098000F0787BDE0000F787803DE1E0787BDE00D9
:100990007FF7879FFDE1E0787BDE00FFF787BFFDF3
:1009A000E1E0787BDE00F0F787BC3DE1E0787BDEBC
:1009B00000F0F787BC3DE1E0787BDE00F0F787BC14
:1009C0003DE1E0787BDE00FFF7FFBFFDE1E07FFB6C
:1009D000DFC0FFF7FFBFFDE1E07FFBDFC07CF3F38B
:1009E0009F3DE1E03E7BCFC0000000000000000022
:1009F000000000FFFFFFFFFFFFFFFFFFFFC0FFFF43
:100A0000FFFFFD68DB111A31C0FFFFFFFFFD2B5A0E
:100A1000FB6AEFC0FFFFFFFFFD4B5B3B1A33C0FFDC
:100A2000FFFFFFFD6B5BDB6AFDC0475053204C4F5F
:100A300053542121210000000000240027002A0037
:100A4000000000080002010000030407000000008D
:100A5000000000002200FF2100000000002300260B
:100A600000290000000000250028002B00040404D9
:100A70000404040404020202020202030303030347
:100A80000301020408102040800102040810200124
:100A9000020408102000D31B6F2411241FBECFEFC7
:100AA000D8E0DEBFCDBF11E0A0E0B1E0E8EFF1E5B6
:100AB00002C005900D92A03CB107D9F724E0A0EC4C
:100AC000B1E001C01D92AC38B207E1F715E0CCE40B
:100AD000D5E004C02197FE010E942725CB34D10721
:100AE000C9F70E94D31D0C94EF280C9400000895C0
:100AF0000895089520917F02260F3327331F213256
:100B00003105ECF42091A302FC0190E080E0243058
:100B100069F082E00895A0917F022191AC01415AD1
:100B20005D4FA40FB52FB11D2C930196861798F336
:100B300080917F02680F60937F0280E0089581E0DA
:100B40000895E0916F0380916E03E81730F4F0E0B0
:100B5000E75CFD4F808190E008958FEF9FEF08954F
:100B600090916F0380916E032FEF3FEF981748F439
:100B7000E92FF0E0E75CFD4F208130E09F5F90932C
:100B80006F03C901089580916E0390916F03891BD3
:100B9000990B0895CF92DF92EF92FF920F931F93DC
:100BA000CF93DF937C01CB018A012091CA022223DB
:100BB00089F0EB016B01C40ED51ECC15DD0569F083
:100BC0006991D701ED91FC910190F081E02DC70171
:100BD0000995F3CF642F0E947A05C801DF91CF9168
:100BE0001F910F91FF90EF90DF90CF900895CF93DA
:100BF000DF931F92CDB7DEB769832091CA0222230B
:100C0000F9F020916C03203258F021E030E0FC0133
:100C10003383228390E080E00F90DF91CF9108959D
:100C200080916D03E82FF0E0E75EFD4F998190839E
:100C30008F5F80936D0380936C0381E090E0ECCF35
:100C400061E0CE0101960E947A05F7CF90E0FC01A9
:100C5000E05CF54F2491FC01EF57F54F3491FC0116
:100C6000E359F54FE491EE23C9F0222339F0233004
:100C700001F1A8F4213019F1223029F1F0E0EE0F52
:100C8000FF1FED59F54FA591B4918FB7F894EC91F2
:100C9000611126C030953E233C938FBF08952730C5
:100CA000A9F02830C9F0243049F7809180008F7D69
:100CB00003C0809180008F7780938000DFCF84B560
:100CC0008F7784BDDBCF84B58F7DFBCF8091B00063
:100CD0008F778093B000D2CF8091B0008F7DF9CF15
:100CE0003E2BDACF1092A30281E08093A5021092EE
:100CF000A40261E082E10E94260661E083E10E9495
:100D00002606E9EBF0E080818E7F808380818D7FF5
:100D1000808388E48093B80085E48093BC000895C4
:100D2000CF93DF9391E090935E028823B9F0C09156
:100D3000B800D091BA008091BC008A7B8093BC003F
:100D400060E082E10E94260660E083E10E942606C0
:100D50000E947206D093BA00C093B800DF91CF9181
:100D60000895CF93DF9390E0FC01EF57F54F249166
:100D70008359954FFC0184918823D1F090E0880F2E
:100D8000991FFC01EA5CF54FA591B491FC01ED5966
:100D9000F54FC591D49161110EC09FB7F8948C9115
:100DA000E22FE0958E238C932881E223E8839FBF76
:100DB000DF91CF9108958FB7F894EC91E22BEC93EB
:100DC0008FBFF6CF3FB7F89480911502909116022D
:100DD000A0911702B091180226B5A89B05C02F3F1D
:100DE00019F00196A11DB11D3FBFBA2FA92F982F51
:100DF0008827BC01CD01620F711D811D911D42E04C
:100E0000660F771F881F991F4A95D1F70895CF92D3
:100E1000DF92EF92FF920F931F93CF93DF93D091C6
:100E20006C0381E0D13208F09CC0C091C9020E94DD
:100E3000E2066B017C018091A30281116CC082E00B
:100E40008093A30281E08093A5028FEF8093A2029A
:100E50001092C702D093C602A9E1B2E0E6EAF2E03E
:100E600080E0D8138DC01092C8028091C802CC0FC8
:100E7000C82BC093C8028091A402813009F084C0BD
:100E80001092A4020E94E2066B017C018091C802CC
:100E90008093BB0080915A0290915B02A0915C020A
:100EA000B0915D02892B8A2B8B2BA1F00E94E20668
:100EB00000915A0210915B0220915C0230915D0218
:100EC0006C197D098E099F0906171707280739072E
:100ED00008F442C08091BC0083FDD8CF85EC80939C
:100EE000BC000E94E2066B017C018091A30282306B
:100EF00009F44CC08091A2028F3F09F469C080912F
:100F0000A202803209F466C08091A202803309F403
:100F100063C084E026C080915A0290915B02A09148
:100F20005C02B0915D02892B8A2B8B2B09F483CF55
:100F30000E94E20600915A0210915B0220915C022D
:100F400030915D026C197D098E099F0906171707FC
:100F50002807390708F06FCF809159020E94900648
:100F600085E010926D0310926C031092CA02DF911B
:100F7000CF911F910F91FF90EF90DF90CF90089548
:100F80009D9191938F5F6DCF85EEA9CF80915A028D
:100F900090915B02A0915C02B0915D02892B8A2B3B
:100FA0008B2B09F4A2CF0E94E20600915A02109105
:100FB0005B0220915C0230915D026C197D098E0903
:100FC0009F09061717072807390708F08ECFC4CFE7
:100FD00080E0C7CF82E0C5CF83E0C3CF8F929F92DE
:100FE000AF92BF92CF92DF92EF92FF924B015C01E2
:100FF0000E94E2066B017C010E94E2066C197D09E9
:101000008E099F09683E734081059105A8F321E090
:10101000821A9108A108B10888EEC80E83E0D81E94
:10102000E11CF11C81149104A104B10429F7FF9083
:10103000EF90DF90CF90BF90AF909F908F900895EA
:101040002FB7F894609111027091120280911302EF
:10105000909114022FBF0895AF92BF92CF92DF926A
:10106000EF92FF920F931F93CF93DF936C017B015D
:101070008B01040F151FEB015E01AE18BF08C017EE
:10108000D10759F06991D601ED91FC910190F08161
:10109000E02DC6010995892B79F7C501DF91CF9124
:1010A0001F910F91FF90EF90DF90CF90BF90AF9086
:1010B0000895FC01538D448D252F30E0842F90E05E
:1010C000821B930B541710F0CF9608950197089543
:1010D000FC01918D828D981761F0A28DAE0FBF2F0C
:1010E000B11D5D968C91928D9F5F9F73928F90E062
:1010F00008958FEF9FEF0895FC01918D828D9817D1
:1011000031F0828DE80FF11D858D90E008958FEF0D
:101110009FEF0895FC01918D228D892F90E0805CD6
:101120009F4F821B91098F73992708958BEC92E052
:101130000E948A0821E0892B09F420E0822F08957B
:1011400080E090E0892B29F00E94960881110C9490
:1011500000000895FC01A48DA80FB92FB11DA35A5A
:10116000BF4F2C91848D90E001968F739927848FC7
:10117000A689B7892C93A089B1898C9183708064EA
:101180008C93938D848D981306C00288F389E02D8B
:1011900080818F7D80830895EF92FF920F931F933C
:1011A000CF93DF93EC0181E0888F9B8D8C8D98131A
:1011B0001AC0E889F989808185FF15C09FB7F89426
:1011C000EE89FF896083E889F98980818370806472
:1011D00080839FBF81E090E0DF91CF911F910F91BD
:1011E000FF90EF900895F62E0B8D10E00F5F1F4FCC
:1011F0000F731127E02E8C8D8E110CC00FB607FCDB
:10120000FACFE889F989808185FFF5CFCE010E9468
:10121000AA08F1CFEB8DEC0FFD2FF11DE35AFF4F24
:10122000F0829FB7F8940B8FEA89FB8980818062F6
:10123000CFCFCF93DF93EC01888D8823B9F0AA89B3
:10124000BB89E889F9898C9185FD03C0808186FD81
:101250000DC00FB607FCF7CF8C9185FFF2CF8081D0
:1012600085FFEDCFCE010E94AA08E9CFDF91CF9193
:101270000895CF93DF93EC018A859B85AC85BD856E
:101280008E839F83A887B9870E9420086A837B8307
:101290008C839D8381E089838883DF91CF9108953A
:1012A000CF93DF93EC018E819F81A885B9858A83D6
:1012B0009B83AC83BD830E9420086A877B878C87D1
:1012C0009D8781E089838883DF91CF910895209164
:1012D0000302309104022817390771F4909101023A
:1012E00080910202981741F0E0910102F0E0E05491
:1012F000FE4F808190E008958FEF9FEF0895EF9269
:10130000FF920F931F93CF93DF93DC015C96ED90D8
:10131000FC905D97E114F10479F481E090E013967C
:101320009C938E93129790E080E0DF91CF911F9174
:101330000F91FF90EF9008955196ED91FC91529787
:1013400050968C915097982F90950FB75E962C9150
:101350005E97122F127021FD6095F8942081112361
:1013600019F1282B2083E7012197F1F728E0462F78
:1013700050E0308160FF1AC0382B3083E70121979D
:10138000F1F7BA0175956795215089F7112381F01E
:101390008081892380830FBF5C968D919C910197FA
:1013A000F1F781E090E0C1CF2923DCCF3923E5CFED
:1013B0009081892BEFCF20910302309104022817EE
:1013C000390771F4809102022091010290E0805C63
:1013D0009F4F821B910960E470E00E94F124089500
:1013E00090E080E0089520910302309104022817D4
:1013F0003907B9F49091010280910202981789F09F
:10140000E0910102F0E0E054FE4F80812091010262
:1014100030E02F5F3F4F2F7333272093010290E07E
:1014200008958FEF9FEF0895EF92FF920F931F9310
:10143000CF93DF93EC01EC80FD806E157F050CF0FF
:1014400070C057FF04C0240F351F50E040E08E816C
:101450009F81FA01E20FF31F8E179F071CF49C0176
:10146000241B350B121613060CF05BC0922F842F31
:101470008695869586958E9DD0018F9DB00D112401
:101480006A0F7B1FAF8DB8A1A60FB71F477049F138
:1014900088E0841B482F682F70E0FB01E059FA4F69
:1014A000E491281708F063C0621B71092FEF30E048
:1014B00002C0359527956A95E2F7E22301301105C0
:1014C00039F0B0F10230110561F58C91E82702C0C6
:1014D0008C91E82BEC93941720F12C813D81A20F85
:1014E000B31FE92FE41BE83078F00230110521F535
:1014F0008E2F9C9190959C932C813D81A20FB31FC0
:1015000088508830B0F7E770EE2359F0F0E0E859E2
:10151000FA4FE49101301105F9F010F10230110594
:1015200019F1DF91CF911F910F91FF90EF900895E6
:10153000E0958C91E823CECF81E00115110509F4E7
:1015400080E081959E2F8C932C813D81A20FB31F4B
:1015500098509830C0F7D7CF8C91E82BEC93E1CF1F
:10156000E0958C91E823FACF8C91E827F7CF0130F2
:10157000110509F4ADCFE0F20230110509F4A5CF51
:10158000AE0DBF1DAECF0F931F93CF93DF9377FFA9
:1015900004C0260F371F70E060E0DC011496CD9187
:1015A000DC91FB01E20FF31FCE17DF071CF49E0155
:1015B000261B370B121613064CF5FA0157FD37960A
:1015C000A3E0F595E795AA95E1F7EC9FD001ED9F93
:1015D000B00DFC9FB00D11246A0F7B1FDC015F96DC
:1015E000ED91FC91E60FF71F4770552781E090E0E1
:1015F00001C0880F4A95EAF7482F0130110559F0CC
:10160000A8F02E0F3F1F02301105E1F0DF91CF91BE
:101610001F910F9108952E0F3F1FE217F307B1F3AB
:101620008191DF011197842B8C93F7CF80952E0F3A
:101630003F1FE217F30751F39191DF0111979823B0
:101640009C93F7CFE217F30709F38191DF0111971C
:1016500084278C93F7CF0F931F93FA01DC015696E2
:101660004C9156974230E9F04330A1F1413061F599
:1016700014964D915C91DA01AE1BBF0BFD01E21B8C
:10168000F30B77FD0BC0DC0116964D915C9164174E
:10169000750724F4AB01BF010E94C30A1F910F918B
:1016A000089514964D915C91DA01A61BB70BBD010C
:1016B00061507109DC0116964D915C91DA01AE1B07
:1016C000BF0BFD01E21BF30B77FDE8CFAF010E94DA
:1016D000140AE4CF16964D915C91DA01A61BB70B64
:1016E000BD0161507109CDCF0F931F93FA01DC0149
:1016F00056964C9156974230A9F0433091F14130C3
:1017000019F514964D915C91DA01AE1BBF0BFD01EA
:101710003197F7FD04C0AB01BF010E94140A1F916D
:101720000F91089514964D915C91DA01A61BB70BA9
:10173000BD01DC0116964D915C91DA01AE1BBF0B29
:10174000FD013197621B730BF7FDE9CFDC011696A3
:101750004D915C91E417F50714F7AF010E94C30A9D
:10176000DECF16964D915C91DA01A61BB70BBD0139
:10177000621B730BCECFFC0177FD64C08085918521
:10178000681779070CF05EC057FD5CC082859385B1
:10179000481759070CF056C086898230B1F0833063
:1017A00029F1813041F484819581841B950BAB0133
:1017B000BC01615071092130310509F108F443C0C1
:1017C0002230310509F463C0089584819581DC01DC
:1017D000A61BB70BBD016150710986819781DC01A1
:1017E000A41BB50BAD0141505109E5CF868197810E
:1017F000861B970BBA01AC0141505109DCCFCA01DD
:1018000057FD0796A3E095958795AA95E1F7A481E2
:10181000B5818A9F90018B9F300D9A9F300D1124C6
:10182000620F731F078CF0A1E02DE60FF71F4770C2
:10183000552721E030E001C0220F4A95EAF7808168
:10184000822B80830895CA0157FD079633E0959552
:1018500087953A95E1F7A481B5818A9F90018B9F86
:10186000300D9A9F300D1124620F731F078CF0A169
:10187000E02DE60FF71F4770552781E090E001C08B
:10188000880F4A95EAF7809590818923DACFCA01BB
:1018900057FD079623E0959587952A95E1F7A48152
:1018A000B5818A9F90018B9F300D9A9F300D112436
:1018B000620F731F078CF0A1E02DE60FF71F477032
:1018C000552721E030E001C0220F4A95EAF78081D8
:1018D0008227B7CF08958EBD00000DB407FEFDCF5F
:1018E0008EB50895EF92FF920F931F93CF93DF93DE
:1018F0007C01C62F8091650490916604009709F4DD
:1019000059C02091690431E03093CA022093C90282
:1019100010926D0310926C03DC01ED91FC9101902B
:10192000F081E02D60E009958701EE24E394F12C2D
:10193000D1E0C1508091650490916604CF3F91F150
:10194000B0E2EB16F104D8F00E940707809165041D
:101950009091660420916904D093CA022093C90231
:1019600010926D0310926C03DC01ED91FC910190DB
:10197000F081E02D60E00995EE24E394F12C809154
:10198000650490916604F8016491DC01ED91FC918D
:101990000190F081E02D0995BFEFEB1AFB0A0F5F74
:1019A0001F4FC7CFDF91CF911F910F91FF90EF9005
:1019B0000C940707E0917504F09176049081809172
:1019C0007B048095892380838701C15008F438C047
:1019D000F80184912091630430916404232B29F051
:1019E0000E946B0C0F5F1F4FF0CF28E030E040E803
:1019F000E0917104F091720490917904582F54236E
:101A0000D9F05081952B9083E0917304F091740488
:101A1000908150917A04952B9083E0917304F0911A
:101A20007404508190917A04909595239083469503
:101A300021503109E9F6D6CF508190959523E3CF17
:101A4000DF91CF911F910F91FF90EF9008951F9319
:101A5000CF93DF93EC018D8D9E8D009721F1162F92
:101A600029A131E03093CA022093C90210926D037C
:101A700010926C03DC01ED91FC910190F081E02D5E
:101A800060E009958D8D9E8DDC01ED91FC910190BA
:101A9000F081E02D612F09958D8D9E8DDF91CF9185
:101AA0001F910C940707ADA5BEA59C918BA98095AD
:101AB00089238C938B8D9C8D892B31F0862FDF9120
:101AC000CF911F910C946B0C28E030E080E8A9A521
:101AD000BAA599A9462F4823C1F04C91942B9C9309
:101AE000ABA5BCA59C914AA9942B9C93ABA5BCA586
:101AF0004C919AA9909594239C93869521503109F5
:101B000031F7DF91CF911F9108954C9190959423D7
:101B1000E6CF8CBD9DBD0895DF92EF92FF920F93AB
:101B20001F93CF93DF938091650490916604892B76
:101B300009F498C020917D0430917E0440917F0487
:101B40005091800460E074E284EF90E00E940525EB
:101B500020513109410951095695479537952795E7
:101B60002093B80065E084E59AE00E94720C6091D1
:101B70004C04615088E494E00E94270D20914E04AB
:101B800030914F04C901079697FD079633E095956C
:101B900087953A95E1F720914C0430914D04829F4E
:101BA0008001839F100D929F100D1124C091670436
:101BB000D091680480916504909166040C0F1D1FFC
:101BC000009709F48FC02091690431E03093CA0274
:101BD0002093C90210926D0310926C03DC01ED9109
:101BE000FC910190F081E02D60E40995EE24E394EE
:101BF000F12CDD24D39480916504909166040C1738
:101C00001D0709F446C0B0E2EB16F104D8F00E94BB
:101C10000707809165049091660420916904D09231
:101C2000CA022093C90210926D0310926C03DC016A
:101C3000ED91FC910190F081E02D60E40995EE2496
:101C4000E394F12C80916504909166046991DC0124
:101C5000ED91FC910190F081E02D0995BFEFEB1A19
:101C6000FB0AC9CF8091630490916404892B31F001
:101C700080918604909187040E94890DE0917704F9
:101C8000F0917804908180917C04809589238083F1
:101C900069CF0E9407078091650490916604892BA3
:101CA00009F461C020918104309182044091830441
:101CB0005091840460E074E284EF90E00E94052576
:101CC0002051310941095109569547953795279576
:101CD0002093B800DF91CF911F910F91FF90EF906B
:101CE000DF900895E0917504F091760480819091E1
:101CF0007B04892B80830C171D0769F28991209141
:101D0000630430916404232B19F00E946B0CF3CF11
:101D100028E030E040E8E0917104F0917204909185
:101D20007904582F5423D9F05081952B9083E0915A
:101D30007304F0917404908150917A04952B9083F0
:101D4000E0917304F0917404508190917A0490951D
:101D500095239083469521503109E9F6CCCF5081E7
:101D600090959523E3CFE0917704F09178048081FA
:101D700090917C04892B8083ADCF1F93CF93DF9309
:101D8000EC01162F8D8D9E8D892BB1F12DA93EA9C9
:101D90004FA958AD60E074E284EF90E00E94052501
:101DA0002051310941095109569547953795279595
:101DB0002093B80066EA111167EACE010E94270D50
:101DC0008D8D9E8D892B41F129AD3AAD4BAD5CAD2A
:101DD00060E074E284EF90E00E9405252051310913
:101DE0004109510956954795379527952093B80095
:101DF000DF91CF911F9108958B8D9C8D892B21F0C0
:101E00008EAD9FAD0E94890DEFA5F8A990818CA998
:101E1000809589238083CECFEFA5F8A980819CA9E6
:101E2000892B8083E5CF0895FC016370668B8481E4
:101E3000958126813781613039F0633029F09187AF
:101E40008087338722870895318720879387828709
:101E500008952F923F924F925F926F927F928F924E
:101E60009F92AF92BF92CF92DF92EF92FF920F9329
:101E70001F93CF93DF93CDB7DEB76A970FB6F89471
:101E8000DEBF0FBECDBF9A8F898F7A8369834A01E7
:101E9000D22E18870F833701BC2CDC0159962D9167
:101EA0003C915A972115310509F015C118968D916D
:101EB0009C911997681779070CF0D7C11A968D91E4
:101EC0009C91481759070CF0D0C14C2C512CB6E00E
:101ED000CB9E600D711D11247C876B87161617062B
:101EE0000CF0C3C1EA2DF0E0FA87E98793E0EE0F2A
:101EF000FF1F9A95E1F7F88BEF87CF01840F951FAD
:101F0000181619060CF0B1C1A98DBA8D58968C918E
:101F1000811104C0BFEABD1508F4D394A98DBA8D10
:101F2000ED91FC9111970284F385E02DCD01099587
:101F3000B5E0DB9EC0011124E981FA81FC83EB83CB
:101F4000312C212C9C0128593F4F388F2F8B4A2D43
:101F500050E05E8B4D8BEF89F88DE20DF31D4491BF
:101F60009E828D82D12CC12C69817A81620D731D74
:101F70007A8B698B842F90E09C8B8B8BE98DFA8D0B
:101F8000A081B18140FF82C0F1E0BF126FC0AF12EB
:101F90006DC01C96ED91FC912F813885A4014C0DEC
:101FA0005D1D69897A89898D9A8D0995EB89FC89EE
:101FB000F595E7954E2F5FEFC51AD50A6D817E81A5
:101FC0008D899E89680F791F7E836D8398E0C9167D
:101FD000D10481F6AFEF2A1A3A0AEB81FC81E40DB5
:101FE000F51DFC83EB83F5E02F16310409F0B3CF28
:101FF0002F81388526153705B9F0A98DBA8DED9159
:10200000FC91B1E0BB1257C0AB1255C069817A8117
:102010006B5F7F4F0088F189E02D830128E030E07D
:10202000A401898D9A8D0995A98DBA8DED91FC91A8
:1020300011970688F789E02DCD016A960FB6F894BE
:10204000DEBF0FBECDBFDF91CF911F910F91FF90EB
:10205000EF90DF90CF90BF90AF909F908F907F9048
:102060006F905F904F903F902F9009941E96ED9146
:10207000FC91EF80F88409851A8592014D815E817B
:102080006B817C81898D9A8D099590CF2F813885C0
:102090002615370509F48ACF31E0B31207C0A31221
:1020A00005C01C96ED91FC91930178CF1E96ED91A1
:1020B000FC917301E0CF6B857C85641975090684FA
:1020C000F785E02D73010F8518899201A401898D90
:1020D0009A8D0995A9CFF90134969491329745913B
:1020E0005491D91AB7E0DB9E400D511D1124F9011E
:1020F000259134913C8B2B8BFA0125903490FA0179
:102100003296749031963491398B32966490319630
:10211000449041E04C1518F04A1508F07FC0662D38
:10212000062C000C770B7C836B83842D042C000C15
:10213000990B9E838D83A98DBA8DED91FC9111979A
:102140000284F385E02DCD010995512CD12CC12CB1
:10215000EA2DF0E0FA87E9872B2D30E03C872B87CA
:10216000A401440D511D47FC5A95588F4F8B69812E
:102170007A81660D711D67FC7A957E876D877989F6
:10218000C71608F051CF2C2D30E04D815E81420FF3
:10219000531FA985BA854A9FC0014B9F900D5A9F36
:1021A000900D1124FC01E80DF91DF88BEF87852DAA
:1021B000612C4F89588D420F531F5E8B4D8B6714D6
:1021C00008F050C044244394480E877041F4C10184
:1021D0000196EB89FC89E20DF31DD4901C01D7FE1A
:1021E00019C0A98DBA8DED91FC91662D70E0B1E01A
:1021F000BB1219C0AB1217C02D853E85620F731F2D
:102200000484F585E02D2F8138854D895E89898D7F
:102210009A8D0995DD0C6394842DD1CF1E821D8289
:102220001C821B8288CF4B815C81640F751FAB853C
:10223000BC856A9FC0016B9F900D7A9F900D112401
:1022400069817A81680F791F0684F785E02DEF8018
:10225000F88409851A859D014F855889898D9A8D45
:102260000995D8CF570CC3948ACF6A960FB6F894C5
:10227000DEBF0FBECDBFDF91CF911F910F91FF90B9
:10228000EF90DF90CF90BF90AF909F908F907F9016
:102290006F905F904F903F902F9008958F929F92F4
:1022A000AF92CF92EF92FF920F931F93CF93DF9352
:1022B000EC01262F898D9A8D009709F051C06A3064
:1022C000D1F41D861C868D8948E0849F90011124DD
:1022D0008E859F85820F931F9F878E8781E090E078
:1022E000DF91CF911F910F91FF90EF90CF90AF9022
:1022F0009F908F9008956D3089F3CC88AD888F8939
:102300008823C1F08C859D8536E0C39E800D911D8C
:102310001124488559854817590764F44E855F850F
:102320001D861C8638E0A39EC0011124840F951FD2
:102330009F878E87EA88FB88088919894E855F8583
:102340006C857D85CE010E94290F2C898C859D8509
:1023500046E0249F800D911D11249D878C87BECF60
:102360006A3069F41D861C86FC013696E4912D893D
:102370008E859F85E29F800D911D1124ADCF6D301C
:1023800009F4ACCFFC0134963491631708F4A6CF5E
:102390003196E491E61708F4A1CFFC0132968590BE
:1023A0009490462F431B342F47E0349F800C911CA0
:1023B0001124F401329634913196E4913323A9F13A
:1023C000EE2399F1CC88F4013596E491AD884F89DC
:1023D000442301F10E2E000CFF0BE30FF11DCE9EE6
:1023E000A001CF9E500D11246C857D85460F571F8F
:1023F00068857985641775076CF44E855F851D8641
:102400001C86FC013696E491AE9E400D511D1124B0
:102410005F874E87EA88FB88088919894E855F8522
:102420006C857D85CE010E94290FF4013496E491DC
:102430002C898C859D85E29F800D911D11248DCF67
:102440006F927F928F929F92AF92BF92CF92DF92C4
:10245000EF92FF920F931F93CF93DF93EC016B01E9
:102460005A0139014801E881F9810284F385E02DA0
:102470000995E881F9810288F389E02D87019301AC
:10248000A501B601CE010995A501480D591D415080
:102490005109E881F9810288F389E02D9301B601A1
:1024A000CE010995E881F9810088F189E02D940138
:1024B000A501B601CE010995C60CD71CB601615025
:1024C0007109E881F9810088F189E02D9401A50165
:1024D000CE010995E881F9810688F789E02DCE01C2
:1024E000DF91CF911F910F91FF90EF90DF90CF90F0
:1024F000BF90AF909F908F907F906F9009946F9254
:102500007F928F929F92AF92BF92CF92DF92EF9283
:10251000FF920F931F93CF93DF935C01EB016A014E
:10252000490138018701DC01ED91FC9162177307C5
:1025300019F5641675062CF0962D872D3A01C92ED3
:10254000D82E9601261937092F5F3F4F048CF58D41
:10255000E02DA301BE01C5010995DF91CF911F9127
:102560000F91FF90EF90DF90CF90BF90AF909F9032
:102570008F907F906F9008954615570591F4261718
:10258000370724F0892D4B01C22FD82F9E0128191F
:1025900039092F5F3F4F068CF78DE02DA601B4015E
:1025A000DACF0284F385E02D0995D501ED91FC91F8
:1025B0000488F589E02D83019401A601BE01C501BF
:1025C0000995D501ED91FC910688F789E02DC501AB
:1025D000DF91CF911F910F91FF90EF90DF90CF90FF
:1025E000BF90AF909F908F907F906F900994EF92E3
:1025F000FF920F931F93DC011A960D911C911B976C
:1026000018962D913C911997ED91FC9100A0F1A1A4
:10261000E02D7B0150E040E070E060E009951F9103
:102620000F91FF90EF9008954F925F926F927F927B
:102630008F929F92AF92BF92CF92DF92EF92FF92D2
:102640000F931F93CF93DF936C012B015A01390134
:102650004801DC01ED91FC910284F385E02D0995A0
:10266000E201640C751CD601ED91FC91C615D705ED
:102670005CF40088F189E02D87019401A501BE0179
:10268000C60109952196EFCF0688F789E02DC6018E
:10269000DF91CF911F910F91FF90EF90DF90CF903E
:1026A000BF90AF909F908F907F906F905F904F9072
:1026B00009948F929F92AF92BF92CF92DF92EF9246
:1026C000FF920F931F93CF93DF93EC015B014A01BD
:1026D0006901E881F9810284F385E02D099595016E
:1026E0002C0D3D1D21503109E881F9810488F589BF
:1026F000E02D78018401A401B501CE010995E8819E
:10270000F9810688F789E02DCE01DF91CF911F91E5
:102710000F91FF90EF90DF90CF90BF90AF909F9080
:102720008F9009948F929F92AF92BF92CF92DF9237
:10273000EF92FF920F931F93CF93DF93EC015B0116
:102740004A0169017801E881F9810284F385E02D6D
:102750000995C80CD91C860101501109E881F9813D
:102760000488F589E02D9501A401B501CE010995F4
:10277000E881F9810688F789E02DCE01DF91CF91BC
:102780001F910F91FF90EF90DF90CF90BF90AF908F
:102790009F908F900994EF92FF920F931F93DC010B
:1027A000ED91FC9100A0F1A1E02D09951F910F91F1
:1027B000FF90EF9008950F931F93DC01ED91FC9132
:1027C000068CF78DE02D09951F910F9108950F93B9
:1027D0001F93DC01ED91FC91048CF58DE02D0995A2
:1027E0001F910F910895DC01ED91FC910084F1851A
:1027F000E02D09943F924F925F926F927F928F9259
:102800009F92AF92BF92CF92DF92EF92FF920F937F
:102810001F93CF93DF935C017B014A01690139016A
:1028200087E0680E711C93E0759467949A95E1F7C0
:102830002B01400E511E10E000E0312CD0E0C0E032
:10284000CE0187709927330C892B59F4FE0183E060
:10285000F595E7958A95E1F7E00FF11FE80DF91D71
:10286000349037FE0AC021E030E0A701B5016C0FBB
:102870007D1F88E494E00E94F3132196CC16DD06B8
:10288000F9F68FEFE81AF80A060D171DE414F5049F
:10289000A9F6DF91CF911F910F91FF90EF90DF90FC
:1028A000CF90BF90AF909F908F907F906F905F90F0
:1028B0004F903F9008952F923F924F925F926F9268
:1028C0007F928F929F92AF92BF92CF92DF92EF92C0
:1028D000FF920F931F93CF93DF9300D000D000D0CF
:1028E000CDB7DEB73C016A013E832D83FC82EB82CB
:1028F0005801A41AB50AB7FE03C0B194A194B10857
:102900008D809E80861A970A97FE03C091948194C9
:1029100091088A149B045CF0902F812F0D811E81F9
:102920009D838E839C2D8D2D6B01692F782F0C1527
:102930001D055CF09D818E817E836D83692F782FCC
:10294000902F812F8601C92ED82E1601201A310A08
:102950002B012D813E81421A530A57FE03C0519428
:1029600041945108710137FE03C03FEFE31AF30AA7
:10297000F594E7948D819E81861797075CF5A1E019
:10298000B0E0BA83A983C016D1064CF1D301ED9112
:10299000FC910484F585E02D2B813C81A8016D819B
:1029A0007E818A149B041CF04D815E81B801C301B5
:1029B0000995E418F508F7FE0AC02D813E8189814A
:1029C0009A81280F391F3E832D83E20CF31C0F5F81
:1029D0001F4FD9CF2FEF3FEF3A832983D4CF2696CD
:1029E0000FB6F894DEBF0FBECDBFDF91CF911F9120
:1029F0000F91FF90EF90DF90CF90BF90AF909F909E
:102A00008F907F906F905F904F903F902F900895A0
:102A1000089590E080E0089520914E0430914F0495
:102A2000C901079697FD079623E0959587952A9506
:102A3000E1F720914C0430914D04829FA001839FC7
:102A4000500D929F500D112470E060E0809167045A
:102A5000909168040C94C9282F923F924F925F92F4
:102A60006F927F928F929F92AF92BF92CF92DF929E
:102A7000EF92FF920F931F93CF93DF93D82FC92F1D
:102A80008B010E94992424E630E040E050E00E944F
:102A9000052549019B01AC0160E876E988E990E0F1
:102AA0000E94D5246B017C01F80191828082ED2F78
:102AB000FC2F2191822F022E000C990BC0970A97B0
:102AC000C0F32E3239F51F0180E8882E86E9982E52
:102AD00088E9A82EB12C9AE0492E512C612C712C3A
:102AE000F101C1911F010C2E000CDD0BE097CA30E3
:102AF000D10580F4C501B401A30192010E9405250E
:102B000049015A01DE010E943825C60ED71EE81E73
:102B1000F91EE6CFA5E0B0E0A70196010E942D25A1
:102B20006F5F7F4F8F4F9F4F23E030E040E050E0DA
:102B30000E940525F801228333834483558316823E
:102B4000DF91CF911F910F91FF90EF90DF90CF9089
:102B5000BF90AF909F908F907F906F905F904F90BD
:102B60003F902F9008951F93CF93DF93EC0118812E
:102B70001D3209F42196CE010E9499249B01AC01DB
:102B8000A4E6B0E00E942D25AB01BC01FE01299115
:102B9000822F022E000C990BC0970A97B8F32E32A1
:102BA00031F58181082E000C990BC0978A30910570
:102BB000F0F4AAE0A89F9001A99F300D1124C9014B
:102BC000330FAA0BBB0B480F591F6A1F7B1F828153
:102BD000082E000C990BC0978A30910540F4092EFD
:102BE000000CAA0BBB0B480F591F6A1F7B1F1D321D
:102BF00039F470956095509541955F4F6F4F7F4FB9
:102C0000CB01BA01DF91CF911F910895AF92BF928E
:102C1000CF92DF92EF92FF920F931F93CF93DF93A8
:102C20000E9420086B017C0112E0D1E08CE793E068
:102C30000E94DB09892B09F4C0C28CE793E00E9453
:102C4000F309C82F8091380490913904A0913A0477
:102C5000B0913B040196A11DB11D8093380490935F
:102C60003904A0933A04B0933B04C43209F484C2FB
:102C7000E0913204C5320CF0BDC0CA3019F0CD303D
:102C800009F087C2EF3008F032C1F0E0EF5DFB4F92
:102C9000108280912004882309F437C120912104F7
:102CA000822F022E000C990B3FEB320F363008F0CA
:102CB000ADC0C7978295807F90912204292F092E5D
:102CC000000C330B4FEB490F463008F0A7C02753D9
:102CD0003109820F90911F048913F6C0809144043A
:102CE00090914504A0914604B09147040196A11D1E
:102CF000B11D8093440490934504A0934604B0937F
:102D0000470480913304882399F080913C0490918A
:102D10003D04A0913E04B0913F040196A11DB11D58
:102D200080933C0490933D04A0933E04B0933F04F1
:102D300000913004002309F47AC00130A1F58DEB35
:102D400093E00E9450098BEC93E00E94500980911F
:102D50003304882341F187E0EBEAF3E0ADE9B3E027
:102D600001900D928A95E1F787E0E2EBF3E0A4EAA7
:102D7000B3E001900D928A95E1F70E9420086093DC
:102D8000B9037093BA038093BB039093BC03009381
:102D90009C0300939B0389ED93E00E94390987EE21
:102DA00093E00E943909A0903604B0903704A11432
:102DB000B10409F49CC0E0913604F091370466A197
:102DC00077A1F50186A197A10E94D028892B09F04F
:102DD0008EC0B501C50140960E94D9280E942008E6
:102DE000F50160A371A382A393A3D5A3D4A3A2A446
:102DF000B3A4DDCFCA3209F445CFCC3209F0C9C142
:102E000080911F048C2780931F043CCF21562630CD
:102E100018F4875591094ECFC0974CCF91569630F4
:102E200018F42755310955CF2053310952CF8BEC77
:102E300093E00E94500980913304882321F187E0B8
:102E4000EBEAF3E0ADE9B3E001900D928A95E1F78A
:102E500087E0E2EBF3E0A4EAB3E001900D928A95FB
:102E6000E1F70E9420086093B9037093BA0380933E
:102E7000BB039093BC03D0939C03D0939B0385EF3B
:102E800093E00E94390980910D0490910E04A09165
:102E90000F04B09110048093090490930A04A09346
:102EA0000B04B0930C040E942008609305047093F7
:102EB00006048093070490930804D0930404D093ED
:102EC000030481E194E06DCF80914004909141042E
:102ED000A0914204B09143040196A11DB11D8093BD
:102EE000400490934104A0934204B0934304809122
:102EF00031048F5F809331041092320481E0CA3232
:102F000009F080E08093200491CE909131049111DA
:102F100044C06AE671E081E294E00E94D028892BE7
:102F200041F060E771E081E294E00E94D028892BB3
:102F3000F1F4D0933004809134049091350490934F
:102F4000370480933604A0903604B0903704A1145F
:102F5000B10469F261E274E0F50186A197A10E94D3
:102F6000D02897FF41C1F50182A593A5E8CF66E778
:102F700071E081E294E00E94D028892B41F06CE757
:102F800071E081E294E00E94D028892B19F410921C
:102F90003004D1CF10933004CECFE0913004E23032
:102FA00009F448C080912104882309F443C020E239
:102FB000E29FF0011124E92B3197E932F10508F085
:102FC00039C0EB51F84E0C9427250E184F1856189F
:102FD0005D1860188E189518A218AF181A181A18CC
:102FE0001A181A181A181A181A181A181A181A1851
:102FF0001A181A181A181A181A181A181A181A1841
:103000001A181A181A181A181A180E1849184F18D8
:1030100056185D18601867187418811881E294E0DA
:103020000E94B3156093D1037093D2038093D303AE
:103030009093D403A0903604B090370400913104EB
:10304000A114B10409F453CFE0913604F091370490
:1030500066A177A1F50186A197A10E94D028892BAE
:1030600009F045CFF50120A531A5802F90E082170A
:1030700093070CF43CCF2817390739F440E150E0AE
:1030800061E274E0C5010E94E028F501A2A4B3A4A6
:10309000D5CF91E0813409F445C090E043C06BEA9C
:1030A00073E081E294E00E942C15C4CF91E0833557
:1030B00009F090E09093B103BDCF62EB73E0F1CFE4
:1030C00091E0873509F090E09093B803B3CF81E2A7
:1030D00094E00E94B3156093E3037093E40380933C
:1030E000E5039093E603A6CF81E294E00E94B31536
:1030F0006093F1037093F2038093F3039093F403CE
:1031000099CF81E294E00E9499246093C303709365
:10311000C4038093C5039093C6038CCF91E08133A1
:103120000CF4BBCF9093330485CF81E294E00E94EE
:10313000992460930D0470930E0480930F04909370
:10314000100478CF81E294E00E94B31560931B04D1
:1031500070931C0480931D0490931E046BCF81E236
:1031600094E00E94B3156093FF0370930004809372
:103170000104909302045ECF109232041092310445
:1031800010921F0410933004109220041092330404
:103190004DCDEE3040F481E08E0F80933204F0E0AC
:1031A000EF5DFB4FC0838091200481113FCD809162
:1031B0001F04C827C0931F0439CD0E9420086C1932
:1031C0007D098E099F09683E73408105910508F4C9
:1031D0002DCDDF91CF911F910F91FF90EF90DF9058
:1031E000CF90BF90AF900895892B09F480CE1092B4
:1031F0003704109236047BCE85ED8093BC0080911D
:103200005A0290915B02A0915C02B0915D02079618
:10321000A11DB11D23E0B695A795979587952A9591
:10322000D1F72091BC0024FD03C01092A3020895A1
:1032300040915A0250915B0260915C0270915D0274
:10324000452B462B472B69F30097A105B10541F0AB
:1032500025E32A95F1F700000197A109B109E1CF13
:10326000809159020C9490060E94C428FB010190A1
:103270000020E9F73197AF01461B570BDC01ED91B8
:10328000FC910280F381E02D09948F929F92AF927E
:10329000BF92EF92FF920F931F93CF93DF93CDB71F
:1032A000DEB7A1970FB6F894DEBF0FBECDBF7C018D
:1032B000FA01CB0119A2223008F42AE08E010F5D39
:1032C0001F4F822E912CB12CA12CBF01A50194017E
:1032D0000E940525F901CA016A300CF5605DD8012C
:1032E0006E938D01232B242B252B79F790E080E022
:1032F000109721F0BD01C7010E943619A1960FB6A3
:10330000F894DEBF0FBECDBFDF91CF911F910F911B
:10331000FF90EF90BF90AF909F908F900895695C61
:10332000DECF462F50E070E060E02AE00C944519B3
:103330000C9436191F920F920FB60F9211242F93EF
:103340003F934F935F936F937F938F939F93AF932D
:10335000BF93EF93FF938091B900887F803609F483
:103360004AC0F0F5883209F4A7C018F5803109F495
:103370009BC0B8F4882309F4F9C0883009F494C0DC
:10338000FF91EF91BF91AF919F918F917F916F913D
:103390005F914F913F912F910F900FBE0F901F9013
:1033A0001895883109F488C0803251F78093A202C1
:1033B00014C0803409F49DC040F48033B9F38833DD
:1033C000F9F68093A20285ECB0C0803509F485C07F
:1033D000883509F496C0883499F60E94FC18D0CF3D
:1033E000883909F48CC038F5883729F050F48836CC
:1033F00011F0803729F683E08093A3021092A10296
:1034000057C0883809F47BC0803919F0803809F03A
:10341000B7CF8091A102803208F071C0E091A10283
:1034200081E08E0F8093A1028091BB00F0E0EF5706
:10343000FD4F80833DC0803B39F0E0F4803A09F4D1
:1034400079C0883A09F09CCF84E08093A30210925F
:10345000800210927F02E0916803F0916903099560
:1034600080917F0281110FC081E080937F021092D2
:103470005F0209C0803C09F4A6CF883C09F4A3CFC1
:10348000883B09F07DCFE091800281E08E0F809330
:103490008002F0E0E15AFD4F80818093BB00909163
:1034A000800280917F0229C08091C8028093BB0076
:1034B00085EC8093BC0064CF9091C7028091C602D6
:1034C000981758F5E091C70281E08E0F8093C702EC
:1034D000F0E0EA55FD4F8081E9CFE091C70281E03D
:1034E0008E0F8093C7028091BB00F0E0EA55FD4F3C
:1034F00080839091C7028091C6029817C8F285E830
:10350000D8CFE091C70281E08E0F8093C7028091EF
:10351000BB00F0E0EA55FD4F80838091A502811148
:103520005CCF81E08093A40284EA8093BC00109277
:10353000A30226CF85EC8093BC001092A302809159
:10354000A102803230F4E091A102F0E0EF57FD4F8C
:1035500010826091A10270E0E0916A03F0916B0328
:1035600081E892E009951092A1020ACF1092A2027E
:1035700034CF1F920F920FB60F9211242F933F93C7
:103580008F939F93AF93BF938091110290911202FA
:10359000A0911302B09114023091100223E0230F86
:1035A0002D3758F50196A11DB11D2093100280936F
:1035B000110290931202A0931302B093140280910F
:1035C000150290911602A0911702B091180201966F
:1035D000A11DB11D8093150290931602A0931702AE
:1035E000B0931802BF91AF919F918F913F912F910E
:1035F0000F900FBE0F901F90189526E8230F02968C
:10360000A11DB11DD2CF1F920F920FB60F921124A0
:103610002F933F934F935F936F937F938F939F93DA
:10362000AF93BF93EF93FF938BEC92E00E94AA08B5
:10363000FF91EF91BF91AF919F918F917F916F918A
:103640005F914F913F912F910F900FBE0F901F9060
:1036500018951F920F920FB60F9211242F938F93EC
:103660009F93EF93FF93E091DB02F091DC02808166
:10367000E091E102F091E20282FD1BC09081809115
:10368000E4028F5F8F732091E502821741F0E09191
:10369000E402F0E0E553FD4F958F8093E402FF9143
:1036A000EF919F918F912F910F900FBE0F901F90D0
:1036B00018958081F4CF1F920F920FB60F921124AC
:1036C0002F933F934F935F936F937F938F939F932A
:1036D000AF93BF93EF93FF93E0910302F091040245
:1036E000309749F0A685B7858585968D91FF14C0E2
:1036F0009C918923A1F4FF91EF91BF91AF919F918C
:103700008F917F916F915F914F913F912F910F908A
:103710000FBE0F901F9018959C91892361F7A38984
:10372000B4899C918589809589238C938689978912
:103730000197F1F7608D718DA685B785558538E0C5
:1037400020E0CB010197F1F7822F90E095958795C6
:10375000282F4C91452309F02068315091F7868D30
:1037600081FD20958091020290E001968F73992748
:1037700030910102381799F0A0910202B0E0A054F4
:10378000BE4F2C9380930202828D938D0197F1F7A7
:10379000A389B4898C919589892B8C93ACCF868D24
:1037A0008160868FF1CFCF92DF92EF92FF921092DD
:1037B00073031092720398EEC92E93E0D92EE12C78
:1037C000F12CC0927403D0927503E0927603F092CC
:1037D00077038CE091E090937103809370031092D3
:1037E000CE021092CD02C092CF02D092D002E092CF
:1037F000D102F092D2028EE191E09093CC028093BC
:10380000CB0285EC90E09093D8028093D70284ECB1
:1038100090E09093DA028093D90280EC90E090934C
:10382000DC028093DB0281EC90E09093DE028093D7
:10383000DD0282EC90E09093E0028093DF0286EC60
:1038400090E09093E2028093E1021092E4021092E1
:10385000E5021092E6021092E70210926F031092B6
:103860006E0310926D0310926C030E94720687E73C
:1038700095E0909369038093680388E795E09093BF
:103880006B0380936A0310924B0410924A0420E861
:1038900030E030934D0420934C0480E290E090930C
:1038A0004F0480934E04309351042093500490931E
:1038B00053048093520410925E04109255041092A7
:1038C0005404109257041092560461E060935D0412
:1038D00060935C048FEF9FEF90935B0480935A0496
:1038E000909359048093580460935F04109260048D
:1038F000109262041092610482E491E09093490472
:1039000080934804109264041092630480E793E06B
:103910009093660480936504109268041092670483
:103920009FEF90936C0490936D0490936E0490932A
:103930006F049093700480E580938604109287044E
:1039400010929B0310929C0310929E0310929D0371
:1039500010929F031092A0031092A1031092A20351
:103960001092A3031092A5031092A4031092A60331
:103970001092A7031092A8031092A9031092AA0311
:103980001092AC031092AB031092AD031092AE03F1
:103990001092AF031092B0031092B1031092B303D0
:1039A0001092B2031092B4031092B5031092B603B2
:1039B0001092B7031092B8031092BD031092BE0389
:1039C0001092BF031092C0031092C1031092C20361
:1039D0001092CB031092CC031092CD031092CE0321
:1039E0001092CF031092D0031092D9031092DA03F1
:1039F0001092DF031092E0031092E1031092E203B1
:103A00001092E7031092E8031092ED031092EE0378
:103A10001092EF031092F0031092F5031092F60348
:103A20001092FB031092FC031092FD031092FE0310
:103A300010920304109204041092090410920A04D4
:103A400010920B0410920C041092110410921204A4
:103A500010921704109218041092190410921A046C
:103A600010921F041092200482E080933004109280
:103A700031041092320410923304109235041092E3
:103A800034041092370410923604109238041092C5
:103A9000390410923A0410923B0410923C041092A4
:103AA0003D0410923E0410923F0410924004109284
:103AB0004104109242041092430410924404109264
:103AC000450410924604109247041092210410926B
:103AD0007F0310927E03C0928003D0928103E09214
:103AE0008203F092830380E391E090937D038093BF
:103AF0007C031092930310929203109295031092FC
:103B000094031092970310929603109299031092C7
:103B1000980380919A038E7F8D7F80939A03869578
:103B20008170682783E00E94260661E083E00E949E
:103B3000B106E4E8FAE0E491E0938C03E0E7FAE010
:103B4000E491F0E0EE0FFF1FED59F54F8591949150
:103B500090938E0380938D0360E082E00E94B10613
:103B600080919A0381FD04C061E082E00E942606F4
:103B700082E080938803E3E8FAE0E491E09389032C
:103B8000EFE6FAE0E491F0E0EE0FFF1FE75AF54FA1
:103B90008591949190938B0380938A03FF90EF908B
:103BA000DF90CF900895789484B5826084BD84B509
:103BB000816084BD85B5826085BD85B5816085BD28
:103BC00080916E00816080936E00109281008091E0
:103BD0008100826080938100809181008160809368
:103BE0008100809180008160809380008091B1008D
:103BF00084608093B1008091B00081608093B000B8
:103C000080917A00846080937A0080917A0082604B
:103C100080937A0080917A00816080937A0080910D
:103C20007A00806880937A001092C10061E085E09C
:103C30000E94B10660E085E00E942606809167043C
:103C400090916804892B11F10E940C1520914E046B
:103C500030914F0480914C0490914D0421323105F4
:103C60000CF060C2B9016052710977FF02C06F5F4A
:103C70007F4F759567958357910997FD019600E2EF
:103C800010E023E730E04AE855E05FC220914E049F
:103C900030914F04C901079697FD0796B3E09595BB
:103CA0008795BA95E1F720914C0430914D04AC0111
:103CB000429FC001439F900D529F900D11240E947E
:103CC0009F279093680480936704892B09F0BCCFE9
:103CD0000E940C1583E080935C0480935D0481E076
:103CE00090E090935B0480935A04909359048093DE
:103CF00058041092550410925404109257041092D4
:103D0000560462E871E088E494E00E9498190E94E9
:103D10008C0DE091DB02F091DC0282E08083E09187
:103D2000D702F091D8021082E091D902F091DA0224
:103D300080E180831092E302E091DF02F091E002E3
:103D400086E08083E091DD02F091DE028081806177
:103D50008083E091DD02F091DE02808188608083C3
:103D6000E091DD02F091DE02808180688083E09145
:103D7000DD02F091DE0280818F7D808310929703B7
:103D8000109296031092950310929403109293034D
:103D9000109292038DE991E0909399038093980398
:103DA00090918803963108F047C02DEB30E03093B6
:103DB0009303209392032BE931E0309395032093F2
:103DC00094032CE231E030939703209396032091E3
:103DD000680084E0983048F031E09E3008F430E02C
:103DE00081E001C0880F3A95EAF7822B8093680042
:103DF0002DE630E0983050F02BE630E09E3030F089
:103E00002CE630E0963110F030E020E03093900363
:103E100020938F03292F30E0983008F079C381E098
:103E200001C0880F9A95EAF78093910380919803D7
:103E3000909199030197F1F78091960390919703E0
:103E4000892B49F1E0910302F091040253E0EC3731
:103E5000F50709F1309739F0A389B4899C918589D8
:103E6000809589238C9380919A038E7F80939A0307
:103E700010920202109201028CE793E090930402E8
:103E800080930302E0918F03F091900380819091E1
:103E90009103892B80830E9406161092BE036091C5
:103EA000BF037091C0038091C1039091C20320E1D0
:103EB00037E240E050E00E94052521110CC060E986
:103EC00071E08BEC92E00E94361963EA71E08BECB2
:103ED00092E00E9436190E94061663EA71E08BECAC
:103EE00092E00E9436191AE083E5282E82E0382EEF
:103EF00002E01092BE03C090BF03D090C003E090D8
:103F0000C103F090C203C701B60120E137E240E0EF
:103F100050E00E94052520930D02C701B60124E65A
:103F200030E040E050E00E940525C62FCA01B901EB
:103F300024E630E040E050E00E94052560930E0248
:103F4000C25EC0930F021092CC03C090CD03D090FC
:103F5000CE03E090CF03F090D003C701B60120E478
:103F600032E44FE050E00E9405252D5F20930B02C4
:103F7000C701B60120E137E240E050E00E9405258C
:103F8000CA01B90124E630E040E050E00E94052576
:103F9000C62F60930A02C701B60124E630E040E074
:103FA00050E00E940525CA01B90124E630E040E056
:103FB00050E00E94052560930902C11188C061117B
:103FC00086C081E08093CA0298E69093C90210925D
:103FD0006D0310926C0360E080E793E00E94F705A8
:103FE00060E880E793E00E94F70580910A02612F64
:103FF0000E94E5248295807F682F690F80E793E017
:104000000E94F70580910B02612F0E94E5248295A2
:10401000807F682F690F80E793E00E94F705809109
:104020000C02612F0E94E5248295807F682F690F22
:1040300080E793E00E94F70580910D02612F0E94B6
:10404000E5248295807F682F690F80E793E00E94C6
:10405000F70580910E02612F0E94E5248295807FF2
:10406000682F690F80E793E00E94F70580910F02A7
:104070008E51612F0E94E5248295807F682F690F01
:1040800080E793E00E94F70580E793E00E9407072E
:1040900081111DC0E1E0E093CA0210926D031092FD
:1040A0006C0360E080E793E00E94F70580910902CD
:1040B000612F0E94E5248295807F682F690F80E739
:1040C00093E00E94F70580E793E00E940707809144
:1040D00000019091010101969093010180930001EC
:1040E000CC9709F02AC20E9420086B017C010E9433
:1040F00020086C197D098E099F096E3171058105B3
:10410000910508F012C261E085E00E942606C10117
:104110000197F1F760E085E00E942606C101019752
:10412000F1F7E5CFB9016054710977FF02C06F5F05
:104130007F4F759567958255910997FD019600E42B
:1041400010E022E530E04AE657E0959587950E9419
:10415000FA1382E080936A0480916504909166046A
:10416000892B09F4DFC08CE38093690410926F03FC
:1041700010926E0310926D0310926C030E947206EF
:1041800087E795E0909369038093680388E795E05B
:1041900090936B0380936A038091700487FD1EC027
:1041A00061E00E94B10661E0809170040E942606E1
:1041B00061E070E080E090E00E94EE0760E08091B6
:1041C00070040E9426066AE070E080E090E00E94A1
:1041D000EE0761E0809170040E94260680916504DC
:1041E00090916604892B09F45CC120917D04309183
:1041F0007E0440917F045091800460E074E284EF7B
:1042000090E00E9405252051310941095109569538
:104210004795379527952093B80064E086E895E0A8
:104220000E94720C60914E04615088E494E00E94F8
:10423000270D64E082E895E00E94720C80916A0488
:1042400060E1813009F064E188E494E00E94270D88
:1042500064E08EE795E00E94720C8FE880938504FD
:1042600080914C0490914D048038910509F032C141
:1042700080914E0490914F048034910509F03AC129
:1042800080916A04813009F023C18FE9809385040D
:10429000C2E16AED88E494E00E94270D6C2F88E467
:1042A00094E00E94270D61E888E494E00E94270DC5
:1042B0006091850488E494E00E94270D69ED88E40C
:1042C00094E00E94270D80916A0462E2813009F037
:1042D00061EF88E494E00E94270D66E088E795E0AE
:1042E0000E94720C8091650490916604892B09F4F8
:1042F00005C1209181043091820440918304509142
:10430000840460E074E284EF90E00E94052520516F
:1043100031094109510956954795379527952093BD
:10432000B800D6CC61E080916E040E94B10661E0D5
:1043300080916F040E94B10680916E04082E000CDB
:10434000990BFC01E359F54FE491F0E0EE0FFF1FEC
:10435000ED59F54F259134913093760420937504EF
:10436000FC01EF57F54FE491E0937B0480916F04DB
:10437000082E000C990BFC01E359F54FE491F0E095
:10438000EE0FFF1FED59F54FA591B491B09378044E
:10439000A0937704FC01EF57F54FE491E0937C0480
:1043A0008C91E82BEC938091630490916404892BA9
:1043B00009F434C0CFB7F89480910002811127C06E
:1043C000E7E7FAE08491EBE8FAE09491E82FF0E077
:1043D000EE0FFF1FEA5CF54FA591B491EC91E92334
:1043E00021F461E08AE00E94260661E08AE00E94F2
:1043F000B1068CB580618CBD8CB580648CBD61E0EC
:104400008DE00E94B10661E08BE00E94B1068091D0
:1044100000028F5F80930002CFBFBECE61E080912B
:104420006C040E94B10661E080916D040E94B106A7
:1044300080916C04082E000C990BFC01E359F54F98
:10444000E491F0E0EE0FFF1FED59F54F2591349107
:104450003093720420937104FC01EF57F54FE491FF
:10446000E093790480916D04082E000C990BFC01F7
:10447000E359F54FE491F0E0EE0FFF1FED59F54FD2
:10448000A591B491B0937404A0937304FC01EF5709
:10449000F54FE491E0937A048C91E095E823EC9356
:1044A0007BCE8091630490916404892B31F08091DC
:1044B0008604909187040E94890DE0917704F09121
:1044C0007804908180917C04809589238083A5CE97
:1044D0008FECDCCE8036910569F480914E0490918A
:1044E0004F04409739F480916A04813029F480E1C7
:1044F00080938504C2E0CDCE8FEAFACFE0917704B5
:10450000F0917804808190917C04892B8083E0CBAA
:104510009E3040F42850310981E001C0880F2A956F
:10452000EAF782CC2E503109F7CF60E085E00E9497
:1045300026061092010110920001D0910902F0901C
:104540000A02E0900B02D0900E02C0910F0260911F
:104550000D028BEC92E00E94911961EA71E08BEC04
:1045600092E00E9498196D2D8BEC92E00E949119B7
:1045700061EA71E08BEC92E00E9498194C2F50E0B8
:104580004E54584F052E000C660B770B2AE08BEC2F
:1045900092E00E94451966EA71E08BEC92E00E947D
:1045A00098196E2D8BEC92E00E9491196AEA71E0E5
:1045B0008BEC92E00E9498196F2D8BEC92E00E9498
:1045C00091196AEA71E08BEC92E00E9498196D2FC4
:1045D0008BEC92E00E94911963EA71E08BEC92E01F
:1045E0000E9436190E940C1500935C0400935D0430
:1045F00041E050E050935B0440935A0450935904B7
:104600004093580410925504109254041092570489
:10461000109256046E2D88E494E00E9491196AEA83
:1046200071E088E494E00E9498196F2D88E494E08A
:104630000E9491196AEA71E088E494E00E94981956
:104640006D2F88E494E00E94911963EA71E088E498
:1046500094E00E9436190E948C0D1092DA0360914A
:10466000DF037091E0038091E1039091E2030E94E7
:10467000782626E53EE04DEE5FE30E942D2720E000
:1046800030E048EC52E40E94D5256B017C0120917A
:1046900005023091060240910702509108020E94E3
:1046A00063254B015C0120E030E0A9010E9428272E
:1046B00018160CF040C02DEC3CEC4CE45EE3C50158
:1046C000B4010E94282718160CF43FC00E94061659
:1046D0000E9420086938734181059105F8F08091A6
:1046E000380490913904A0913A04B0913B040A97A0
:1046F000A105B10598F4CAE2DAE0FE0164916623EF
:1047000039F08BEC92E00E94CC082196892BA9F716
:1047100063EA71E08BEC92E00E94361940E050E0D1
:10472000452B09F4E6CB0E949608882309F4E0CBD8
:104730000E940000DDCB2DEC3CEC4CE45EEBC501AF
:10474000B4010E94D02587FFC1CF1092040440918C
:10475000090450910A0460910B0470910C042AE042
:104760008BEC92E00E94451966EA71E08BEC92E0D6
:104770000E949819A7019601C701B6010E949A27C5
:104780006CEA71E081111AC046015701E894B7F84C
:104790002FEF3FEF4FE75FE7C501B4010E949A2773
:1047A00081111FC02FEF3FEF4FE75FE7C501B40155
:1047B0000E94D0251816ACF460EB71E08BEC92E00F
:1047C0000E94361968EB71E08BEC92E00E94981918
:1047D000C0920502D0920602E0920702F09208020F
:1047E00075CF2FEF3FEF4FE75FE4C701B6010E949F
:1047F000282718161CF464EB71E0E0CF2FEF3FEF91
:104800004FE75FECC701B6010E94D02587FDF3CFCB
:1048100020E030E0A901C701B6010E94D02587FF42
:104820005BC06DE28BEC92E00E94CC08C701B60140
:1048300090582AE037ED43EA5BE30E9464252B01A0
:104840003C010E9447264B015C010E9476269B0199
:10485000AC01C301B2010E9463252B013C012AE097
:10486000B501A4018BEC92E00E9445196EE28BEC3D
:1048700092E00E94CC0820E030E040E251E4C30125
:10488000B2010E942D272B013C010E9447264B01BB
:10489000B12CA12C2AE0B501A4018BEC92E00E947E
:1048A0004519C501B4010E9476269B01AC01C301E4
:1048B000B2010E94632520E030E040E251E40E9412
:1048C0002D270E944726AB0170E060E02AE08BECC8
:1048D00092E00E94451976CFC701B601AACF80E3C6
:1048E00091E090937D0380937C03809103029091EB
:1048F00004028C57934071F4E0918F03F091900380
:104900009081809191038095892380831092040285
:104910001092030282E491E090934904809348044A
:104920008091670490916804009711F00C943B28E3
:1049300008951F93FC0199278827BC01E8941191E1
:104940001032E9F3193010F01E30C8F31B3251F069
:104950001D3249F4689406C00E94C024610F711D85
:10496000811D911D119110531A30B0F33EF49095B2
:104970008095709561957F4F8F4F9F4F1F91089540
:10498000592F482F372F262F660F771F881F991F03
:10499000660F771F881F991F620F731F841F951F53
:1049A000660F771F881F991F0895DB018F939F93D0
:1049B0000E942D25BF91AF91A29F800D911DA39FB5
:1049C000900DB29F900D11240895991B79E004C0B9
:1049D000991F961708F0961B881F7A95C9F780953E
:1049E000089597FB072E16F4009407D077FD09D0A1
:1049F0000E94402507FC05D03EF4909581959F4F7D
:104A00000895709561957F4F0895A1E21A2EAA1B13
:104A1000BB1BFD010DC0AA1FBB1FEE1FFF1FA2176E
:104A2000B307E407F50720F0A21BB30BE40BF50B6B
:104A3000661F771F881F991F1A9469F760957095F4
:104A4000809590959B01AC01BD01CF010895EE0FBB
:104A5000FF1F0590F491E02D09940E945425A59F15
:104A6000900DB49F900DA49F800D911D1124089569
:104A7000B7FF0C942D250E942D25821B930B0895C2
:104A8000AA1BBB1B51E107C0AA1FBB1FA617B70774
:104A900010F0A61BB70B881F991F5A95A9F7809590
:104AA0009095BC01CD010895A29FB001B39FC001B4
:104AB000A39F700D811D1124911DB29F700D811D4A
:104AC0001124911D08955058BB27AA270E947B25C9
:104AD0000C94EE260E94E02638F00E94E72620F093
:104AE00039F49F3F19F426F40C94DD260EF4E0957A
:104AF000E7FB0C94D726E92F0E94FF2658F3BA173C
:104B0000620773078407950720F079F4A6F50C94E3
:104B100021270EF4E0950B2EBA2FA02D0B01B90121
:104B200090010C01CA01A0011124FF27591B99F023
:104B3000593F50F4503E68F11A16F040A22F232F2F
:104B4000342F4427585FF3CF469537952795A7957F
:104B5000F0405395C9F77EF41F16BA0B620B730B26
:104B6000840BBAF09150A1F0FF0FBB1F661F771F97
:104B7000881FC2F70EC0BA0F621F731F841F48F44C
:104B8000879577956795B795F7959E3F08F0B0CFD5
:104B90009395880F08F09927EE0F979587950895BC
:104BA0000E94B32608F481E008950E94E9250C9440
:104BB000EE260E94E72658F00E94E02640F029F4F5
:104BC0005F3F29F00C94D72651110C9422270C94A6
:104BD000DD260E94FF2668F39923B1F3552391F354
:104BE000951B550BBB27AA2762177307840738F05C
:104BF0009F5F5F4F220F331F441FAA1FA9F335D0B9
:104C00000E2E3AF0E0E832D091505040E695001C6C
:104C1000CAF72BD0FE2F29D0660F771F881FBB1F26
:104C2000261737074807AB07B0E809F0BB0B802D04
:104C3000BF01FF2793585F4F3AF09E3F510578F030
:104C40000C94D7260C9422275F3FE4F3983ED4F3CC
:104C5000869577956795B795F7959F5FC9F7880F04
:104C6000911D9695879597F90895E1E0660F771F56
:104C7000881FBB1F621773078407BA0720F0621BE7
:104C8000730B840BBA0BEE1F88F7E09508950E9412
:104C9000072788F09F5798F0B92F9927B751B0F0A0
:104CA000E1F0660F771F881F991F1AF0BA95C9F7B0
:104CB00014C0B13091F00E942127B1E008950C9406
:104CC0002127672F782F8827B85F39F0B93FCCF3B9
:104CD000869577956795B395D9F73EF4909580952D
:104CE000709561957F4F8F4F9F4F0895E89409C04D
:104CF00097FB3EF490958095709561957F4F8F4F0F
:104D00009F4F9923A9F0F92F96E9BB279395F69524
:104D1000879577956795B795F111F8CFFAF4BB0FA2
:104D200011F460FF1BC06F5F7F4F8F4F9F4F16C006
:104D3000882311F096E911C0772321F09EE8872F90
:104D4000762F05C0662371F096E8862F70E060E04C
:104D50002AF09A95660F771F881FDAF7880F9695C5
:104D6000879597F90895990F0008550FAA0BE0E869
:104D7000FEEF16161706E807F907C0F0121613061D
:104D8000E407F50798F0621B730B840B950B39F45D
:104D90000A2661F0232B242B252B21F408950A26C3
:104DA00009F4A140A6958FEF811D811D089597F903
:104DB0009F6780E870E060E008959FEF80EC0895C1
:104DC00000240A94161617061806090608950024EA
:104DD0000A9412161306140605060895092E039464
:104DE000000C11F4882352F0BB0F40F4BF2B11F4D8
:104DF00060FF04C06F5F7F4F8F4F9F4F089557FD37
:104E00009058440F551F59F05F3F71F04795880F38
:104E100097FB991F61F09F3F79F0879508951216CF
:104E200013061406551FF2CF4695F1DF08C016167B
:104E300017061806991FF1CF86957105610508942C
:104E40000895E894BB2766277727CB0197F9089543
:104E50000E94B32608F48FEF08950E9440270C9417
:104E6000EE260E94E02638F00E94E72620F09523E7
:104E700011F00C94D7260C94DD2611240C942227D3
:104E80000E94FF2670F3959FC1F3950F50E0551FC8
:104E9000629FF001729FBB27F00DB11D639FAA278F
:104EA000F00DB11DAA1F649F6627B00DA11D661FDE
:104EB000829F2227B00DA11D621F739FB00DA11DFF
:104EC000621F839FA00D611D221F749F3327A00DB9
:104ED000611D231F849F600D211D822F762F6A2F55
:104EE00011249F5750409AF0F1F088234AF0EE0FBA
:104EF000FF1FBB1F661F771F881F91505040A9F7E7
:104F00009E3F510580F00C94D7260C9422275F3FDA
:104F1000E4F3983ED4F3869577956795B795F79522
:104F2000E7959F5FC1F7FE2B880F911D969587959A
:104F300097F908950E94B326880B990B08950F9353
:104F40001F93CF93DF938230910510F482E090E0BD
:104F5000E0918A04F0918B0430E020E0B0E0A0E022
:104F6000309799F42115310509F44AC0281B390BF3
:104F700024303105D8F58A819B816115710589F14D
:104F8000FB0193838283FE0111C040815181028124
:104F9000138148175907E0F04817590799F41097FB
:104FA00061F012960C93129713961C933296CF01D0
:104FB000DF91CF911F910F91089500938A04109370
:104FC0008B04F4CF2115310551F04217530738F007
:104FD000A901DB019A01BD01DF01F801C1CFEF0199
:104FE000F9CF90938B0480938A04CDCFFE01E20F1A
:104FF000F31F819391932250310939832883D7CFAE
:105000002091880430918904232B41F420910401DC
:105010003091050130938904209388042091020186
:10502000309103012115310541F42DB73EB7409170
:10503000060150910701241B350BE0918804F09183
:105040008904E217F307A0F42E1B3F0B281739073A
:1050500078F0AC014E5F5F4F2417350748F04E0FD4
:105060005F1F5093890440938804819391939FCF4D
:10507000F0E0E0E09CCFCF93DF930097E9F0FC01F4
:10508000329713821282A0918A04B0918B04ED01B1
:1050900030E020E01097A1F420813181820F931F2E
:1050A00020918804309189042817390709F061C0DC
:1050B000F0938904E0938804DF91CF910895EA0189
:1050C000CE17DF07E8F54A815B819E014115510546
:1050D000B1F7E901FB83EA8349915991C40FD51FC8
:1050E000EC17FD0761F4808191810296840F951F72
:1050F000E90199838883828193819B838A83F0E08D
:10510000E0E012968D919C9113970097B9F52D913F
:105110003C911197CD010296820F931F2091880434
:10512000309189042817390739F6309751F51092D4
:105130008B0410928A04B0938904A0938804BCCF96
:10514000D383C28340815181840F951FC817D9072B
:1051500061F44E5F5F4F88819981480F591F5183D9
:1051600040838A819B81938382832115310509F0D5
:10517000B0CFF0938B04E0938A049ECFFD01DC0155
:10518000C0CF13821282D7CF81E090E0F8940C94C4
:10519000EF28DC0101C06D9341505040E0F70895C5
:1051A000FB01DC018D91019080190110D9F3990B5D
:1051B0000895FB01DC0101900D920020E1F70895B4
:1051C000FB01DC014150504048F001900D9200205D
:1051D000C9F701C01D9241505040E0F7089515E015
:1051E000CCE4D5E004C0FE010E9427252196CD34F1
:0851F000D107C9F7F894FFCFC5
:1051F800010000008C04800000000000F705CA05CB
:1052080009157905C305B005A10500000000CC0803
:105218002C08590819098A0868087C080000000049
:105228007F092C0809157905DB09F30967090000CE
:1052380000004E112C0809150815BB0B7905F3134E
:10524800CB13E713DB135B147905140FBD0E2B0B7F
:10525800740B1413F7127F1220124750524D43005B
:10526800474E524D4300475047474100474E474736
:10527800410048656C6C6F2C20776F726C6421005C
:1052880057616974696E6720666F72204750532EA4
:105298002E2E000D0A00202020003A006E616E00BC
:1052A800696E66006F76660020202D2D2020000094
:00000001FF
