:100000000C94FE010C9426020C9426020C94890A8E
:100010000C94890A0C94890A0C9426020C942602EA
:100020000C9426020C9426020C9426020C942602B0
:100030000C9426020C9426020C9426020C942602A0
:100040000C94E7090C9426020C94570A0C94310A7C
:100050000C9426020C9426020C9426020C94260280
:100060000C9426020C942602AED5808D142001A19A
:10007000C881CFDB40AF475053204C4F5354212110
:10008000210000000000240027002A0000000008D2
:10009000000201000003040700000000000000004F
:1000A000000000000000006F0000000700070014BF
:1000B0007F147F140007041E00231308646236496E
:1000C0005620500000070000001C22410000412281
:1000D0001C0014083E081408083E080800503000B0
:1000E00000080808080800606000002010080402EA
:1000F0003E5149453E00427F400042615149462100
:1001000041454B311814127F1027454545393C4A6B
:1001100049493001710905033649494936064949BB
:10012000291E003636000000563600000814224111
:100130000014141414140041221408020151090679
:100140003E415D494E7E0909097E7F494949363E57
:10015000414141227F4141413E7F494949417F0917
:100160000909013E4149497A7F0808087F00417F1B
:1001700041002040413F017F081422417F40404020
:10018000407F020C027F7F0408107F3E4141413EC8
:100190007F090909063E4151215E7F09192946461A
:1001A0004949493101017F01013F4040403F0F3043
:1001B00040300F3F4030403F63140814630708701D
:1001C000080761514945433C4A49291E0204081069
:1001D0002000417F000004020102044040404040F2
:1001E000000003040020545454787F4844443838B5
:1001F00044444420384444487F3854545418087EBA
:100200000901020C5252523E7F0804047800447DDA
:1002100040002040443D00007F10284400417F40C2
:10022000007C041804787C0804047838444444387A
:100230007C14141408081414187C7C08040408485E
:1002400054545420043F4440203C4040207C1C2017
:1002500040201C3C4030403C44281028440C505066
:10026000503C4464544C44000836414100007F0037
:1002700000414136080004020408047E1111117E79
:100280007F494949337F494949367F01010103E0EC
:10029000514F41FF7F4949494177087F08774149DC
:1002A0004949367F1008047F7C2112097C7F08149D
:1002B000224120413F017F7F020C027F7F08080816
:1002C0007F3E4141413E7F0101017F7F09090906CF
:1002D0003E4141412201017F010147281008071CCE
:1002E000227F221C63140814637F404040FF0708EC
:1002F00008087F7F407F407F7F407F40FF017F482D
:1003000048307F4830007F007F48483022414949CB
:100310003E7F083E413E462919097F2054545478B7
:100320003C4A4A49317C545428007C04040C00E0C7
:10033000544C44FC38545454186C107C106C445485
:100340005428007C2010087C78422412787C1028E5
:10035000440020443C047C7C0810087C7C10101075
:100360007C38444444387C0404047C7C1414140811
:10037000384444440004047C04040C5050503C3085
:1003800048FE483044281028447C40407CC00C1073
:1003900010107C7C407C407C7C407C40FC047C5089
:1003A00050207C5050207C7C5050200028445454D5
:1003B000387C10384438085434147C000000002382
:1003C000002600290000000000250028002B000462
:1003D00004040404040404020202020202030303EC
:1003E00003030301020408102040800102040810E6
:1003F0002001020408102000010BEA1011241FBE86
:10040000CFEFD8E0DEBFCDBF23E0A6E7B1E001C06B
:100410001D92A634B207E1F711E0A0E0B1E0E8E5F3
:10042000F8E202C005900D92A637B107D9F711E0A6
:10043000CDEFD1E004C02197FE010E94C612CC3F4F
:10044000D107C9F70E94830C0C941F140C94000070
:100450008093BB0084E88093BC008091BC0087FF40
:10046000FCCF089594EA9093BC009091BC0097FF54
:10047000FCCF880F0C94280290E0FC01E457FF4F5A
:100480002491FC01ED51FC4F3491FC01E153FC4FF0
:10049000E491EE23C9F0222339F0233001F1A8F4CE
:1004A000213019F1223029F1F0E0EE0FFF1FEB535C
:1004B000FC4FA591B4918FB7F894EC91611126C0CF
:1004C00030953E233C938FBF08952730A9F0283004
:1004D000C9F0243049F7809180008F7D03C080915E
:1004E00080008F7780938000DFCF84B58F7784BDC5
:1004F000DBCF84B58F7DFBCF8091B0008F77809369
:10050000B000D2CF8091B0008F7DF9CF3E2BDACFF3
:10051000CF93DF9390E0FC01ED51FC4F2491815388
:100520009C4FFC0184918823C9F090E0880F991FAB
:10053000FC01EE57FF4FA591B491FC01EB53FC4F2A
:10054000C591D49161110DC09FB7F8948C912095FD
:1005500082238C938881282328839FBFDF91CF91AA
:100560000895623051F49FB7F8943C91822F8095A2
:1005700083238C93E8812E2BEFCF8FB7F894EC91E7
:100580002E2B2C938FBFEACF2FB7F8946091CA011E
:100590007091CB018091CC019091CD012FBF089536
:1005A000AF92BF92CF92DF92EF92FF920F931F9381
:1005B000CF93DF936C017B018B01040F151FEB01BF
:1005C0005E01AE18BF08C017D10759F06991D60176
:1005D000ED91FC910190F081E02DC6010995892BE8
:1005E00079F7C501DF91CF911F910F91FF90EF90A7
:1005F000DF90CF90BF90AF900895FC01538D448D54
:10060000252F30E0842F90E0821B930B541710F0BD
:10061000CF96089501970895FC01918D828D9817CA
:1006200061F0A28DAE0FBF2FB11D5D968C91928DA2
:100630009F5F9F73928F90E008958FEF9FEF0895D3
:10064000FC01918D828D981731F0828DE80FF11D9C
:10065000858D90E008958FEF9FEF0895FC01918DB7
:10066000228D892F90E0805C9F4F821B91098F73B0
:10067000992708958EEC91E00E942E0321E0892BAA
:1006800009F420E0822F089580E090E0892B29F082
:100690000E943A0381110C9400000895FC01A48D7E
:1006A000A80FB92FB11DA35ABF4F2C91848D90E094
:1006B00001968F739927848FA689B7892C93A08977
:1006C000B1898C91837080648C93938D848D981301
:1006D00006C00288F389E02D80818F7D8083089594
:1006E000EF92FF920F931F93CF93DF93EC0181E082
:1006F000888F9B8D8C8D98131AC0E889F989808129
:1007000085FF15C09FB7F894EE89FF896083E8895B
:10071000F98980818370806480839FBF81E090E04D
:10072000DF91CF911F910F91FF90EF900895F62EDA
:100730000B8D10E00F5F1F4F0F731127E02E8C8D74
:100740008E110CC00FB607FCFACFE889F9898081B9
:1007500085FFF5CFCE010E944E03F1CFEB8DEC0F5C
:10076000FD2FF11DE35AFF4FF0829FB7F8940B8FD6
:10077000EA89FB8980818062CFCFCF93DF93EC0140
:10078000888D8823B9F0AA89BB89E889F9898C9179
:1007900085FD03C0808186FD0DC00FB607FCF7CF35
:1007A0008C9185FFF2CF808185FFEDCFCE010E9435
:1007B0004E03E9CFDF91CF910895CF93DF93EC0102
:1007C0008A859B85AC85BD858E839F83A887B987E5
:1007D0000E94C4026A837B838C839D8381E089832A
:1007E0008883DF91CF910895CF93DF93EC018E81C1
:1007F0009F81A885B9858A839B83AC83BD830E9432
:10080000C4026A877B878C879D8781E08983888380
:10081000DF91CF9108952091B8013091B901281747
:10082000390771F49091B6018091B701981741F0A2
:10083000E091B601F0E0EA58FE4F808190E0089523
:100840008FEF9FEF08950895EF92FF920F931F93FC
:10085000CF93DF93DC015C96ED90FC905D97E11403
:10086000F10479F481E090E013969C938E931297B3
:1008700090E080E0DF91CF911F910F91FF90EF907A
:1008800008955196ED91FC91529750968C91509706
:10089000982F90950FB75E962C915E97122F12703D
:1008A00021FD6095F8942081112319F1282B2083D4
:1008B000E7012197F1F728E0462F50E0308160FFF3
:1008C0001AC0382B3083E7012197F1F7BA017595EB
:1008D0006795215089F7112381F0808189238083D6
:1008E0000FBF5C968D919C910197F1F781E090E0AC
:1008F000C1CF2923DCCF3923E5CF9081892BEFCFDE
:100900002091B8013091B9012817390771F480910D
:10091000B7012091B60190E0805C9F4F821B910946
:1009200060E470E00E949012089590E080E00895E5
:100930002091B8013091B90128173907B9F4909185
:10094000B6018091B701981789F0E091B601F0E007
:10095000EA58FE4F80812091B60130E02F5F3F4F73
:100960002F7333272093B60190E008958FEF9FEF08
:10097000089590E080E008957F928F929F92AF92C9
:10098000BF92CF92DF92EF92FF920F931F93CF937C
:10099000DF9300D01F92CDB7DEB78B8380913703F2
:1009A0000E94320280E40E94280260EE762E2B81A3
:1009B000720E272D30E0A901415D5F4F85E0849FD5
:1009C000B001859F700D112421513109829FA00132
:1009D000839F500D1124789EC001112410E000E087
:1009E0003B81305939832B8120582B839B01205622
:1009F0003F4F69019A0120563F4F59019C012056F3
:100A00003F4F790190E080E0053059F03AE5371525
:100A100068F1F701E00FF11F84918A833A81832FF7
:100A200090E020913903222311F080959095209138
:100A30003A03213069F50E9428020F5F1F4F0630EC
:100A4000110501F784E98093BC000F900F900F907F
:100A5000DF91CF911F910F91FF90EF90DF90CF909A
:100A6000BF90AF909F908F907F9008952981203301
:100A700030F4F501E00FF11F34913A83CFCF8B8131
:100A8000803160F6F601E00FF11F24912A83C6CF72
:100A90004C0124E0880C991C2A95E1F788242FE06A
:100AA00092228F709927882999294C01880C991CCA
:100AB000880C991C88299929837393734C01880C9D
:100AC000991C882A992A35E583229322C401880F2C
:100AD000991F882A992A882D0E942802892D0E9410
:100AE0002802882D0E942802892DA5CFFF920F93FE
:100AF0001F93CF93DF938C01F62EC7E3D3E0888159
:100B00000E94320280E00E94280281E20E942802B4
:100B1000802F880F800F880F0E9428028B819801F8
:100B2000280F311D822F880F820F880F81500E945D
:100B3000280282E20E9428028F2D0E9428028B81C7
:100B400081508F0D0E94280284E98093BC000C83A1
:100B5000FD82DF91CF911F910F91FF9008959091A9
:100B60003C0380913A03980F90933C0310923B030F
:100B700080913E03981718F0815080933C03609158
:100B80003C0370E090E080E00C947605FC0101905D
:100B90000020E9F73197AF01481B590BBC018EECDF
:100BA00091E00C94D0028F929F92AF92BF920F93DC
:100BB0001F93CF93DF93CDB7DEB7A1970FB6F8940D
:100BC000DEBF0FBECDBF19A2423008F44AE08E014D
:100BD0000F5D1F4F842E912CB12CA12CA5019401E7
:100BE0000E94A412E62FB901CA01EA30F4F4E05DD4
:100BF000D801EE938D01232B242B252B79F790E040
:100C000080E0109719F0CD010E94C605A1960FB69D
:100C1000F894DEBF0FBECDBFDF91CF911F910F9132
:100C2000BF90AF909F908F900895E95CE1CF2F9295
:100C30003F924F925F926F927F928F929F92AF926C
:100C4000BF92CF92DF92EF92FF920F931F93CF93B9
:100C5000DF93D82FC92F8B010E94061124E630E0C4
:100C600040E050E00E94A41249019B01AC0160E801
:100C700076E988E990E00E9480126B017C01F8011E
:100C800091828082ED2FFC2F2191822F022E000C69
:100C9000990BC0970A97C0F32E3239F51F0180E8EF
:100CA000882E86E9982E88E9A82EB12C9AE0492E44
:100CB000512C612C712CF101C1911F010C2E000CE3
:100CC000DD0BE097CA30D10580F4C501B401A30162
:100CD00092010E94A41249015A01DE010E94CC1225
:100CE000C60ED71EE81EF91EE6CFA5E0B0E0A701AC
:100CF00096010E9466126F5F7F4F8F4F9F4F23E0D8
:100D000030E040E050E00E94A412F80122833383D7
:100D1000448355831682DF91CF911F910F91FF90ED
:100D2000EF90DF90CF90BF90AF909F908F907F908B
:100D30006F905F904F903F902F9008951F93CF93A7
:100D4000DF93EC0118811D3209F42196CE010E9437
:100D500006119B01AC01A4E6B0E00E946612AB0153
:100D6000BC01FE012991822F022E000C990BC09725
:100D70000A97B8F32E3231F58181082E000C990BB9
:100D8000C0978A309105F0F4AAE0A89F9001A99F2E
:100D9000300D1124C901330FAA0BBB0B480F591F8B
:100DA0006A1F7B1F8281082E000C990BC0978A3026
:100DB000910540F4092E000CAA0BBB0B480F591FDC
:100DC0006A1F7B1F1D3239F47095609550954195CF
:100DD0005F4F6F4F7F4FCB01BA01DF91CF911F91D2
:100DE0000895AF92BF92CF92DF92EF92FF920F934E
:100DF0001F93CF93DF930E94C4026B017C0112E02A
:100E0000D1E08BE692E00E948004892B09F4C0C2F5
:100E10008BE692E00E949804C82F8091270390915E
:100E20002803A0912903B0912A030196A11DB11DA9
:100E30008093270390932803A0932903B0932A0358
:100E4000C43209F484C2E0912103C5320CF0BDC064
:100E5000CA3019F0CD3009F087C2EF3008F032C146
:100E6000F0E0E05FFC4F108280910F03882309F4CB
:100E700037C120911003822F022E000C990B3FEBFB
:100E8000320F363008F0ADC0C7978295807F9091C1
:100E90001103292F092E000C330B4FEB490F46305D
:100EA00008F0A7C027533109820F90910E038913D0
:100EB000F6C08091330390913403A0913503B09133
:100EC00036030196A11DB11D809333039093340323
:100ED000A0933503B093360380912203882399F0C1
:100EE00080912B0390912C03A0912D03B0912E03A0
:100EF0000196A11DB11D80932B0390932C03A09309
:100F00002D03B0932E0300911F03002309F47AC030
:100F10000130A1F58CEA92E00E94F4038AEB92E0A2
:100F20000E94F40380912203882341F187E0EAE9DB
:100F3000F2E0ACE8B2E001900D928A95E1F787E02B
:100F4000E1EAF2E0A3E9B2E001900D928A95E1F7BF
:100F50000E94C4026093A8027093A9028093AA021F
:100F60009093AB0200938B0200938A0288EC92E08C
:100F70000E94DD0386ED92E00E94DD03A090250330
:100F8000B0902603A114B10409F49CC0E09125039C
:100F9000F091260366A177A1F50186A197A10E9491
:100FA0000014892B09F08EC0B501C50140960E943E
:100FB00009140E94C402F50160A371A382A393A344
:100FC000D5A3D4A3A2A4B3A4DDCFCA3209F445CFDC
:100FD000CC3209F0C9C180910E038C2780930E0397
:100FE0003CCF2156263018F4875591094ECFC09733
:100FF0004CCF9156963018F42755310955CF2053D0
:10100000310952CF8AEB92E00E94F40380912203CF
:10101000882321F187E0EAE9F2E0ACE8B2E0019050
:101020000D928A95E1F787E0E1EAF2E0A3E9B2E008
:1010300001900D928A95E1F70E94C4026093A80284
:101040007093A9028093AA029093AB02D0938B0273
:10105000D0938A0284EE92E00E94DD038091FC022C
:101060009091FD02A091FE02B091FF028093F802E0
:101070009093F902A093FA02B093FB020E94C4027B
:101080006093F4027093F5028093F6029093F70256
:10109000D093F302D093F20280E093E06DCF809181
:1010A0002F0390913003A0913103B0913203019648
:1010B000A11DB11D80932F0390933003A0933103A2
:1010C000B0933203809120038F5F809320031092AE
:1010D000210381E0CA3209F080E080930F0391CEB2
:1010E00090912003911144C066E271E080E193E0A9
:1010F0000E940014892B41F06CE271E080E193E0E2
:101100000E940014892BF1F4D0931F0380912303D4
:10111000909124039093260380932503A0902503A8
:10112000B0902603A114B10469F260E173E0F50107
:1011300086A197A10E94001497FF41C1F50182A5E5
:1011400093A5E8CF62E371E080E193E00E94001490
:10115000892B41F068E371E080E193E00E94001484
:10116000892B19F410921F03D1CF10931F03CECFF8
:10117000E0911F03E23009F448C0809110038823F6
:1011800009F443C020E2E29FF0011124E92B3197DA
:10119000E932F10508F039C0E053F74F0C94C6125C
:1011A000F9083A09410948094B09790980098D096B
:1011B0009A0905090509050905090509050905092A
:1011C00005090509050905090509050905090509AF
:1011D000050905090509050905090509050905099F
:1011E000F90834093A09410948094B0952095F09CC
:1011F0006C0980E193E00E949E066093C0027093A8
:10120000C1028093C2029093C302A0902503B090C4
:10121000260300912003A114B10409F453CFE091F7
:101220002503F091260366A177A1F50186A197A178
:101230000E940014892B09F045CFF50120A531A5A6
:10124000802F90E0821793070CF43CCF28173907C2
:1012500039F440E150E060E173E0C5010E941014F0
:10126000F501A2A4B3A4D5CF91E0813409F445C01F
:1012700090E043C06AE972E080E193E00E941706C3
:10128000C4CF91E0833509F090E09093A002BDCFE8
:1012900061EA72E0F1CF91E0873509F090E0909338
:1012A000A702B3CF80E193E00E949E066093D20232
:1012B0007093D3028093D4029093D502A6CF80E19D
:1012C00093E00E949E066093E0027093E102809397
:1012D000E2029093E30299CF80E193E00E9406112D
:1012E0006093B2027093B3028093B4029093B502FC
:1012F0008CCF91E081330CF4BBCF9093220385CF48
:1013000080E193E00E9406116093FC027093FD025D
:101310008093FE029093FF0278CF80E193E00E94D9
:101320009E0660930A0370930B0380930C039093C3
:101330000D036BCF80E193E00E949E066093EE0266
:101340007093EF028093F0029093F1025ECF1092BF
:1013500021031092200310920E0310931F0310928A
:101360000F03109222034DCDEE3040F481E08E0F3A
:1013700080932103F0E0E05FFC4FC08380910F0376
:1013800081113FCD80910E03C827C0930E0339CD44
:101390000E94C4026C197D098E099F09683E734042
:1013A0008105910508F42DCDDF91CF911F910F910B
:1013B000FF90EF90DF90CF90BF90AF900895892B72
:1013C00009F480CE10922603109225037BCE1F9243
:1013D0000F920FB60F9211242F933F938F939F93E9
:1013E000AF93BF938091CA019091CB01A091CC01A2
:1013F000B091CD013091C90123E0230F2D3758F56D
:101400000196A11DB11D2093C9018093CA0190933B
:10141000CB01A093CC01B093CD018091C5019091F7
:10142000C601A091C701B091C8010196A11DB11DCF
:101430008093C5019093C601A093C701B093C801E2
:10144000BF91AF919F918F913F912F910F900FBEC0
:101450000F901F90189526E8230F0296A11DB11D2D
:10146000D2CF1F920F920FB60F9211242F933F935A
:101470004F935F936F937F938F939F93AF93BF939C
:10148000EF93FF938EEC91E00E944E03FF91EF915A
:10149000BF91AF919F918F917F916F915F914F918C
:1014A0003F912F910F900FBE0F901F9018951F9294
:1014B0000F920FB60F9211242F938F939F93EF9358
:1014C000FF93E091DE01F091DF018081E091E40182
:1014D000F091E50182FD1BC090818091E7018F5F53
:1014E0008F732091E801821741F0E091E701F0E06D
:1014F000E253FE4F958F8093E701FF91EF919F910B
:101500008F912F910F900FBE0F901F901895808193
:10151000F4CF1F920F920FB60F9211242F933F9387
:101520004F935F936F937F938F939F93AF93BF93EB
:10153000EF93FF93E091B801F091B901309749F032
:10154000A685B7858585968D91FF14C09C918923CA
:10155000A1F4FF91EF91BF91AF919F918F917F91F6
:101560006F915F914F913F912F910F900FBE0F9010
:101570001F9018959C91892361F7A389B4899C9148
:101580008589809589238C93868997890197F1F7BE
:10159000608D718DA685B785558538E020E0CB013B
:1015A0000197F1F7822F90E095958795282F4C9120
:1015B000452309F02068315091F7868D81FD2095F3
:1015C0008091B70190E001968F7399273091B60111
:1015D000381799F0A091B701B0E0AA58BE4F2C93EC
:1015E0008093B701828D938D0197F1F7A389B48918
:1015F0008C919589892B8C93ACCF868D8160868F59
:10160000F1CF1092D1011092D00188EE93E0A0E0CA
:10161000B0E08093D2019093D301A093D401B09312
:10162000D50126E031E03093CF012093CE0125ECA7
:1016300030E03093DB012093DA0124EC30E030938A
:10164000DD012093DC0120EC30E03093DF012093BA
:10165000DE0121EC30E03093E1012093E00122EC47
:1016600030E03093E3012093E20126EC30E0309348
:10167000E5012093E4011092E7011092E801109235
:10168000E9011092EA011092390361E060933A0394
:1016900010923B0310923C0328E020933E031092EB
:1016A00045032CE32093370310928A0210928B0299
:1016B00010928D0210928C0210928E0210928F0264
:1016C0001092900210929102109292021092940243
:1016D0001092930210929502109296021092970225
:1016E000109298021092990210929B0210929A0204
:1016F00010929C0210929D0210929E0210929F02E4
:101700001092A0021092A2021092A1021092A302C3
:101710001092A4021092A5021092A6021092A702A3
:101720001092AC021092AD021092AE021092AF0273
:101730001092B0021092B1021092BA021092BB0243
:101740001092BC021092BD021092BE021092BF0213
:101750001092C8021092C9021092CE021092CF02CB
:101760001092D0021092D1021092D6021092D7029B
:101770001092DC021092DD021092DE021092DF0263
:101780001092E4021092E5021092EA021092EB022B
:101790001092EC021092ED021092F2021092F302FB
:1017A0001092F8021092F9021092FA021092FB02C3
:1017B0001092000310920103109206031092070387
:1017C000109208031092090310920E0310920F0357
:1017D00022E020931F031092200310922103109205
:1017E00022031092240310922303109226031092D6
:1017F00025031092270310922803109229031092B8
:101800002A0310922B0310922C0310922D03109296
:101810002E0310922F031092300310923103109276
:101820003203109233031092340310923503109256
:1018300036031092100310926E0210926D02809384
:101840006F0290937002A0937102B093720288E1CC
:1018500091E090936C0280936B021092820210923E
:1018600081021092840210928302109286021092DA
:1018700085021092880210928702809189028E7FE1
:101880008D7F8093890286958170682783E00E940E
:101890003C0261E083E00E948802E6EEF3E0E4911E
:1018A000E0937B02E2EDF3E0E491F0E0EE0FFF1F46
:1018B000EB53FC4F8591949190937D0280937C0231
:1018C00060E082E00E9488028091890281FD04C06C
:1018D00061E082E00E943C0282E080937702E5EEC4
:1018E000F3E0E491E0937802E1EDF3E0E491F0E0DD
:1018F000EE0FFF1FE554FC4F8591949190937A026F
:10190000809379020895CF93DF93CDB7DEB72997FF
:101910000FB6F894DEBF0FBECDBF789484B5826059
:1019200084BD84B5816084BD85B5826085BD85B583
:10193000816085BD80916E00816080936E00109201
:10194000810080918100826080938100809181007C
:10195000816080938100809180008160809380000D
:101960008091B10084608093B1008091B00081606B
:101970008093B00080917A00846080937A00809197
:101980007A00826080937A0080917A0081608093EF
:101990007A0080917A00806880937A001092C1006A
:1019A00061E085E00E94880260E085E00E943C02E0
:1019B00062E082E10E94880262E083E10E94880284
:1019C00088E48093B8001092B90080EB8093B8004F
:1019D000809137030E94320280E00E94280228E6AC
:1019E00030E038872F8306E710E0EF81F885849197
:1019F0000E9428022F8138852F5F3F4F38872F8321
:101A00000217130791F78AED0E94280282E10E94D3
:101A1000280288EA0E9428028FE30E94280234E903
:101A20003093BC0081E08093380388E080933E03CC
:101A300070E060E090E080E00E94760580913703DE
:101A40000E94320280E00E94280281E20E94280265
:101A500080E00E9428028FE70E94280282E20E9412
:101A6000280280E00E94280280913E0381500E945B
:101A7000280284E98093BC008091380320E2E22EA2
:101A8000F12C811103C090E1E92EF12C18861F8200
:101A900084E9D82E809137030E94320280E40E94AC
:101AA000280200E210E080E00E94280201501109A3
:101AB000D1F7D092BC00EF81F8853196F887EF839B
:101AC000EE16FF0639F770E060E090E080E00E94DB
:101AD000760582E080933A0360913C0370E0809148
:101AE0003B0390E00E9476051A822A81E22FF0E003
:101AF000E25CFE4F30813983332309F450C03A3021
:101B000031F40E94AF059A819F5F9A83EECF89815D
:101B100087FD0AC00E94BC0480913B0390913A0368
:101B2000890F80933B0315C080913D03813D49F4AB
:101B3000998185EB913959F03981303C50F4832FEC
:101B4000E9CF803DF9F4E981E138B1F785E90E94F8
:101B5000BC04898180933D0380913B03843148F02C
:101B600090913C0310923B0380913A03890F80933C
:101B70003C0360913C0370E080913B0390E00E9445
:101B80007605C1CF823E21F4F981F038A9F6E1CF84
:101B9000803891F629818DE2233971F6BBCF0E94FE
:101BA000AF05E091DE01F091DF0182E08083E091FA
:101BB000DA01F091DB011082E091DC01F091DD01AE
:101BC00080E180831092E601E091E201F091E3016F
:101BD00086E08083E091E001F091E1018081806105
:101BE0008083E091E001F091E10180818860808351
:101BF000E091E001F091E101808180688083E091D3
:101C0000E001F091E10180818F7D80831092860256
:101C10001092850210928402109283021092820226
:101C2000109281028DE991E090938802809387025F
:101C300090917702963108F047C02DEB30E0309359
:101C40008202209381022BE931E0309384022093B9
:101C500083022CE231E030938602209385022091AA
:101C6000680084E0983048F031E09E3008F430E0BD
:101C700081E001C0880F3A95EAF7822B80936800D3
:101C80002DE630E0983050F02BE630E09E3030F01A
:101C90002CE630E0963110F030E020E030937F0207
:101CA00020937E02292F30E0983008F0FCC081E0BC
:101CB00001C0880F9A95EAF780938002809187028D
:101CC000909188020197F1F78091850290918602A8
:101CD000892B49F1E091B801F091B90122E0EB368E
:101CE000F20709F1309739F0A389B4899C9185896D
:101CF000809589238C93809189028E7F80938902BD
:101D00001092B7011092B6018BE692E09093B90160
:101D10008093B801E0917E02F0917F0280819091E2
:101D20008002892B80830E94F1061092AD0260919F
:101D3000AE027091AF028091B0029091B10220E1A9
:101D400037E240E050E00E94A412211108C087E46D
:101D500091E00E94C6058AE591E00E94C6050E94B6
:101D6000F1068AE591E00E94C60503E512E01092B3
:101D7000AD028090AE029090AF02A090B002B09001
:101D8000B102C501B40120E137E240E050E00E9419
:101D9000A41269017A012093C201C501B40124E6AD
:101DA00030E040E050E00E94A4126983CA01B9010A
:101DB00024E630E040E050E00E94A412762E272E68
:101DC0008B839C836093C3013981325E3F83309360
:101DD000C4011092BB028090BC029090BD02A09002
:101DE000BE02B090BF02C501B40120E432E44FE06E
:101DF00050E00E94A4122D5F29832093C001C501E9
:101E0000B40120E137E240E050E00E94A412CA0190
:101E1000B90124E630E040E050E00E94A412698756
:101E2000372E2C016093BF01C501B40124E630E0D8
:101E300040E050E00E94A412CA01B90124E630E05B
:101E400040E050E00E94A4126A83672E8D839E8337
:101E50006093BE01809100019091010101969093E1
:101E6000010180930001CC9799F50E94C4024B01B7
:101E70005C010E94C402681979098A099B096E31C4
:101E8000710581059105E0F461E085E00E943C0266
:101E9000C8010197F1F760E085E00E943C02C801AB
:101EA0000197F1F7E6CF9E3040F42850310981E0E8
:101EB00001C0880F2A95EAF7FFCE2E503109F7CFDF
:101EC00060E085E00E943C02109201011092000146
:101ED000C701B6017727882799274AE00E94D305D2
:101EE00088E591E00E94C6054AE0672D722D8B813E
:101EF0009C810E94D30588E591E00E94C6058F81F0
:101F0000682F70E06E54784F072E000C880B990BE9
:101F10004AE00E94D3058DE591E00E94C605E98163
:101F20006E2F70E090E080E04AE00E94D30581E6E9
:101F300091E00E94C6054AE06985732DC2010E94A6
:101F4000D30581E691E00E94C6054AE06A81762DBC
:101F50008D819E810E94D3058AE591E00E94C6058D
:101F60001092C9026091CE027091CF028091D0028E
:101F70009091D1020E94491126E53EE04DEE5FE3CB
:101F80000E94A81120E030E048EC52E40E94551372
:101F90006B017C012091BA013091BB014091BC01E1
:101FA0005091BD010E94E8124B015C0120E030E03D
:101FB000A9010E94F61318160CF046C02DEC3CEC5B
:101FC0004CE45EE3C501B4010E94F61318160CF44C
:101FD00045C00E94F1060E94C40269387341810520
:101FE000910528F18091270390912803A09129035E
:101FF000B0912A030A97A105B105C8F426E730E09D
:1020000038872F83EF81F8856491662361F08EEC29
:1020100091E00E9470032F8138852F5F3F4F3887F2
:102020002F83892B79F78AE591E00E94C60580E02D
:1020300090E0892B09F49BCE0E943A03882309F48F
:1020400096CE0E94000093CE2DEC3CEC4CE45EEB6F
:10205000C501B4010E94421187FFBBCF1092F30269
:102060006091F8027091F9028091FA029091FB025E
:102070004AE00E94D3058DE591E00E94C605A701C4
:102080009601C701B6010E94FB13882389F083E6FD
:1020900091E00E94C6058FE691E00E94C605C092BD
:1020A000BA01D092BB01E092BC01F092BD0191CF88
:1020B00046015701E894B7F82FEF3FEF4FE75FE78E
:1020C000C501B4010E94FB1381110DC02FEF3FEF3A
:1020D0004FE75FE7C501B4010E94421118161CF4D6
:1020E00087E691E0D6CF2FEF3FEF4FE75FE4C701E0
:1020F000B6010E94F61318161CF48BE691E0C9CFC6
:102100002FEF3FEF4FE75FECC701B6010E9442118E
:1021100087FDF3CF20E030E0A901C701B6010E949E
:10212000421187FF54C06DE28EEC91E00E94700373
:10213000C701B60190582AE037ED43EA5BE30E94FD
:10214000E9122B013C010E94C7134B015C010E9464
:1021500047119B01AC01C301B2010E94E8122B019F
:102160003C014AE0C501B4010E94D3056EE28EEC49
:1021700091E00E94700320E030E040E251E4C301AE
:10218000B2010E94A8112B013C010E94C7134B0110
:10219000B12CA12C4AE0C501B4010E94D305C501B0
:1021A000B4010E9447119B01AC01C301B2010E941E
:1021B000E81220E030E040E251E40E94A8110E94C1
:1021C000C71390E080E04AE00E94D30564CFC701C6
:1021D000B601B1CF88E191E090936C0280936B02DD
:1021E0008091B8019091B9018B56924071F4E091C1
:1021F0007E02F0917F0290818091800280958923F8
:1022000080831092B9011092B80108951F93FC01C8
:1022100099278827BC01E89411911032E9F319300D
:1022200010F01E30C8F31B3251F01D3249F468948F
:1022300006C00E942D11610F711D811D911D11910C
:1022400010531A30B0F33EF49095809570956195D7
:102250007F4F8F4F9F4F1F910895592F482F372F32
:10226000262F660F771F881F991F660F771F881FFD
:10227000991F620F731F841F951F660F771F881F9A
:10228000991F08950E94841108F481E00895E8944C
:1022900009C097FB3EF490958095709561957F4FAE
:1022A0008F4F9F4F9923A9F0F92F96E9BB2793955C
:1022B000F695879577956795B795F111F8CFFAF46C
:1022C000BB0F11F460FF1BC06F5F7F4F8F4F9F4F9D
:1022D00016C0882311F096E911C0772321F09EE8FB
:1022E000872F762F05C0662371F096E8862F70E061
:1022F00060E02AF09A95660F771F881FDAF7880F3B
:102300009695879597F90895990F0008550FAA0B90
:10231000E0E8FEEF16161706E807F907C0F01216F8
:102320001306E407F50798F0621B730B840B950BFB
:1023300039F40A2661F0232B242B252B21F4089550
:102340000A2609F4A140A6958FEF811D811D0895ED
:102350000E94BB110C942C120E941E1238F00E9495
:10236000251220F0952311F00C9415120C941B12D9
:1023700011240C9460120E943D1270F3959FC1F3DA
:10238000950F50E0551F629FF001729FBB27F00D23
:10239000B11D639FAA27F00DB11DAA1F649F662778
:1023A000B00DA11D661F829F2227B00DA11D621FC7
:1023B000739FB00DA11D621F839FA00D611D221F81
:1023C000749F3327A00D611D231F849F600D211D65
:1023D000822F762F6A2F11249F5750409AF0F1F0E8
:1023E00088234AF0EE0FFF1FBB1F661F771F881F51
:1023F00091505040A9F79E3F510580F00C94151262
:102400000C9460125F3FE4F3983ED4F38695779581
:102410006795B795F795E7959F5FC1F7FE2B880FF6
:10242000911D9695879597F9089597F99F6780E88C
:1024300070E060E008959FEF80EC089500240A9416
:102440001616170618060906089500240A9412168F
:102450001306140605060895092E0394000C11F4C2
:10246000882352F0BB0F40F4BF2B11F460FF04C06F
:102470006F5F7F4F8F4F9F4F089557FD9058440FC8
:10248000551F59F05F3F71F04795880F97FB991FD3
:1024900061F09F3F79F08795089512161306140690
:1024A000551FF2CF4695F1DF08C01616170618061D
:1024B000991FF1CF86957105610508940895E894F8
:1024C000BB2766277727CB0197F908950E947112E1
:1024D000A59F900DB49F900DA49F800D911D112478
:1024E0000895A29FB001B39FC001A39F700D811DED
:1024F0001124911DB29F700D811D1124911D08950D
:10250000DB018F939F930E946612BF91AF91A29FB0
:10251000800D911DA39F900DB29F900D11240895E1
:1025200097FB072E16F4009407D077FD09D00E9480
:10253000D41207FC05D03EF4909581959F4F0895E5
:10254000709561957F4F0895A1E21A2EAA1BBB1BBF
:10255000FD010DC0AA1FBB1FEE1FFF1FA217B3076F
:10256000E407F50720F0A21BB30BE40BF50B661F85
:10257000771F881F991F1A9469F760957095809549
:1025800090959B01AC01BD01CF010895EE0FFF1F97
:102590000590F491E02D0994B7FF0C9466120E9407
:1025A0006612821B930B0895AA1BBB1B51E107C047
:1025B000AA1FBB1FA617B70710F0A61BB70B881FD3
:1025C000991F5A95A9F780959095BC01CD01089562
:1025D0005058BB27AA270E9400130C942C120E946B
:1025E0001E1238F00E94251220F039F49F3F19F492
:1025F00026F40C941B120EF4E095E7FB0C941512D4
:10260000E92F0E943D1258F3BA1762077307840737
:10261000950720F079F4A6F50C945F120EF4E0957E
:102620000B2EBA2FA02D0B01B90190010C01CA018C
:10263000A0011124FF27591B99F0593F50F4503E37
:1026400068F11A16F040A22F232F342F4427585F29
:10265000F3CF469537952795A795F0405395C9F741
:102660007EF41F16BA0B620B730B840BBAF09150F9
:10267000A1F0FF0FBB1F661F771F881FC2F70EC098
:10268000BA0F621F731F841F48F48795779567956B
:10269000B795F7959E3F08F0B0CF9395880F08F057
:1026A0009927EE0F9795879508950E9469130C94CA
:1026B0002C120E94251258F00E941E1240F029F49C
:1026C0005F3F29F00C94151251110C9460120C9478
:1026D0001B120E943D1268F39923B1F3552391F325
:1026E000951B550BBB27AA2762177307840738F081
:1026F0009F5F5F4F220F331F441FAA1FA9F335D0DE
:102700000E2E3AF0E0E832D091505040E695001C91
:10271000CAF72BD0FE2F29D0660F771F881FBB1F4B
:10272000261737074807AB07B0E809F0BB0B802D29
:10273000BF01FF2793585F4F3AF09E3F510578F055
:102740000C9415120C9460125F3FE4F3983ED4F39E
:10275000869577956795B795F7959F5FC9F7880F29
:10276000911D9695879597F90895E1E0660F771F7B
:10277000881FBB1F621773078407BA0720F0621B0C
:10278000730B840BBA0BEE1F88F7E09508950E9437
:10279000451288F09F5798F0B92F9927B751B0F09C
:1027A000E1F0660F771F881F991F1AF0BA95C9F7D5
:1027B00014C0B13091F00E945F12B1E008950C9402
:1027C0005F12672F782F8827B85F39F0B93FCCF3B5
:1027D000869577956795B395D9F73EF49095809552
:1027E000709561957F4F8F4F9F4F08950E94841180
:1027F00008F48FEF08950E948411880B990B0895B7
:10280000FB01DC018D91019080190110D9F3990B26
:102810000895FB01DC0101900D920020E1F708957D
:10282000FB01DC014150504048F001900D92002026
:10283000C9F701C01D9241505040E0F7089511E0E2
:10284000CDEFD1E004C0FE010E94C6122196CE3F1A
:08285000D107C9F7F894FFCF8E
:102858000100000000007003D002FD02BD032E033A
:102868000C032003000000002404D002B904230450
:10287800800498040B044750524D4300474E524D74
:102888004300475047474100474E474741004845A6
:102898004C4C4F2121210057616974696E6720668D
:1028A8006F72204750532E2E2E000D0A0020202034
:1028B800003A006E616E00696E66006F76660020F1
:0628C800202D2D20200050
:00000001FF
