:100000000C9417030C943F030C943F030C943F0390
:100010000C943F030C943F030C943F030C943F0358
:100020000C943F030C943F030C943F030C943F0348
:100030000C943F030C943F030C943F030C943F0338
:100040000C94220D0C943F030C943F030C943F033B
:100050000C943F030C943F030C943F030C943F0318
:100060000C943F030C943F0304E010021C0712376A
:1000700032292D29252B3900010310E110031D071A
:10008000062E2C292D2E2E373F0000021013800A39
:10009000298064022A040000007F2B040000009FD6
:1000A0000F0180961180FFB103012C2DB203012CAA
:1000B0002DB306012C2D012C2DB40107C003A20283
:1000C00084C101C5C2020A00C3028A2AC4028AEEA0
:1000D000C5010E20003601C83A01050000000800E5
:1000E00002010000030407000000000000000000FF
:1000F000000000003E5B4F5B3E3E6B4F6B3E1C3E84
:100100007C3E1C183C7E3C181C577D571C1C5E7F97
:100110005E1C00183C1800FFE7C3E7FF0018241816
:1001200000FFE7DBE7FF30483A060E26297929264B
:10013000407F050507407F05253F5A3CE73C5A7F35
:100140003E1C1C08081C1C3E7F14227F22145F5F8B
:10015000005F5F06097F017F006689956A606060C5
:10016000606094A2FFA29408047E040810207E2000
:100170001008082A1C08081C2A08081E1010101055
:100180000C1E0C1E0C30383E3830060E3E0E06009B
:100190000000000000005F00000007000700147F5F
:1001A000147F14242A7F2A122313086462364956C6
:1001B00020500008070300001C2241000041221CBF
:1001C000002A1C7F1C2A08083E08080080703000A6
:1001D0000808080808000060600020100804023EBB
:1001E0005149453E00427F400072494949462141FC
:1001F000494D331814127F1027454545393C4A496B
:1002000049314121110907364949493646494929A9
:100210001E000014000000403400000008142241B9
:100220001414141414004122140802015909063E42
:10023000415D594E7C1211127C7F494949363E413D
:100240004141227F4141413E7F494949417F09095E
:1002500009013E414151737F0808087F00417F41F9
:10026000002040413F017F081422417F4040404030
:100270007F021C027F7F0408107F3E4141413E7F88
:10028000090909063E4151215E7F0919294626497F
:1002900049493203017F01033F4040403F1F204056
:1002A000201F3F4038403F63140814630304780460
:1002B000036159494D43007F414141020408102028
:1002C000004141417F04020102044040404040009F
:1002D0000307080020545478407F284444383844A9
:1002E000444428384444287F385454541800087E25
:1002F000090218A4A49C787F0804047800447D4077
:10030000002040403D007F1028440000417F400015
:100310007C047804787C080404783844444438FC2D
:100320001824241818242418FC7C080404084854B1
:1003300054542404043F44243C4040207C1C20406E
:10034000201C3C4030403C44281028444C90909065
:100350007C4464544C44000836410000007700009F
:10036000004136080002010204023C2623263C1EFE
:10037000A1A161123A4040207A3854545559215570
:10038000557941225454784221555478402054558F
:1003900079400C1E527212395555555939545454DE
:1003A0005939555454580000457C410002457D425E
:1003B0000001457C407D1211127DF0282528F07C3B
:1003C000545545002054547C547C0A097F493249D5
:1003D0004949323A4444443A324A4848303A414121
:1003E000217A3A42402078009DA0A07D3D424242C1
:1003F0003D3D4040403D3C24FF2424487E49436627
:100400002B2FFC2F2BFF0929F620C0887E09032003
:10041000545479410000447D413048484A323840C4
:1004200040227A007A0A0A727D0D19317D26292927
:100430002F28262929292630484D40203808080829
:100440000808080808382F10C8ACBA2F102834FA4A
:1004500000007B000008142A142222142A140855D4
:1004600000550055AA55AA55AAFF55FF55FF000093
:1004700000FF00101010FF00141414FF001010FFF4
:1004800000FF1010F010F0141414FC001414F70006
:10049000FF0000FF00FF1414F404FC141417101FD5
:1004A00010101F101F1414141F00101010F0000063
:1004B00000001F101010101F10101010F01000007E
:1004C00000FF101010101010101010FF100000008E
:1004D000FF140000FF00FF00001F10170000FC04C5
:1004E000F414141710171414F404F40000FF00F7A8
:1004F00014141414141414F700F71414141714100B
:10050000101F101F141414F4141010F010F0000039
:100510001F101F0000001F14000000FC140000F05A
:1005200010F01010FF10FF141414FF141010101FFF
:1005300000000000F010FFFFFFFFFFF0F0F0F0F010
:10054000FFFFFF0000000000FFFF0F0F0F0F0F382D
:1005500044443844FC4A4A4A347E02020606027E7B
:10056000027E0263554941633844443C04407E2086
:100570001E2006027E020299A5E7A5991C2A492A97
:100580001C4C7201724C304A4D4D30304878483026
:10059000BC625A463D3E494949007E0101017E2A1E
:1005A0002A2A2A2A44445F444440514A4440404451
:1005B0004A51400000FF0103E080FF000008086B83
:1005C0006B083612362436060F090F06000018187D
:1005D0000000001010003040FF0101001F01011E4B
:1005E00000191D1712003C3C3C3C000000000000BC
:1005F000000000250028002B000000000024002738
:10060000002A000404040404040404020202020296
:1006100002030303030303010204081020408001C6
:100620000204081020010204081020006C0D11249F
:100630001FBECFEFD8E0DEBFCDBF12E0A0E0B1E03B
:10064000E4E9FFE102C005900D92AA39B107D9F79C
:1006500022E0AAE9B2E001C01D92A73EB207E1F78D
:1006600013E0C7E1D3E004C02197FE010E94BD0F53
:10067000C631D107C9F70E94C70D0C94C80F0C945E
:10068000000090E0FC01E95EF94F24918D5F994FE5
:10069000FC018491882399F090E0880F991FFC0158
:1006A000E750FA4FA591B491FC01E151FA4F8591C1
:1006B00094918FB7F894EC91E22BEC938FBF08954F
:1006C0000895FC016370668B848195812681378152
:1006D000613039F0633029F0918780873387228732
:1006E0000895318720879387828708952F923F92BC
:1006F0004F925F926F927F928F929F92AF92BF9232
:10070000CF92DF92EF92FF920F931F93CF93DF93DD
:10071000CDB7DEB76A970FB6F894DEBF0FBECDBF78
:100720009A8F898F7A8369834A01D22E18870F8323
:100730003701BC2CDC0159962D913C915A9721151B
:10074000310509F015C118968D919C91199768177C
:1007500079070CF0D7C11A968D919C9148175907CB
:100760000CF0D0C14C2C512CB6E0CB9E600D711D0D
:1007700011247C876B87161617060CF0C3C1EA2D6F
:10078000F0E0FA87E98793E0EE0FFF1F9A95E1F713
:10079000F88BEF87CF01840F951F181619060CF000
:1007A000B1C1A98DBA8D58968C91811104C0BFEA50
:1007B000BD1508F4D394A98DBA8DED91FC911197D4
:1007C0000284F385E02DCD010995B5E0DB9EC001E3
:1007D0001124E981FA81FC83EB83312C212C9C01CB
:1007E00021513F4F388F2F8B4A2D50E05E8B4D8B20
:1007F000EF89F88DE20DF31D44919E828D82D12CFC
:10080000C12C69817A81620D731D7A8B698B842F6B
:1008100090E09C8B8B8BE98DFA8DA081B18140FF9C
:1008200082C0F1E0BF126FC0AF126DC01C96ED9197
:10083000FC912F813885A4014C0D5D1D69897A8951
:10084000898D9A8D0995EB89FC89F595E7954E2F51
:100850005FEFC51AD50A6D817E818D899E89680FEB
:10086000791F7E836D8398E0C916D10481F6AFEFBE
:100870002A1A3A0AEB81FC81E40DF51DFC83EB8317
:10088000F5E02F16310409F0B3CF2F8138852615F6
:100890003705B9F0A98DBA8DED91FC91B1E0BB128D
:1008A00057C0AB1255C069817A816B5F7F4F00885A
:1008B000F189E02D830128E030E0A401898D9A8D33
:1008C0000995A98DBA8DED91FC9111970688F7894C
:1008D000E02DCD016A960FB6F894DEBF0FBECDBFF6
:1008E000DF91CF911F910F91FF90EF90DF90CF900C
:1008F000BF90AF909F908F907F906F905F904F9040
:100900003F902F9009941E96ED91FC91EF80F88412
:1009100009851A8592014D815E816B817C81898D6B
:100920009A8D099590CF2F8138852615370509F4C2
:100930008ACF31E0B31207C0A31205C01C96ED9117
:10094000FC91930178CF1E96ED91FC917301E0CF5D
:100950006B857C85641975090684F785E02D730124
:100960000F8518899201A401898D9A8D0995A9CFC7
:10097000F90134969491329745915491D91AB7E080
:10098000DB9E400D511D1124F901259134913C8BC2
:100990002B8BFA0125903490FA013296749031969F
:1009A0003491398B329664903196449041E04C15E5
:1009B00018F04A1508F07FC0662D062C000C770B46
:1009C0007C836B83842D042C000C990B9E838D8378
:1009D000A98DBA8DED91FC9111970284F385E02DDC
:1009E000CD010995512CD12CC12CEA2DF0E0FA87CC
:1009F000E9872B2D30E03C872B87A401440D511D46
:100A000047FC5A95588F4F8B69817A81660D711D0D
:100A100067FC7A957E876D877989C71608F051CF74
:100A20002C2D30E04D815E81420F531FA985BA8580
:100A30004A9FC0014B9F900D5A9F900D1124FC01BD
:100A4000E80DF91DF88BEF87852D612C4F89588DA6
:100A5000420F531F5E8B4D8B671408F050C0442427
:100A60004394480E877041F4C1010196EB89FC89DB
:100A7000E20DF31DD4901C01D7FE19C0A98DBA8DCB
:100A8000ED91FC91662D70E0B1E0BB1219C0AB1284
:100A900017C02D853E85620F731F0484F585E02DF8
:100AA0002F8138854D895E89898D9A8D0995DD0C58
:100AB0006394842DD1CF1E821D821C821B8288CF1D
:100AC0004B815C81640F751FAB85BC856A9FC0013B
:100AD0006B9F900D7A9F900D112469817A81680F28
:100AE000791F0684F785E02DEF80F88409851A8543
:100AF0009D014F855889898D9A8D0995D8CF570CBE
:100B0000C3948ACF6A960FB6F894DEBF0FBECDBFEE
:100B1000DF91CF911F910F91FF90EF90DF90CF90D9
:100B2000BF90AF909F908F907F906F905F904F900D
:100B30003F902F9008958F929F92AF92CF92EF9215
:100B4000FF920F931F93CF93DF93EC01262F898D94
:100B50009A8D009709F051C06A30D1F41D861C8629
:100B60008D8948E0849F900111248E859F85820F96
:100B7000931F9F878E8781E090E0DF91CF911F9137
:100B80000F91FF90EF90CF90AF909F908F9008952E
:100B90006D3089F3CC88AD888F898823C1F08C852E
:100BA0009D8536E0C39E800D911D11244885598591
:100BB0004817590764F44E855F851D861C8638E00A
:100BC000A39EC0011124840F951F9F878E87EA88FA
:100BD000FB88088919894E855F856C857D85CE01E6
:100BE0000E9476032C898C859D8546E0249F800D8C
:100BF000911D11249D878C87BECF6A3069F41D86B4
:100C00001C86FC013696E4912D898E859F85E29F96
:100C1000800D911D1124ADCF6D3009F4ACCFFC01D6
:100C200034963491631708F4A6CF3196E491E61711
:100C300008F4A1CFFC01329685909490462F431B77
:100C4000342F47E0349F800C911C1124F40132961C
:100C500034913196E4913323A9F1EE2399F1CC88B4
:100C6000F4013596E491AD884F89442301F10E2EAD
:100C7000000CFF0BE30FF11DCE9EA001CF9E500D87
:100C800011246C857D85460F571F6885798564170B
:100C900075076CF44E855F851D861C86FC013696B3
:100CA000E491AE9E400D511D11245F874E87EA8866
:100CB000FB88088919894E855F856C857D85CE0105
:100CC0000E947603F4013496E4912C898C859D85ED
:100CD000E29F800D911D11248DCF6F927F928F9294
:100CE0009F92AF92BF92CF92DF92EF92FF920F93BB
:100CF0001F93CF93DF93EC016B015A013901480137
:100D0000E881F9810284F385E02D0995E881F98174
:100D10000288F389E02D87019301A501B601CE0178
:100D20000995A501480D591D41505109E881F981E6
:100D30000288F389E02D9301B601CE010995E8817F
:100D4000F9810088F189E02D9401A501B601CE0159
:100D50000995C60CD71CB60161507109E881F9816B
:100D60000088F189E02D9401A501CE010995E88163
:100D7000F9810688F789E02DCE01DF91CF911F918F
:100D80000F91FF90EF90DF90CF90BF90AF909F902A
:100D90008F907F906F9009946F927F928F929F9225
:100DA000AF92BF92CF92DF92EF92FF920F931F9379
:100DB000CF93DF935C01EB016A01490138018701A0
:100DC000DC01ED91FC916217730719F56416750645
:100DD0002CF0962D872D3A01C92ED82E9601261972
:100DE00037092F5F3F4F048CF58DE02DA301BE0125
:100DF000C5010995DF91CF911F910F91FF90EF9061
:100E0000DF90CF90BF90AF909F908F907F906F902A
:100E100008954615570591F42617370724F0892DB4
:100E20004B01C22FD82F9E01281939092F5F3F4F40
:100E3000068CF78DE02DA601B401DACF0284F3858C
:100E4000E02D0995D501ED91FC910488F589E02DFF
:100E500083019401A601BE01C5010995D501ED915B
:100E6000FC910688F789E02DC501DF91CF911F9194
:100E70000F91FF90EF90DF90CF90BF90AF909F9039
:100E80008F907F906F900994EF92FF920F931F9332
:100E9000DC011A960D911C911B9718962D913C918F
:100EA0001997ED91FC9100A0F1A1E02D7B0150E09C
:100EB00040E070E060E009951F910F91FF90EF9086
:100EC00008954F925F926F927F928F929F92AF920E
:100ED000BF92CF92DF92EF92FF920F931F93CF9327
:100EE000DF936C012B015A0139014801DC01ED91BE
:100EF000FC910284F385E02D0995E201640C751CD8
:100F0000D601ED91FC91C615D7055CF40088F189F6
:100F1000E02D87019401A501BE01C6010995219626
:100F2000EFCF0688F789E02DC601DF91CF911F91A1
:100F30000F91FF90EF90DF90CF90BF90AF909F9078
:100F40008F907F906F905F904F9009948F929F92B7
:100F5000AF92BF92CF92DF92EF92FF920F931F93C7
:100F6000CF93DF93EC015B014A016901E881F981CC
:100F70000284F385E02D099595012C0D3D1D21502E
:100F80003109E881F9810488F589E02D780184012F
:100F9000A401B501CE010995E881F9810688F78998
:100FA000E02DCE01DF91CF911F910F91FF90EF9037
:100FB000DF90CF90BF90AF909F908F9009948F92C9
:100FC0009F92AF92BF92CF92DF92EF92FF920F93D8
:100FD0001F93CF93DF93EC015B014A016901780114
:100FE000E881F9810284F385E02D0995C80CD91CAC
:100FF000860101501109E881F9810488F589E02D05
:101000009501A401B501CE010995E881F981068811
:10101000F789E02DCE01DF91CF911F910F91FF90C5
:10102000EF90DF90CF90BF90AF909F908F900994FA
:101030000895EF92FF920F931F93DC01ED91FC91C5
:1010400000A0F1A1E02D09951F910F91FF90EF9065
:1010500008950F931F93DC01ED91FC91068CF78DA1
:10106000E02D09951F910F9108950F931F93DC01B7
:10107000ED91FC91048CF58DE02D09951F910F9158
:101080000895DC01ED91FC910084F185E02D099437
:101090002F923F924F925F926F927F928F929F9288
:1010A000AF92BF92CF92DF92EF92FF920F931F9376
:1010B000CF93DF9300D000D000D0CDB7DEB73C0196
:1010C0006A013E832D83FC82EB825801A41AB50A83
:1010D000B7FE03C0B194A194B1088D809E80861A9A
:1010E000970A97FE03C09194819491088A149B04F7
:1010F0005CF0902F812F0D811E819D838E839C2D0E
:101100008D2D6B01692F782F0C151D055CF09D81CD
:101110008E817E836D83692F782F902F812F86019A
:10112000C92ED82E1601201A310A2B012D813E819D
:10113000421A530A57FE03C0519441945108710159
:1011400037FE03C03FEFE31AF30AF594E7948D816D
:101150009E81861797075CF5A1E0B0E0BA83A9836A
:10116000C016D1064CF1D301ED91FC910484F585B4
:10117000E02D2B813C81A8016D817E818A149B0426
:101180001CF04D815E81B801C3010995E418F50892
:10119000F7FE0AC02D813E8189819A81280F391F6F
:1011A0003E832D83E20CF31C0F5F1F4FD9CF2FEF2F
:1011B0003FEF3A832983D4CF26960FB6F894DEBF4B
:1011C0000FBECDBFDF91CF911F910F91FF90EF9098
:1011D000DF90CF90BF90AF909F908F907F906F9057
:1011E0005F904F903F902F90089590E0FC01E55262
:1011F000FF4F2491FC01E95EF94F3491FC01ED5F52
:10120000F94FE491EE23C9F0222339F0233001F1A4
:10121000A8F4213019F1223029F1F0E0EE0FFF1F80
:10122000E151FA4FA591B4918FB7F894EC91611107
:1012300026C030953E233C938FBF08952730A9F0F8
:101240002830C9F0243049F7809180008F7D03C099
:10125000809180008F7780938000DFCF84B58F7777
:1012600084BDDBCF84B58F7DFBCF8091B0008F77BD
:101270008093B000D2CF8091B0008F7DF9CF3E2B0C
:10128000DACF8F929F92AF92BF92CF92DF92EF927E
:10129000FF92CF93DF932FB7F8948090A2029090A3
:1012A000A302A090A402B090A5022FBF6C01990FD9
:1012B000EE08FF08C3E5D2E02FB7F8948091A202B0
:1012C0009091A302A091A402B091A5022FBF88190A
:1012D0009909AA09BB098C159D05AE05BF0578F4CF
:1012E00061E082E00E94F508CE010197F1F760E02D
:1012F00082E00E94F508CE010197F1F7DDCF60E0B2
:1013000082E0DF91CF91FF90EF90DF90CF90BF9080
:10131000AF909F908F900C94F5083FB7F894809110
:101320009C0290919D02A0919E02B0919F0226B5D1
:10133000A89B05C02F3F19F00196A11DB11D3FBF0D
:10134000BA2FA92F982F8827BC01CD01620F711DDC
:10135000811D911D42E0660F771F881F991F4A95D6
:10136000D1F708958F929F92AF92BF92CF92DF9262
:10137000EF92FF926B017C010E948D094B015C0191
:10138000C114D104E104F104B9F00E948D09681977
:1013900079098A099B09683E73408105910580F3AC
:1013A00021E0C21AD108E108F10888EE880E83E036
:1013B000981EA11CB11CE4CFFF90EF90DF90CF905E
:1013C000BF90AF909F908F900895AF92BF92CF92B1
:1013D000DF92EF92FF920F931F93CF93DF936C01F5
:1013E0007B018B01040F151FEB015E01AE18BF08D6
:1013F000C017D10759F06991D601ED91FC91019088
:10140000F081E02DC6010995892B79F7C501DF919F
:10141000CF911F910F91FF90EF90DF90CF90BF90F1
:10142000AF900895DC019C96ED91FC919D97908181
:10143000D1968C91892B80830895DC019A96ED9149
:10144000FC919B979081D0968C9180958923808385
:101450000895DC019A96ED91FC919B979081D0962E
:101460008C91892B80830895EF92FF920F931F93A5
:10147000DC011A960D911C911B9718962D913C91A9
:101480001997ED91FC9100A0F1A1E02D7B0150E0B6
:1014900040E070E060E009951F910F91FF90EF90A0
:1014A0000895FC01848D28E030E090E8882339F02D
:1014B0006EBD00000DB407FEFDCF8EB50895A6A148
:1014C000B7A186A5462F4923A9F04C91842B8C9374
:1014D000A0A5B1A58C9147A5842B8C93A0A5B1A5FF
:1014E0004C9187A5809584238C9396952150310942
:1014F00031F708954C9180958423E9CF08958CBDF0
:101500009DBD08951F93CF93DF93EC01162F8C8D13
:10151000882331F08091A0029091A1020E947F0A5D
:10152000CE010E94120ACE010E941D0A612FCE0137
:101530000E94510ACE01DF91CF911F910C94290A8C
:101540001F93CF93DF93EC01162F8C8D882331F0FE
:101550008091A0029091A1020E947F0AECA5FDA5B6
:10156000908189A9809589238083CE010E941D0ADC
:10157000612FCE010E94510ACE01DF91CF911F91C0
:101580000C94290ACF92DF92EF92FF920F931F9350
:10159000CF93DF93EC012196FC01F490FA94FFEFD6
:1015A000FF1609F432C0FE01649185EB92E00E94BF
:1015B000A00A6E01F2E0CF0ED11CFE013196E4903C
:1015C000CE2DCF778601DC2FD15048F0F801649101
:1015D00085EB92E00E94820A0F5F1F4FF5CFCC0D82
:1015E000DD2DD11DE7FEDACF8E010F5F1F4FFE010B
:1015F000649170E06F3F710511F464EF71E090E069
:1016000080E00E94B209E801C9CFDF91CF911F911C
:101610000F91FF90EF90DF90CF900895611103C07C
:1016200060E20C94A00A61E2FCCF1F93CF93DF939A
:10163000EC01162F66E30E94A00A13701E8B8B8D9F
:101640001230B1F1133009F44AC01130D1F08230B8
:1016500019F068EC843009F460ECCE010E94820A33
:101660008B8D813061F580E890E09B878A87998730
:1016700088878AA18CA38BA18DA3DF91CF911F9125
:101680000895823019F068EA843009F460EACE01E6
:101690000E94820A8B8D813049F580E890E099871D
:1016A00088879B878A878AA18DA38BA18CA3E5CF8E
:1016B000823019F068E0843081F660E0CECF84306B
:1016C00039F480EA90E09B878A8780E590E0CFCF6D
:1016D00080EA90E09B878A8780E890E0C8CF8230DC
:1016E00019F068E6843099F660E6D1CF843039F499
:1016F00080EA90E09987888780E590E0D2CF80EA01
:1017000090E09987888780E890E0CBCFEF92FF92B6
:101710000F931F93CF93DF93EC01E62E142FF22E3D
:101720006AE20E94A00A60E0CE010E94820A6CA1D7
:101730006E0DCE010E94820A60E0CE010E94820AF4
:101740006CA16F0DCE010E94820A6BE2CE010E9455
:10175000A00A60E0CE010E94820A6DA1610FCE0155
:101760000E94820A60E0CE010E94820A6DA1600F91
:10177000CE010E94820A6CE2CE01DF91CF911F91CF
:101780000F91FF90EF900C94A00AAF92BF92CF926E
:10179000DF92EF92FF920F931F93CF93DF93EC01B1
:1017A0005901680128853985621773070CF053C009
:1017B0008A859B85481759070CF04DC0FB01EA0D3F
:1017C000FB1D2E173F071CF45901A61AB70A9A01F0
:1017D0002C0D3D1D821793071CF46C01C41AD50A09
:1017E0000FEF040F0C0D2FEF260F2A0DCE010E94D4
:1017F000860B8C8D882331F08091A0029091A102FC
:101800000E947F0ACE010E94120ACE010E941D0A88
:101810001C141D049CF48501101611065CF46F2D38
:10182000CE010E94510A6E2DCE010E94510A015034
:101830001109F2CF81E0C81AD108EACFCE01DF91B9
:10184000CF911F910F91FF90EF90DF90CF90BF90BD
:10185000AF900C94290ADF91CF911F910F91FF90C7
:10186000EF90DF90CF90BF90AF900895DF92EF920E
:10187000FF920F931F93CF93DF93EC017901D02E4A
:101880008885998568177907DCF52A853B85421795
:101890005307B4F59B012E0D3F1D821793071CF4CF
:1018A0007C01E61AF70A2FEF260F2E0D042FCE012A
:1018B0000E94860B8C8D882331F08091A00290913C
:1018C000A1020E947F0ACE010E94120ACE010E944C
:1018D0001D0A81E0E81AF10848F0612FCE010E944C
:1018E000510A6D2DCE010E94510AF3CFCE01DF9136
:1018F000CF911F910F91FF90EF90DF900C94290AE8
:10190000DF91CF911F910F91FF90EF90DF9008959D
:10191000DF92EF92FF920F931F93CF93DF93EC012F
:101920007901D02E8885998568177907DCF58A8535
:101930009B8548175907B4F59A012E0D3F1D821754
:1019400093071CF47C01E41AF50A0FEF040F0E0D47
:10195000262FCE010E94860B8C8D882331F080913A
:10196000A0029091A1020E947F0ACE010E94120A59
:10197000CE010E941D0A81E0E81AF10848F0612FAB
:10198000CE010E94510A6D2DCE010E94510AF3CF63
:10199000CE01DF91CF911F910F91FF90EF90DF90DB
:1019A0000C94290ADF91CF911F910F91FF90EF9036
:1019B000DF900895FF920F931F93CF93DF93EC0175
:1019C00077FD34C088859985681779077CF557FDC0
:1019D0002DC08A859B854817590744F5F32E122F91
:1019E00001E0040F21E0260FCE010E94860B8C8DB2
:1019F000882331F08091A0029091A1020E947F0A79
:101A0000CE010E94120ACE010E941D0A6F2DCE0146
:101A10000E94510A612FCE010E94510ACE01DF912E
:101A2000CF911F910F91FF900C94290ADF91CF91D4
:101A30001F910F91FF900895089590E080E0089520
:101A40000E94C30F1F920F920FB60F9211242F9373
:101A50003F938F939F93AF93BF938091A2029091F6
:101A6000A302A091A402B091A50230919B0223E0B1
:101A7000230F2D3758F50196A11DB11D20939B0210
:101A80008093A2029093A302A093A402B093A50214
:101A900080919C0290919D02A0919E02B0919F0224
:101AA0000196A11DB11D80939C0290939D02A0936D
:101AB0009E02B0939F02BF91AF919F918F913F91F2
:101AC0002F910F900FBE0F901F90189526E8230FAF
:101AD0000296A11DB11DD2CFE0EAF2E080E580833D
:101AE0001182E5EBF2E01382128220E830E03583C8
:101AF000248380EA90E097838683318720879387C9
:101B00008287168A158614861786168681E0858B4D
:101B1000848B2FEF3FEF338B228B318B208B878B86
:101B2000108E128E118E24E031E0318320839AE0F2
:101B3000958F98E0968F99E0978F848F9FEF91A370
:101B400090A3E6EAF2E010821182128213821086DC
:101B50001186128613868487868740E65AEE60E0F7
:101B600070E0448355836683778385879FB7F894B5
:101B70004091A2025091A3026091A4027091A5022B
:101B80009FBF4083518362837383868708957894CF
:101B900084B5826084BD84B5816084BD85B5826072
:101BA00085BD85B5816085BD80916E008160809323
:101BB0006E0010928100809181008260809381008C
:101BC000809181008160809381008091800081609C
:101BD000809380008091B10084608093B1008091F7
:101BE000B00081608093B00080917A00846080931F
:101BF0007A0080917A00826080937A0080917A00E6
:101C0000816080937A0080917A00806880937A0066
:101C10001092C10082E00E94410360E082E00E94D5
:101C2000F5088DE790E00E94410962E370E080E0F2
:101C300090E00E94B2098DE790E00E944109109265
:101C4000D8021092D7021092D9021092DA02809133
:101C5000D3020E9441038091D2020E9441038091ED
:101C6000D202082E000C990BFC01ED5FF94FE491B4
:101C7000F0E0EE0FFF1FE151FA4F259134913093C0
:101C8000E0022093DF022091D302022E000C330BDE
:101C9000F901ED5FF94FE491F0E0EE0FFF1FE15124
:101CA000FA4F459154915093E2024093E102FC01B6
:101CB000E95EF94FE491E093E502F901E95EF94F3D
:101CC000E491E093E6028091D102882309F4FFC0F9
:101CD000CFB7F89480919A02811124C0EDE0F6E02C
:101CE0008491E1E2F6E09491E82FF0E0EE0FFF1F1F
:101CF000E750FA4FA591B491EC91E92321F461E00A
:101D00008AE00E94F5088AE00E9441038CB5806158
:101D10008CBD8CB580648CBD8DE00E9441038BE04E
:101D20000E94410380919A028F5F80939A02CFBFF5
:101D300080E58093A00281E08093A10285EB92E090
:101D40000E941D0A8091D4028F3F19F10E94410325
:101D500061E08091D4020E94F50864EF71E080E0B8
:101D600090E00E94B20960E08091D4020E94F508E0
:101D700064EF71E080E090E00E94B20961E0809140
:101D8000D4020E94F50864EF71E080E090E00E94C8
:101D9000B20980EA90E00E94C20A83E990E00E94C2
:101DA000C20A88E690E00E94C20A66E385EB92E0F0
:101DB0000E94A00A60EC85EB92E00E94820A82E019
:101DC0008093D00260E085EB92E00E94150B70E0FA
:101DD00060E085EB92E00E94340A1092C2021092F9
:101DE000C1021092C4021092C3028FEF9FEF909332
:101DF000C8028093C7029093C6028093C50281E017
:101E00008093CC024DE651E06CE271E085EB92E00C
:101E10000E94E50968EE73E080E090E00E94B2095C
:101E2000C0E0D0E08091B302882309F44AC08091D9
:101E3000B402882309F492C08FB7F8944091A202AB
:101E40005091A3026091A4027091A5028FBF80916E
:101E5000A6029091A702A091A802B091A9020091B8
:101E6000AA021091AB022091AC023091AD026A013E
:101E70007B01C81AD90AEA0AFB0AC016D106E20693
:101E8000F306F8F0E091B202EE2309F473C0401BB0
:101E9000510B620B730B800F911FA21FB31F801792
:101EA0009107A207B30708F05EC08093A602909343
:101EB000A702A093A802B093A9028EE190E00E942D
:101EC0004109209709F4AECF0E940000ABCF80916A
:101ED000D6020E9441038091D5020E94410360E036
:101EE0008091D6020E94F50860E08091D5020E94A0
:101EF000F5088091D602082E000C990BFC01ED5FCD
:101F0000F94FE491F0E0EE0FFF1FE151FA4F2591F8
:101F100034913093DE022093DD022091D502022E0F
:101F2000000C330BF901ED5FF94FE491F0E0EE0F97
:101F3000FF1FE151FA4F459154915093DC024093B9
:101F4000DB02FC01E95EF94FE491E093E402F90160
:101F5000E95EF94FE491E093E302F0CE0E948D092F
:101F6000AB01BC0174CF84179507A607B70708F427
:101F700092CF9BCF1092B302A0CFEE0FFF1F059020
:101F8000F491E02D099481E090E0F8940C94C80F4E
:041F9000F894FFCFF3
:101F9400000000009B05E5091D0D1C0DDA0C180856
:101FA400410819083508290848081808150B0E0BAC
:101FB400880C360CC50B340ACC066D064C6F726562
:101FC4006D20697073756D20646F6C6F7220736916
:101FD4007420616D65742C20636F6E736563746522
:101FE4007475722061646970697363696E672065D2
:101FF4006C69742E20437572616269747572206114
:10200400646970697363696E6720616E74652073B7
:102014006564206E6962682074696E636964756EB4
:102024007420666575676961742E204D616563650A
:102034006E617320656E696D206D617373612C2010
:102044006672696E67696C6C6120736564206D618A
:102054006C6573756164612065742C206D616C65B9
:1020640073756164612073697420616D6574207493
:1020740075727069732E2053656420706F72747466
:1020840069746F72206E6571756520757420616E58
:102094007465207072657469756D20766974616504
:1020A400206D616C657375616461206E756E63206B
:1020B400626962656E64756D2E204E756C6C616D1F
:1020C40020616C697175657420756C7472696365DF
:1020D40073206D617373612065752068656E647229
:1020E400657269742E20557420736564206E69735B
:1020F40069206C6F72656D2E20496E20766573744D
:102104006962756C756D20707572757320612074C9
:102114006F72746F7220696D706572646965742082
:0A212400706F73756572652E200060
:00000001FF
