:100000000C9469000C9491000C9491000C94880B52
:100010000C94880B0C94880B0C9491000C94910018
:100020000C9491000C9491000C9491000C9491000C
:100030000C9491000C9491000C9491000C949100FC
:100040000C94E60A0C9491000C94560B0C94300B13
:100050000C9491000C9491000C9491000C949100DC
:100060000C94C7090C949100475053204C4F5354A3
:100070002121210000000000240027002A000000A8
:100080000008000201000003040700000000000057
:1000900000000000000023002600290000000000EE
:1000A000250028002B0004040404040404040202B4
:1000B00002020202030303030303010204081020E7
:1000C0004080010204081020010204081020000CE6
:1000D000801111241FBECFEFD8E0DEBFCDBF11E0ED
:1000E000A0E0B1E0ECE9F9E202C005900D92A03881
:1000F000B107D9F724E0A0E8B1E001C01D92A33018
:10010000B207E1F710E0C8E6D0E004C02197FE0195
:100110000E942A12C736D107C9F70E94A40D0C9479
:10012000C1140C9400000895089520911502260F23
:100130003327331F21323105ECF420915E02FC019C
:1001400090E080E0243069F082E00895A0911502EB
:100150002191AC014B505E4FA40FB52FB11D2C93D4
:100160000196861798F380911502680F6093150227
:1001700080E0089581E008950895E0912A03809138
:100180002903E81730F4F0E0EC52FE4F808190E054
:1001900008958FEF9FEF089590912A03809129038E
:1001A0002FEF3FEF981748F4E92FF0E0EC52FE4FA5
:1001B000208130E09F5F90932A03C90108958091C8
:1001C000290390912A03891B990B0895CF92DF92FE
:1001D000EF92FF920F931F93CF93DF937C01CB019C
:1001E0008A0120916402222389F0EB016B01C40E85
:1001F000D51ECC15DD0569F06991D701ED91FC9113
:100200000190F081E02DC7010995F3CF642F0E9482
:100210009500C801DF91CF911F910F91FF90EF9052
:10022000DF90CF900895CF93DF931F92CDB7DEB7C5
:100230006983209164022223F9F020912703203260
:1002400058F021E030E0FC013383228390E080E02D
:100250000F90DF91CF91089580912803E82FF0E06F
:10026000EB59FD4F998190838F5F80932803809392
:10027000270381E090E0ECCF61E0CE0101960E947F
:100280009500F7CF90E0FC01E258FF4F2491FC016C
:10029000E654FF4F3491FC01EA55FF4FE491EE2301
:1002A000C9F0222339F0233001F1A8F4213019F1EB
:1002B000223029F1F0E0EE0FFF1FE456FF4FA59129
:1002C000B4918FB7F894EC91611126C030953E231C
:1002D0003C938FBF08952730A9F02830C9F024300F
:1002E00049F7809180008F7D03C0809180008F77D7
:1002F00080938000DFCF84B58F7784BDDBCF84B55A
:100300008F7DFBCF8091B0008F778093B000D2CFEC
:100310008091B0008F7DF9CF3E2BDACF10925E0234
:1003200081E080935D021092380261E082E10E94D8
:10033000420161E083E10E944201E9EBF0E080814B
:100340008E7F808380818D7F808388E48093B80056
:1003500085E48093BC000895CF93DF9391E0909360
:10036000F4018823B9F0C091B800D091BA0080910F
:10037000BC008A7B8093BC0060E082E10E94420165
:1003800060E083E10E9442010E948E01D093BA0096
:10039000C093B800DF91CF910895CF93DF9390E0A1
:1003A000FC01E654FF4F24918A559F4FFC01849134
:1003B0008823D1F090E0880F991FFC01EC58FF4F83
:1003C000A591B491FC01E456FF4FC591D491611100
:1003D0000EC09FB7F8948C91E22FE0958E238C93FA
:1003E0002881E223E8839FBFDF91CF9108958FB7E3
:1003F000F894EC91E22BEC938FBFF6CF3FB7F894D3
:100400008091D0019091D101A091D201B091D301FE
:1004100026B5A89B05C02F3F19F00196A11DB11D5F
:100420003FBFBA2FA92F982F8827BC01CD01620F9B
:10043000711D811D911D42E0660F771F881F991F56
:100440004A95D1F70895CF92DF92EF92FF920F93E2
:100450001F93CF93DF93D091270381E0D13208F02F
:100460009CC0C09185020E94FE016B017C018091BD
:100470005E0281116CC082E080935E0281E0809315
:100480005D028FEF80935C0210925B02D0935A0260
:10049000A5E6B2E0EAE3F2E080E0D8138DC0109266
:1004A000390280913902CC0FC82BC0933902809158
:1004B0003802813009F084C0109238020E94FE0197
:1004C0006B017C01809139028093BB0080916002B6
:1004D00090916102A0916202B0916302892B8A2BF4
:1004E0008B2BA1F00E94FE0100916002109161022D
:1004F00020916202309163026C197D098E099F0977
:10050000061717072807390708F442C08091BC0076
:1005100083FDD8CF85EC8093BC000E94FE016B0167
:100520007C0180915E02823009F44CC080915C02B3
:100530008F3F09F469C080915C02803209F466C083
:1005400080915C02803309F463C084E026C080910E
:10055000600290916102A0916202B0916302892BC6
:100560008A2B8B2B09F483CF0E94FE01009160023D
:100570001091610220916202309163026C197D0931
:100580008E099F09061717072807390708F06FCF4C
:1005900080915F020E94AC0185E0109228031092C6
:1005A000270310926402DF91CF911F910F91FF906A
:1005B000EF90DF90CF9008959D9191938F5F6DCFD5
:1005C00085EEA9CF8091600290916102A0916202B4
:1005D000B0916302892B8A2B8B2B09F4A2CF0E9446
:1005E000FE0100916002109161022091620230913F
:1005F00063026C197D098E099F09061717072807E2
:10060000390708F08ECFC4CF80E0C7CF82E0C5CFD6
:1006100083E0C3CF2FB7F8946091CC017091CD01E6
:100620008091CE019091CF012FBF08958F929F921C
:10063000AF92BF92CF92DF92EF92FF92CF93DF9370
:100640006C010E940A034B015C010D2C000CEE08AA
:10065000FF08C3E5D2E00E940A03681979098A09F4
:100660009B096C157D058E059F0578F461E085E09A
:100670000E944201CE010197F1F760E085E00E94FF
:100680004201CE010197F1F7E6CF60E085E0DF910E
:10069000CF91FF90EF90DF90CF90BF90AF909F9061
:1006A0008F900C944201AF92BF92CF92DF92EF9263
:1006B000FF920F931F93CF93DF936C017B018B010C
:1006C000040F151FEB015E01AE18BF08C017D1075C
:1006D00059F06991D601ED91FC910190F081E02DE6
:1006E000C6010995892B79F7C501DF91CF911F913B
:1006F0000F91FF90EF90DF90CF90BF90AF90089553
:10070000FC01538D448D252F30E0842F90E0821B17
:10071000930B541710F0CF96089501970895FC019C
:10072000918D828D981761F0A28DAE0FBF2FB11DF4
:100730005D968C91928D9F5F9F73928F90E008954C
:100740008FEF9FEF0895FC01918D828D981731F006
:10075000828DE80FF11D858D90E008958FEF9FEF5A
:100760000895FC01918D228D892F90E0805C9F4F30
:10077000821B91098F739927089586E892E00E9461
:10078000B10321E0892B09F420E0822F089580E055
:1007900090E0892B29F00E94BD0381110C94000088
:1007A0000895FC01A48DA80FB92FB11DA35ABF4F06
:1007B0002C91848D90E001968F739927848FA68960
:1007C000B7892C93A089B1898C91837080648C93B4
:1007D000938D848D981306C00288F389E02D808163
:1007E0008F7D80830895EF92FF920F931F93CF9395
:1007F000DF93EC0181E0888F9B8D8C8D98131AC05C
:10080000E889F989808185FF15C09FB7F894EE8942
:10081000FF896083E889F98980818370806480839F
:100820009FBF81E090E0DF91CF911F910F91FF90EA
:10083000EF900895F62E0B8D10E00F5F1F4F0F7392
:100840001127E02E8C8D8E110CC00FB607FCFACF4D
:10085000E889F989808185FFF5CFCE010E94D10317
:10086000F1CFEB8DEC0FFD2FF11DE35AFF4FF0821E
:100870009FB7F8940B8FEA89FB8980818062CFCF84
:10088000CF93DF93EC01888D8823B9F0AA89BB89C7
:10089000E889F9898C9185FD03C0808186FD0DC0B2
:1008A0000FB607FCF7CF8C9185FFF2CF808185FFD3
:1008B000EDCFCE010E94D103E9CFDF91CF91089512
:1008C000CF93DF93EC018A859B85AC85BD858E83B4
:1008D0009F83A887B9870E940A036A837B838C83DE
:1008E0009D8381E089838883DF91CF910895CF93A1
:1008F000DF93EC018E819F81A885B9858A839B83D4
:10090000AC83BD830E940A036A877B878C879D879F
:1009100081E089838883DF91CF9108952091C2017E
:100920003091C3012817390771F49091C00180916B
:10093000C101981741F0E091C001F0E0E058FE4F8E
:10094000808190E008958FEF9FEF0895EF92FF92DE
:100950000F931F93CF93DF93DC015C96ED90FC9097
:100960005D97E114F10479F481E090E013969C9393
:100970008E93129790E080E0DF91CF911F910F91BD
:10098000FF90EF9008955196ED91FC9152975096FB
:100990008C915097982F90950FB75E962C915E97FB
:1009A000122F127021FD6095F8942081112319F106
:1009B000282B2083E7012197F1F728E0462F50E00C
:1009C000308160FF1AC0382B3083E7012197F1F79F
:1009D000BA0175956795215089F7112381F08081BF
:1009E000892380830FBF5C968D919C910197F1F7CD
:1009F00081E090E0C1CF2923DCCF3923E5CF90817E
:100A0000892BEFCF2091C2013091C30128173907FC
:100A100071F48091C1012091C00190E0805C9F4FF2
:100A2000821B910960E470E00E94F411089590E047
:100A300080E008952091C2013091C3012817390741
:100A4000B9F49091C0018091C101981789F0E091AB
:100A5000C001F0E0E058FE4F80812091C00130E0FD
:100A60002F5F3F4F2F7333272093C00190E00895ED
:100A70008FEF9FEF089590E080E00895FC010190D2
:100A80000020E9F73197AF01481B590BBC0186E8FC
:100A900092E00C9453038F929F92AF92BF920F9368
:100AA0001F93CF93DF93CDB7DEB7A1970FB6F8941E
:100AB000DEBF0FBECDBF19A2423008F44AE08E015E
:100AC0000F5D1F4F842E912CB12CA12CA5019401F8
:100AD0000E940812E62FB901CA01EA30F4F4E05D81
:100AE000D801EE938D01232B242B252B79F790E051
:100AF00080E0109719F0CD010E943E05A1960FB637
:100B0000F894DEBF0FBECDBFDF91CF911F910F9143
:100B1000BF90AF909F908F900895E95CE1CFCF9206
:100B2000DF92EF92FF92CF93DF936C01990FEE0863
:100B3000FF08F7FE19C06DE286E892E00E94F30319
:100B4000EC0166277727CB016C197D098E099F0977
:100B50004AE00E944B058C0F9D1FDF91CF91FF90C3
:100B6000EF90DF90CF9008954AE0C701B601DF9182
:100B7000CF91FF90EF90DF90CF900C944B052F9288
:100B80003F924F925F926F927F928F929F92AF921D
:100B9000BF92CF92DF92EF92FF920F931F93CF936A
:100BA000DF93D82FC92F8B010E949C1124E630E0DF
:100BB00040E050E00E94081249019B01AC0160E84E
:100BC00076E988E990E00E94D8116B017C01F80178
:100BD00091828082ED2FFC2F2191822F022E000C1A
:100BE000990BC0970A97C0F32E3239F51F0180E8A0
:100BF000882E86E9982E88E9A82EB12C9AE0492EF5
:100C0000512C612C712CF101C1911F010C2E000C93
:100C1000DD0BE097CA30D10580F4C501B401A30112
:100C200092010E94081249015A01DE010E943B1202
:100C3000C60ED71EE81EF91EE6CFA5E0B0E0A7015C
:100C400096010E9430126F5F7F4F8F4F9F4F23E0BE
:100C500030E040E050E00E940812F8012283338324
:100C6000448355831682DF91CF911F910F91FF909E
:100C7000EF90DF90CF90BF90AF909F908F907F903C
:100C80006F905F904F903F902F9008951F93CF9358
:100C9000DF93EC0118811D3209F42196CE010E94E8
:100CA0009C119B01AC01A4E6B0E00E943012AB01A4
:100CB000BC01FE012991822F022E000C990BC097D6
:100CC0000A97B8F32E3231F58181082E000C990B6A
:100CD000C0978A309105F0F4AAE0A89F9001A99FDF
:100CE000300D1124C901330FAA0BBB0B480F591F3C
:100CF0006A1F7B1F8281082E000C990BC0978A30D7
:100D0000910540F4092E000CAA0BBB0B480F591F8C
:100D10006A1F7B1F1D3239F470956095509541957F
:100D20005F4F6F4F7F4FCB01BA01DF91CF911F9182
:100D30000895AF92BF92CF92DF92EF92FF920F93FE
:100D40001F93CF93DF930E940A036B017C0112E093
:100D5000D1E087E393E00E940205892B09F4C0C229
:100D600087E393E00E941A05C82F8091F3039091C6
:100D7000F403A091F503B091F6030196A11DB11DF6
:100D80008093F3039093F403A093F503B093F603D9
:100D9000C43209F484C2E091ED03C5320CF0BDC049
:100DA000CA3019F0CD3009F087C2EF3008F032C1F7
:100DB000F0E0E452FC4F10828091DB03882309F4B9
:100DC00037C12091DC03822F022E000C990B3FEBE0
:100DD000320F363008F0ADC0C7978295807F909172
:100DE000DD03292F092E000C330B4FEB490F463042
:100DF00008F0A7C027533109820F9091DA038913B5
:100E0000F6C08091FF0390910004A0910104B0917D
:100E100002040196A11DB11D8093FF03909300046D
:100E2000A0930104B09302048091EE03882399F00B
:100E30008091F7039091F803A091F903B091FA0320
:100E40000196A11DB11D8093F7039093F803A09321
:100E5000F903B093FA030091EB03002309F47AC07D
:100E60000130A1F588E793E00E94770486E893E0DB
:100E70000E9477048091EE03882341F187E0E6E643
:100E8000F3E0A8E5B3E001900D928A95E1F787E0E1
:100E9000EDE6F3E0AFE5B3E001900D928A95E1F75E
:100EA0000E940A0360937403709375038093760322
:100EB00090937703009357030093560384E993E0DC
:100EC0000E94600482EA93E00E946004A090F10313
:100ED000B090F203A114B10409F49CC0E091F103B5
:100EE000F091F20366A177A1F50186A197A10E9476
:100EF000A214892B09F08EC0B501C50140960E944D
:100F0000AB140E940A03F50160A371A382A393A30B
:100F1000D5A3D4A3A2A4B3A4DDCFCA3209F445CF8C
:100F2000CC3209F0C9C18091DA038C278093DA03AF
:100F30003CCF2156263018F4875591094ECFC097E3
:100F40004CCF9156963018F42755310955CF205380
:100F5000310952CF86E893E00E9477048091EE0336
:100F6000882321F187E0E6E6F3E0A8E5B3E001900D
:100F70000D928A95E1F787E0EDE6F3E0AFE5B3E0A7
:100F800001900D928A95E1F70E940A036093740321
:100F9000709375038093760390937703D0935703F0
:100FA000D093560380EB93E00E9460048091C803C5
:100FB0009091C903A091CA03B091CB038093C4035D
:100FC0009093C503A093C603B093C7030E940A037E
:100FD0006093C0037093C1038093C2039093C303D3
:100FE000D093BF03D093BE038CEC93E06DCF809180
:100FF000FB039091FC03A091FD03B091FE030196C9
:10100000A11DB11D8093FB039093FC03A093FD03EE
:10101000B093FE038091EC038F5F8093EC031092FA
:10102000ED0381E0CA3209F080E08093DB0391CECA
:101030009091EC03911144C068E371E08CED93E072
:101040000E94A214892B41F06EE371E08CED93E0D5
:101050000E94A214892BF1F4D093EB038091EF034B
:101060009091F0039093F2038093F103A090F10329
:10107000B090F203A114B10469F26CED73E0F501D4
:1010800086A197A10E94A21497FF41C1F50182A5F4
:1010900093A5E8CF64E471E08CED93E00E94A21484
:1010A000892B41F06AE471E08CED93E00E94A21478
:1010B000892B19F41092EB03D1CF1093EB03CECF11
:1010C000E091EB03E23009F448C08091DC0388230F
:1010D00009F443C020E2E29FF0011124E92B31978B
:1010E000E932F10508F039C0E858F74F0C942A129C
:1010F000A108E208E908F008F308210928093509E0
:101100004209AD08AD08AD08AD08AD08AD08AD08A1
:10111000AD08AD08AD08AD08AD08AD08AD08AD0827
:10112000AD08AD08AD08AD08AD08AD08AD08AD0817
:10113000A108DC08E208E908F008F308FA08070942
:1011400014098CED93E00E94460660938C03709323
:101150008D0380938E0390938F03A090F103B09042
:10116000F2030091EC03A114B10409F453CFE09110
:10117000F103F091F20366A177A1F50186A197A191
:101180000E94A214892B09F045CFF50120A531A5B5
:10119000802F90E0821793070CF43CCF2817390773
:1011A00039F440E150E06CED73E0C5010E94B214E7
:1011B000F501A2A4B3A4D5CF91E0813409F445C0D0
:1011C00090E043C066E673E08CED93E00E94BF05BB
:1011D000C4CF91E0833509F090E090936C03BDCFCC
:1011E0006DE673E0F1CF91E0873509F090E09093E0
:1011F0007303B3CF8CED93E00E94460660939E0389
:1012000070939F038093A0039093A103A6CF8CEDCE
:1012100093E00E9446066093AC037093AD03809305
:10122000AE039093AF0399CF8CED93E00E949C1195
:1012300060937E0370937F03809380039093810378
:101240008CCF91E081330CF4BBCF9093EE0385CF2C
:101250008CED93E00E949C116093C8037093C903C6
:101260008093CA039093CB0378CF8CED93E00E94D8
:1012700046066093D6037093D7038093D803909368
:10128000D9036BCF8CED93E00E9446066093BA03BE
:101290007093BB038093BC039093BD035ECF109209
:1012A000ED031092EC031092DA031093EB0310920B
:1012B000DB031092EE034DCDEE3040F481E08E0F53
:1012C0008093ED03F0E0E452FC4FC0838091DB0398
:1012D00081113FCD8091DA03C827C093DA0339CD5D
:1012E0000E940A036C197D098E099F09683E7340AC
:1012F0008105910508F42DCDDF91CF911F910F91BC
:10130000FF90EF90DF90CF90BF90AF900895892B22
:1013100009F480CE1092F2031092F1037BCE85ED9A
:101320008093BC008091600290916102A091620262
:10133000B09163020796A11DB11D23E0B695A79554
:10134000979587952A95D1F72091BC0024FD03C07D
:1013500010925E0208954091600250916102609186
:10136000620270916302452B462B472B69F300976D
:10137000A105B10541F025E32A95F1F70000019799
:10138000A109B109E1CF80915F020C94AC011F92D9
:101390000F920FB60F9211242F933F934F935F93A9
:1013A0006F937F938F939F93AF93BF93EF93FF932D
:1013B0008091B900887F803609F44AC0F0F5883200
:1013C00009F4A7C018F5803109F49BC0B8F488234C
:1013D00009F4F9C0883009F494C0FF91EF91BF91EE
:1013E000AF919F918F917F916F915F914F913F91BD
:1013F0002F910F900FBE0F901F901895883109F410
:1014000088C0803251F780935C0214C0803409F4A4
:101410009DC040F48033B9F38833F9F680935C02C1
:1014200085ECB0C0803509F485C0883509F496C0D4
:10143000883499F60E948F09D0CF883909F48CC07E
:1014400038F5883729F050F4883611F0803729F6BE
:1014500083E080935E021092370257C0883809F407
:101460007BC0803919F0803809F0B7CF80913702FE
:10147000803208F071C0E091370281E08E0F8093D6
:1014800037028091BB00F0E0E95EFD4F80833DC0F4
:10149000803B39F0E0F4803A09F479C0883A09F0E9
:1014A0009CCF84E080935E02109216021092150287
:1014B000E0912503F0912603099580911502811191
:1014C0000FC081E0809315021092F50109C0803CA5
:1014D00009F4A6CF883C09F4A3CF883B09F07DCF5F
:1014E000E091160281E08E0F80931602F0E0EB503F
:1014F000FE4F80818093BB0090911602809115026F
:1015000029C0809139028093BB0085EC8093BC0098
:1015100064CF90915B0280915A02981758F5E09140
:101520005B0281E08E0F80935B02F0E0E65CFD4F92
:101530008081E9CFE0915B0281E08E0F80935B02B6
:101540008091BB00F0E0E65CFD4F808390915B02F0
:1015500080915A029817C8F285E8D8CFE0915B02D3
:1015600081E08E0F80935B028091BB00F0E0E65C2F
:10157000FD4F808380915D0281115CCF81E080937B
:10158000380284EA8093BC0010925E0226CF85EC7C
:101590008093BC0010925E0280913702803230F45A
:1015A000E0913702F0E0E95EFD4F10826091370272
:1015B00070E0E0912303F091240387E192E0099524
:1015C000109237020ACF10925C0234CF1F920F9212
:1015D0000FB60F9211242F933F938F939F93AF9346
:1015E000BF938091CC019091CD01A091CE01B0919B
:1015F000CF013091CB0123E0230F2D3758F5019611
:10160000A11DB11D2093CB018093CC019093CD01FE
:10161000A093CE01B093CF018091D0019091D101E0
:10162000A091D201B091D3010196A11DB11D80936B
:10163000D0019093D101A093D201B093D301BF9177
:10164000AF919F918F913F912F910F900FBE0F906F
:101650001F90189526E8230F0296A11DB11DD2CF29
:101660001F920F920FB60F9211242F933F934F9317
:101670005F936F937F938F939F93AF93BF93EF93FA
:10168000FF9386E892E00E94D103FF91EF91BF9112
:10169000AF919F918F917F916F915F914F913F910A
:1016A0002F910F900FBE0F901F9018951F920F92C1
:1016B0000FB60F9211242F938F939F93EF93FF9365
:1016C000E0919602F09197028081E0919C02F09166
:1016D0009D0282FD1BC0908180919F028F5F8F735E
:1016E0002091A002821741F0E0919F02F0E0EA57BA
:1016F000FD4F958F80939F02FF91EF919F918F9166
:101700002F910F900FBE0F901F9018958081F4CFEE
:101710001F920F920FB60F9211242F933F934F9366
:101720005F936F937F938F939F93AF93BF93EF9349
:10173000FF93E091C201F091C301309749F0A68573
:10174000B7858585968D91FF14C09C918923A1F45E
:10175000FF91EF91BF91AF919F918F917F916F9189
:101760005F914F913F912F910F900FBE0F901F905F
:1017700018959C91892361F7A389B4899C918589E7
:10178000809589238C93868997890197F1F7608DDD
:10179000718DA685B785558538E020E0CB0101978E
:1017A000F1F7822F90E095958795282F4C9145234E
:1017B00009F02068315091F7868D81FD2095809148
:1017C000C10190E001968F7399273091C0013817BD
:1017D00099F0A091C101B0E0A058BE4F2C93809326
:1017E000C101828D938D0197F1F7A389B4898C9102
:1017F0009589892B8C93ACCF868D8160868FF1CFB4
:10180000CF92DF92EF92FF9210922E0310922D034F
:1018100098EEC92E93E0D92EE12CF12CC0922F0323
:10182000D0923003E0923103F092320386E091E0EF
:1018300090932C0380932B031092890210928802BC
:10184000C0928A02D0928B02E0928C02F0928D02BA
:1018500088E191E0909387028093860285EC90E086
:10186000909393028093920284EC90E0909395027F
:101870008093940280EC90E090939702809396027C
:1018800081EC90E0909399028093980282EC90E032
:1018900090939B0280939A0286EC90E090939D0235
:1018A00080939C0210929F021092A0021092A102BB
:1018B0001092A20210922A03109229031092280378
:1018C000109227030E948E0183E990E090932603F3
:1018D0008093250384E990E090932403809323036D
:1018E0001092560310925703109259031092580306
:1018F00010925A0310925B0310925C0310925D03E6
:1019000010925E031092600310925F0310926103C5
:1019100010926203109263031092640310926503A5
:101920001092670310926603109268031092690385
:1019300010926A0310926B0310926C0310926E0364
:1019400010926D0310926F03109270031092710346
:10195000109272031092730310927803109279031D
:1019600010927A0310927B0310927C0310927D03F5
:1019700010928603109287031092880310928903B5
:1019800010928A0310928B03109294031092950385
:1019900010929A0310929B0310929C0310929D0345
:1019A0001092A2031092A3031092A8031092A9030D
:1019B0001092AA031092AB031092B0031092B103DD
:1019C0001092B6031092B7031092B8031092B903A5
:1019D0001092BE031092BF031092C4031092C5036D
:1019E0001092C6031092C7031092CC031092CD033D
:1019F0001092D2031092D3031092D4031092D50305
:101A00001092DA031092DB0382E08093EB031092D2
:101A1000EC031092ED031092EE031092F00310927B
:101A2000EF031092F2031092F1031092F30310925D
:101A3000F4031092F5031092F6031092F70310923C
:101A4000F8031092F9031092FA031092FB0310921C
:101A5000FC031092FD031092FE031092FF031092FC
:101A6000000410920104109202041092DC03109200
:101A70003A0310923903C0923B03D0923C03E092A8
:101A80003D03F0923E038AE291E090933803809305
:101A9000370310924E0310924D0310925003109290
:101AA0004F0310925203109251031092540310925C
:101AB0005303609155036E7F6D7F60935503669568
:101AC000617081E0682783E00E94420161E083E069
:101AD0000E94CD01EDEBF0E0E491E0934703E9EAE9
:101AE000F0E0E491F0E0EE0FFF1FE456FF4F859128
:101AF0009491909349038093480360E082E00E94B0
:101B0000CD018091550381FD04C061E082E00E9417
:101B1000420182E080934303ECEBF0E0E491E09338
:101B20004403E8EAF0E0E491F0E0EE0FFF1FEE5628
:101B3000FF4F859194919093460380934503FF90C6
:101B4000EF90DF90CF900895CF93DF9300D000D037
:101B5000CDB7DEB7789484B5826084BD84B58160EA
:101B600084BD85B5826085BD85B5816085BD809168
:101B70006E00816080936E001092810080918100E0
:101B800082608093810080918100816080938100D8
:101B9000809180008160809380008091B10084609A
:101BA0008093B1008091B00081608093B0008091FB
:101BB0007A00846080937A0080917A0082608093BA
:101BC0007A0080917A00816080937A0080917A0017
:101BD000806880937A001092C10061E085E00E94E5
:101BE000CD0160E085E00E9442018DE790E00E9417
:101BF00016030E94FE014B015C0122E3C22ED12C90
:101C0000E12CF12C0E94FE01681979098A099B09CF
:101C1000683E734081059105A8F321E0C21AD108FE
:101C2000E108F10838EE830E33E0931EA11CB11CCD
:101C3000C114D104E104F10429F78DE790E00E947A
:101C40001603E0919602F091970282E08083E09182
:101C50009202F09193021082E0919402F091950229
:101C600080E1808310929E02E0919A02F0919B02A3
:101C700086E08083E0919802F091990280818061F2
:101C80008083E0919802F09199028081886080833E
:101C9000E0919802F0919902808180688083E091C0
:101CA0009802F091990280818F7D80831092520377
:101CB000109251031092500310924F0310924E0352
:101CC00010924D038DE991E0909354038093530358
:101CD00090914303963108F047C02DEB30E03093EC
:101CE0004E0320934D032BE931E0309350032093B2
:101CF0004F032CE231E030935203209351032091A3
:101D0000680084E0983048F031E09E3008F430E01C
:101D100081E001C0880F3A95EAF7822B8093680032
:101D20002DE630E0983050F02BE630E09E3030F079
:101D30002CE630E0963110F030E020E030934B0399
:101D400020934A03292F30E0983008F033C281E015
:101D500001C0880F9A95EAF780934C038091530352
:101D6000909154030197F1F78091510390915203A0
:101D7000892B49F1E091C201F091C301B3E0E7334F
:101D8000FB0709F1309739F0A389B4899C918589C3
:101D9000809589238C93809155038E7F8093550382
:101DA0001092C1011092C00187E393E09093C301A8
:101DB0008093C201E0914A03F0914B03808190919E
:101DC0004C03892B80830E949906109279036091BD
:101DD0007A0370917B0380917C0390917D0320E1D5
:101DE00037E240E050E00E940812211108C080E56F
:101DF00091E00E943E0583E691E00E943E050E942C
:101E0000990683E691E00E943E0584E6482E512C17
:101E1000612C712C90E0292E90E0392E11E0109267
:101E2000BF036091C4037091C5038091C603909174
:101E3000C7034AE00E944B0586E691E00E943E05FA
:101E40001092790360917A0370917B0380917C03F7
:101E500090917D0320E137E240E050E00E940812BB
:101E6000A22E822F90E00E948F0581E691E00E94D1
:101E70003E051092790360917A0370917B03809103
:101E80007C0390917D03A30192010E940812CA0174
:101E9000B901A30192010E940812B62E862F972F36
:101EA0000E948F0581E691E00E943E051092790321
:101EB00060917A0370917B0380917C0390917D0304
:101EC000A30192010E940812FB01E053F84FFA832C
:101ED000E983CF010E948F0586E691E00E943E05CE
:101EE00010928703609188037091890380918A031F
:101EF00090918B0320E432E44FE050E00E940812FE
:101F0000022F822F90E003960E948F058AE691E0CF
:101F10000E943E05109287036091880370918903A7
:101F200080918A0390918B0320E137E240E050E0FA
:101F30000E940812CA01B901A30192010E9408126D
:101F40007B01CB010E948F058AE691E00E943E054D
:101F500010928703609188037091890380918A03AE
:101F600090918B03A30192010E940812CA01B9014A
:101F7000A30192010E9408126B01CB010E948F0500
:101F8000CD2809F09BC0EF2809F098C08CE691E0BD
:101F90000E943E0583E691E00E943E050D5F00939E
:101FA000C6011092C5011092C401A092C801B39459
:101FB000B092C901F981F25BF093CA0110936402F7
:101FC00028E620938502109228031092270360E0F0
:101FD0008BE293E00E94130160E88BE293E00E94A1
:101FE00013018091C5016AE00E94E8118295807F0B
:101FF000682F690F8BE293E00E9413018091C60164
:102000006AE00E94E8118295807F682F690F8BE259
:1020100093E00E9413018091C7016AE00E94E811D9
:102020008295807F682F690F8BE293E00E941301F5
:102030008091C8016AE00E94E8118295807F682F34
:10204000690F8BE293E00E9413018091C9016AE05D
:102050000E94E8118295807F682F690F8BE293E0E0
:102060000E9413018091CA018E516AE00E94E8111A
:102070008295807F682F690F8BE293E00E941301A5
:102080000E94230281111AC0109364021092280347
:102090001092270360E08BE293E00E94130180918D
:1020A000C4016AE00E94E8118295807F682F690F61
:1020B0008BE293E00E9413010E94230286E691E0E6
:1020C0000E943E051092950360919A0370919B03C4
:1020D00080919C0390919D030E947B1326E53EE036
:1020E0004DEE5FE30E94301420E030E048EC52E413
:1020F0000E94D8126B017C014B015C01AC019B0179
:102100000E949D14882309F462C083E791E00E9435
:102110003E0583E691E00E943E058091000190918A
:10212000010101969093010180930001CC9741F445
:102130008EE190E00E9416031092010110920001BE
:102140000E9499060E940A0369387341810591052E
:1021500028F18091F3039091F403A091F503B091DD
:10216000F6030A97A105B105C8F4E8E6F0E0FA83A2
:10217000E983E981FA816491662361F086E892E05F
:102180000E94F30329813A812F5F3F4F3A832983CD
:10219000892B79F783E691E00E943E0521143104F2
:1021A00009F43DCE0E94BD03882309F438CE0E9475
:1021B000000035CE9E3040F42850310981E001C046
:1021C000880F2A95EAF7C8CD2E503109F7CFD701ED
:1021D000C601BF7789839A83AB83BC832FEF3FEF20
:1021E0004FE75FE7BC01CD010E949D1481110FC034
:1021F0002FEF3FEF4FE75FE769817A818B819C8109
:102200000E94D31218161CF487E791E080CF2FEFBD
:102210003FEF4FE75FE4C701B6010E942B14181689
:102220001CF48BE791E073CF2FEF3FEF4FE75FECAC
:10223000C701B6010E94D31287FDF3CF20E030E042
:10224000A901C701B6010E94D31287FF0BC06DE23E
:1022500086E892E00E94F30346015701B7FAB09472
:10226000B7F8B0942AE037ED43EA5BE3C501B40167
:102270000E9467124B015C010E944A136B017C01B2
:102280000E9479139B01AC01C501B4010E94661242
:102290004B015C014AE0C701B6010E944B056EE2AA
:1022A00086E892E00E94F30320E030E040E251E44F
:1022B000C501B4010E9430144B015C010E944A1315
:1022C0006B01F12CE12C4AE0C701B6010E944B05DD
:1022D000C701B6010E9479139B01AC01C501B4018D
:1022E0000E94661220E030E040E251E40E94301487
:1022F0000E944A1390E080E04AE00E944B0509CF1B
:102300008AE291E090933803809337038091C20171
:102310009091C3018753934071F4E0914A03F09187
:102320004B03908180914C03809589238083109288
:10233000C3011092C20108951F93FC0199278827B9
:10234000BC01E89411911032E9F3193010F01E30FD
:10235000C8F31B3251F01D3249F4689406C00E9444
:10236000C311610F711D811D911D119110531A3000
:10237000B0F33EF490958095709561957F4F8F4FA7
:102380009F4F1F910895592F482F372F262F660FE3
:10239000771F881F991F660F771F881F991F620F6D
:1023A000731F841F951F660F771F881F991F08953D
:1023B000DB018F939F930E943012BF91AF91A29F38
:1023C000800D911DA39F900DB29F900D1124089533
:1023D000991B79E004C0991F961708F0961B881F77
:1023E0007A95C9F78095089597FB072E16F4009407
:1023F00007D077FD09D00E94431207FC05D03EF4B8
:10240000909581959F4F0895709561957F4F0895A0
:10241000A1E21A2EAA1BBB1BFD010DC0AA1FBB1FE8
:10242000EE1FFF1FA217B307E407F50720F0A21B5A
:10243000B30BE40BF50B661F771F881F991F1A94C7
:1024400069F760957095809590959B01AC01BD01F1
:10245000CF010895EE0FFF1F0590F491E02D099430
:102460000E945712A59F900DB49F900DA49F800DC0
:10247000911D11240895B7FF0C9430120E94301260
:10248000821B930B0895AA1BBB1B51E107C0AA1F17
:10249000BB1FA617B70710F0A61BB70B881F991F05
:1024A0005A95A9F780959095BC01CD010895A29FFA
:1024B000B001B39FC001A39F700D811D1124911D18
:1024C000B29F700D811D1124911D08955058BB2796
:1024D000AA270E947E120C94F1130E94E31338F095
:1024E0000E94EA1320F039F49F3F19F426F40C946B
:1024F000E0130EF4E095E7FB0C94DA13E92F0E9449
:10250000021458F3BA17620773078407950720F07F
:1025100079F4A6F50C9424140EF4E0950B2EBA2F42
:10252000A02D0B01B90190010C01CA01A0011124D9
:10253000FF27591B99F0593F50F4503E68F11A1685
:10254000F040A22F232F342F4427585FF3CF469516
:1025500037952795A795F0405395C9F77EF41F1638
:10256000BA0B620B730B840BBAF09150A1F0FF0F02
:10257000BB1F661F771F881FC2F70EC0BA0F621FEE
:10258000731F841F48F4879577956795B795F795DE
:102590009E3F08F0B0CF9395880F08F09927EE0F73
:1025A0009795879508950E94B61308F481E00895E1
:1025B0000E94EC120C94F1130E94EA1358F00E944E
:1025C000E31340F029F45F3F29F00C94DA13511122
:1025D0000C9425140C94E0130E94021468F39923C0
:1025E000B1F3552391F3951B550BBB27AA2762170F
:1025F0007307840738F09F5F5F4F220F331F441F1C
:10260000AA1FA9F335D00E2E3AF0E0E832D091504F
:102610005040E695001CCAF72BD0FE2F29D0660F3C
:10262000771F881FBB1F261737074807AB07B0E87F
:1026300009F0BB0B802DBF01FF2793585F4F3AF085
:102640009E3F510578F00C94DA130C9425145F3FEB
:10265000E4F3983ED4F3869577956795B795F7950B
:102660009F5FC9F7880F911D9695879597F90895F3
:10267000E1E0660F771F881FBB1F6217730784078F
:10268000BA0720F0621B730B840BBA0BEE1F88F79E
:10269000E09508950E940A1488F09F5798F0B92F8A
:1026A0009927B751B0F0E1F0660F771F881F991F87
:1026B0001AF0BA95C9F714C0B13091F00E942414F1
:1026C000B1E008950C942414672F782F8827B85F01
:1026D00039F0B93FCCF3869577956795B395D9F7DF
:1026E0003EF490958095709561957F4F8F4F9F4FE9
:1026F0000895E89409C097FB3EF4909580957095F5
:1027000061957F4F8F4F9F4F9923A9F0F92F96E93D
:10271000BB279395F695879577956795B795F111B2
:10272000F8CFFAF4BB0F11F460FF1BC06F5F7F4F4F
:102730008F4F9F4F16C0882311F096E911C0772361
:1027400021F09EE8872F762F05C0662371F096E86A
:10275000862F70E060E02AF09A95660F771F881F39
:10276000DAF7880F9695879597F90895990F0008DD
:10277000550FAA0BE0E8FEEF16161706E807F90753
:10278000C0F012161306E407F50798F0621B730BEE
:10279000840B950B39F40A2661F0232B242B252B6F
:1027A00021F408950A2609F4A140A6958FEF811D12
:1027B000811D089597F99F6780E870E060E00895B3
:1027C0009FEF80EC089500240A9416161706180649
:1027D0000906089500240A94121613061406050625
:1027E0000895092E0394000C11F4882352F0BB0FB6
:1027F00040F4BF2B11F460FF04C06F5F7F4F8F4F19
:102800009F4F089557FD9058440F551F59F05F3F53
:1028100071F04795880F97FB991F61F09F3F79F002
:1028200087950895121613061406551FF2CF469584
:10283000F1DF08C0161617061806991FF1CF869506
:102840007105610508940895E894BB2766277727EA
:10285000CB0197F908950E94B61308F48FEF0895FD
:102860000E9443140C94F1130E94E31338F00E9469
:10287000EA1320F0952311F00C94DA130C94E01372
:1028800011240C9425140E94021470F3959FC1F337
:10289000950F50E0551F629FF001729FBB27F00D0E
:1028A000B11D639FAA27F00DB11DAA1F649F662763
:1028B000B00DA11D661F829F2227B00DA11D621FB2
:1028C000739FB00DA11D621F839FA00D611D221F6C
:1028D000749F3327A00D611D231F849F600D211D50
:1028E000822F762F6A2F11249F5750409AF0F1F0D3
:1028F00088234AF0EE0FFF1FBB1F661F771F881F3C
:1029000091505040A9F79E3F510580F00C94DA1386
:102910000C9425145F3FE4F3983ED4F386957795A5
:102920006795B795F795E7959F5FC1F7FE2B880FE1
:10293000911D9695879597F908950E94B613880B77
:10294000990B0895FB01DC018D9101908019011014
:10295000D9F3990B0895FB01DC0101900D92002041
:10296000E1F70895FB01DC014150504048F001902F
:102970000D920020C9F701C01D9241505040E0F770
:10298000089510E0C8E6D0E004C0FE010E942A12BB
:0C2990002196C936D107C9F7F894FFCF93
:10299C000100000000001301E6003B05BC00DF0055
:1029AC00CC00BD0000000000F3035303800340047F
:1029BC00B1038F03A30300000000A60453033B05DF
:1029CC00BC0002051A058E044750524D4300474E79
:1029DC00524D4300475047474100474E474741003F
:1029EC0057616974696E6720666F72204750532E69
:1029FC002E2E000D0A00202020003A0053455421B1
:102A0C002121006E616E00696E66006F76660000B3
:00000001FF
