:100000000C9475000C949D000C949D000C94390880
:100010000C9439080C9439080C949D000C949D00A4
:100020000C949D000C949D000C949D000C949D00DC
:100030000C949D000C949D000C949D000C949D00CC
:100040000C9497070C949D000C9407080C94E107FE
:100050000C949D000C949D000C949D000C949D00AC
:100060000C949D000C949D004E6F204750532064CB
:100070006174612072656365697665643A206368BE
:1000800065636B20776972696E6700000000002469
:100090000027002A000000000800020100000304FD
:1000A0000700000000000000000000000023002600
:1000B00000290000000000250028002B0004040493
:1000C0000404040404020202020202030303030301
:1000D00003010204081020408001020408102001DE
:1000E000020408102000B108610D11241FBECFEFDB
:1000F000D8E0DEBFCDBF11E0A0E0B1E0E6E4F1E280
:1001000002C005900D92A636B107D9F723E0A6E606
:10011000B1E001C01D92AC31B207E1F710E0C4E7D5
:10012000D0E004C02197FE010E94FF0DC337D10724
:10013000C9F70E94230A0C9496100C94000090E0DA
:10014000FC01EB56FF4F2491FC01EF52FF4F34911D
:10015000FC01E354FF4FE491EE23C9F0222339F070
:10016000233001F1A8F4213019F1223029F1F0E017
:10017000EE0FFF1FED54FF4FA591B4918FB7F89488
:10018000EC91611126C030953E233C938FBF0895BA
:100190002730A9F02830C9F0243049F78091800039
:1001A0008F7D03C0809180008F7780938000DFCFA8
:1001B00084B58F7784BDDBCF84B58F7DFBCF8091F5
:1001C000B0008F778093B000D2CF8091B0008F7D48
:1001D000F9CF3E2BDACFCF93DF9390E0FC01EF52C3
:1001E000FF4F249183549F4FFC0184918823D1F0C9
:1001F00090E0880F991FFC01E557FF4FA591B4913E
:10020000FC01ED54FF4FC591D49161110EC09FB711
:10021000F8948C91E22FE0958E238C932881E22331
:10022000E8839FBFDF91CF9108958FB7F894EC9149
:10023000E22BEC938FBFF6CF3FB7F8948091AF01DC
:100240009091B001A091B101B091B20126B5A89BE7
:1002500005C02F3F19F00196A11DB11D3FBFBA2F58
:10026000A92F982F8827BC01CD01620F711D811D18
:10027000911D42E0660F771F881F991F4A95D1F79D
:1002800008952FB7F8946091AB017091AC01809103
:10029000AD019091AE012FBF08958F929F92AF92C2
:1002A000BF92CF92DF92EF92FF92CF93DF936C01D8
:1002B0000E9441014B015C010D2C000CEE08FF086F
:1002C000C3E5D2E00E944101681979098A099B09B6
:1002D0006C157D058E059F0578F461E085E00E9430
:1002E0009F00CE010197F1F760E085E00E949F003A
:1002F000CE010197F1F7E6CF60E085E0DF91CF9185
:10030000FF90EF90DF90CF90BF90AF909F908F9035
:100310000C949F00AF92BF92CF92DF92EF92FF9228
:100320000F931F93CF93DF936C017B018B01040F1D
:10033000151FEB015E01AE18BF08C017D10759F0B9
:100340006991D601ED91FC910190F081E02DC601FB
:100350000995892B79F7C501DF91CF911F910F91F5
:10036000FF90EF90DF90CF90BF90AF900895FC0189
:10037000538D448D252F30E0842F90E0821B930B0A
:10038000541710F0CF96089501970895FC01918DB0
:10039000828D981761F0A28DAE0FBF2FB11D5D96B3
:1003A0008C91928D9F5F9F73928F90E008958FEF55
:1003B0009FEF0895FC01918D828D981731F0828D09
:1003C000E80FF11D858D90E008958FEF9FEF089560
:1003D000FC01918D228D892F90E0805C9F4F821BC4
:1003E00091098F739927089583EB91E00E94E801AA
:1003F00021E0892B09F420E0822F089580E090E02D
:10040000892B29F00E94F40181110C9400000895B9
:10041000FC01A48DA80FB92FB11DA35ABF4F2C9179
:10042000848D90E001968F739927848FA689B78970
:100430002C93A089B1898C91837080648C93938D67
:10044000848D981306C00288F389E02D80818F7D0A
:1004500080830895EF92FF920F931F93CF93DF93C2
:10046000EC0181E0888F9B8D8C8D98131AC0E889F0
:10047000F989808185FF15C09FB7F894EE89FF89BF
:100480006083E889F98980818370806480839FBF5D
:1004900081E090E0DF91CF911F910F91FF90EF905D
:1004A0000895F62E0B8D10E00F5F1F4F0F7311276D
:1004B000E02E8C8D8E110CC00FB607FCFACFE889A8
:1004C000F989808185FFF5CFCE010E940802F1CF26
:1004D000EB8DEC0FFD2FF11DE35AFF4FF0829FB71C
:1004E000F8940B8FEA89FB8980818062CFCFCF930C
:1004F000DF93EC01888D8823B9F0AA89BB89E8894C
:10050000F9898C9185FD03C0808186FD0DC00FB6F1
:1005100007FCF7CF8C9185FFF2CF808185FFEDCF6F
:10052000CE010E940802E9CFDF91CF910895CF93C9
:10053000DF93EC018A859B85AC85BD858E839F8387
:10054000A887B9870E9441016A837B838C839D833E
:1005500081E089838883DF91CF910895CF93DF93E2
:10056000EC018E819F81A885B9858A839B83AC83AA
:10057000BD830E9441016A877B878C879D8781E0CC
:1005800089838883DF91CF9108952091A8013091CC
:10059000A9012817390771F49091A6018091A7014C
:1005A000981741F0E091A601F0E0EA59FE4F8081F2
:1005B00090E008958FEF9FEF08950895EF92FF92D6
:1005C0000F931F93CF93DF93DC015C96ED90FC902B
:1005D0005D97E114F10479F481E090E013969C9327
:1005E0008E93129790E080E0DF91CF911F910F9151
:1005F000FF90EF9008955196ED91FC91529750968F
:100600008C915097982F90950FB75E962C915E978E
:10061000122F127021FD6095F8942081112319F199
:10062000282B2083E7012197F1F728E0462F50E09F
:10063000308160FF1AC0382B3083E7012197F1F732
:10064000BA0175956795215089F7112381F0808152
:10065000892380830FBF5C968D919C910197F1F760
:1006600081E090E0C1CF2923DCCF3923E5CF908111
:10067000892BEFCF2091A8013091A90128173907C4
:1006800071F48091A7012091A60190E0805C9F4FBA
:10069000821B910960E470E00E94C90D089590E00A
:1006A00080E008952091A8013091A9012817390709
:1006B000B9F49091A6018091A701981789F0E09173
:1006C000A601F0E0EA59FE4F80812091A60130E0BA
:1006D0002F5F3F4F2F7333272093A60190E008959B
:1006E0008FEF9FEF089590E080E008952F923F9262
:1006F0004F925F926F927F928F929F92AF92BF9232
:10070000CF92DF92EF92FF920F931F93CF93DF93DD
:10071000D82FC92F8B010E947D0D24E630E040E0E8
:1007200050E00E94DD0D49019B01AC0160E876E9D3
:1007300088E990E00E94B90D6B017C01F80191827B
:100740008082ED2FFC2F2191822F022E000C990B1D
:10075000C0970A97C0F32E3239F51F0180E8882E22
:1007600086E9982E88E9A82EB12C9AE0492E512CC2
:10077000612C712CF101C1911F010C2E000CDD0BBD
:10078000E097CA30D10580F4C501B401A3019201FC
:100790000E94DD0D49015A01DE010E94100EC60EB5
:1007A000D71EE81EF91EE6CFA5E0B0E0A70196012E
:1007B0000E94050E6F5F7F4F8F4F9F4F23E030E009
:1007C00040E050E00E94DD0DF80122833383448332
:1007D00055831682DF91CF911F910F91FF90EF907B
:1007E000DF90CF90BF90AF909F908F907F906F9051
:1007F0005F904F903F902F9008951F93CF93DF937A
:10080000EC0118811D3209F42196CE010E947D0D64
:100810009B01AC01A4E6B0E00E94050EAB01BC0157
:10082000FE012991822F022E000C990BC0970A9786
:10083000B8F32E3231F58181082E000C990BC09748
:100840008A309105F0F4AAE0A89F9001A99F300D8D
:100850001124C901330FAA0BBB0B480F591F6A1F84
:100860007B1F8281082E000C990BC0978A3091055E
:1008700040F4092E000CAA0BBB0B480F591F6A1F2E
:100880007B1F1D3239F470956095509541955F4FEF
:100890006F4F7F4FCB01BA01DF91CF911F91089528
:1008A000AF92BF92CF92DF92EF92FF920F931F937E
:1008B000CF93DF930E9441016B017C0112E0D1E0F4
:1008C00080E592E00E943A03892B09F4C0C280E5DA
:1008D00092E00E945203C82F80910C0390910D0367
:1008E000A0910E03B0910F030196A11DB11D80933D
:1008F0000C0390930D03A0930E03B0930F03C43227
:1009000009F484C2E0910603C5320CF0BDC0CA30C0
:1009100019F0CD3009F087C2EF3008F032C1F0E0B5
:10092000EB50FD4F10828091F402882309F437C107
:100930002091F502822F022E000C990B3FEB320F13
:10094000363008F0ADC0C7978295807F9091F6024F
:10095000292F092E000C330B4FEB490F463008F0BE
:10096000A7C027533109820F9091F3028913F6C073
:100970008091180390911903A0911A03B0911B0361
:100980000196A11DB11D8093180390931903A093A4
:100990001A03B0931B0380910703882399F0809179
:1009A000100390911103A0911203B09113030196CB
:1009B000A11DB11D8093100390931103A093120306
:1009C000B093130300910403002309F47AC00130AB
:1009D000A1F581E992E00E94AE028FE992E00E94C7
:1009E000AE0280910703882341F187E0EFE7F2E050
:1009F000A1E7B2E001900D928A95E1F787E0E6E881
:100A0000F2E0A8E7B2E001900D928A95E1F70E942A
:100A1000410160938D0270938E0280938F029093B8
:100A200090020093700200936F028DEA92E00E94A0
:100A300097028BEB92E00E949702A0900A03B0907D
:100A40000B03A114B10409F49CC0E0910A03F091D6
:100A50000B0366A177A1F50186A197A10E947710EB
:100A6000892B09F08EC0B501C50140960E94801007
:100A70000E944101F50160A371A382A393A3D5A3B2
:100A8000D4A3A2A4B3A4DDCFCA3209F445CFCC329B
:100A900009F0C9C18091F3028C278093F3023CCF07
:100AA0002156263018F4875591094ECFC0974CCF68
:100AB0009156963018F42755310955CF20533109F6
:100AC00052CF8FE992E00E94AE0280910703882303
:100AD00021F187E0EFE7F2E0A1E7B2E001900D92AB
:100AE0008A95E1F787E0E6E8F2E0A8E7B2E0019056
:100AF0000D928A95E1F70E94410160938D027093F7
:100B00008E0280938F0290939002D0937002D093C4
:100B10006F0289EC92E00E9497028091E10290912D
:100B2000E202A091E302B091E4028093DD0290938F
:100B3000DE02A093DF02B093E0020E9441016093C5
:100B4000D9027093DA028093DB029093DC02D09397
:100B5000D802D093D70285EE92E06DCF8091140336
:100B600090911503A0911603B09117030196A11D52
:100B7000B11D8093140390931503A0931603B093B3
:100B80001703809105038F5F80930503109206037E
:100B900081E0CA3209F080E08093F40291CE909116
:100BA0000503911144C066E271E085EF92E00E9476
:100BB0007710892B41F06CE271E085EF92E00E94A2
:100BC0007710892BF1F4D09304038091080390915E
:100BD000090390930B0380930A03A0900A03B0903B
:100BE0000B03A114B10469F265EF72E0F50186A16F
:100BF00097A10E94771097FF41C1F50182A593A5A7
:100C0000E8CF62E371E085EF92E00E947710892BD4
:100C100041F068E371E085EF92E00E947710892B44
:100C200019F410920403D1CF10930403CECFE091B6
:100C30000403E23009F448C08091F502882309F4E6
:100C400043C020E2E29FF0011124E92B3197E93201
:100C5000F10508F039C0E15DF94F0C94FF0D58061D
:100C60009906A006A706AA06D806DF06EC06F9062E
:100C70006406640664066406640664066406640624
:100C80006406640664066406640664066406640614
:100C90006406640664066406640664066406580610
:100CA00093069906A006A706AA06B106BE06CB06BD
:100CB00085EF92E00E94FD036093A5027093A60267
:100CC0008093A7029093A802A0900A03B0900B0310
:100CD00000910503A114B10409F453CFE0910A0374
:100CE000F0910B0366A177A1F50186A197A10E945F
:100CF0007710892B09F045CFF50120A531A5802F6C
:100D000090E0821793070CF43CCF2817390739F489
:100D100040E150E065EF72E0C5010E948710F501E7
:100D2000A2A4B3A4D5CF91E0813409F445C090E0EA
:100D300043C06FE772E085EF92E00E947603C4CF74
:100D400091E0833509F090E090938502BDCF66E88D
:100D500072E0F1CF91E0873509F090E090938C023A
:100D6000B3CF85EF92E00E94FD036093B7027093CA
:100D7000B8028093B9029093BA02A6CF85EF92E0B1
:100D80000E94FD036093C5027093C6028093C70260
:100D90009093C80299CF85EF92E00E947D0D6093F9
:100DA0009702709398028093990290939A028CCF45
:100DB00091E081330CF4BBCF9093070385CF85EF8F
:100DC00092E00E947D0D6093E1027093E2028093B5
:100DD000E3029093E40278CF85EF92E00E94FD0356
:100DE0006093EF027093F0028093F1029093F2020D
:100DF0006BCF85EF92E00E94FD036093D302709366
:100E0000D4028093D5029093D6025ECF109206034F
:100E1000109205031092F302109304031092F4024F
:100E2000109207034DCDEE3040F481E08E0F809399
:100E30000603F0E0EB50FD4FC0838091F402811176
:100E40003FCD8091F302C827C093F30239CD0E94B1
:100E500041016C197D098E099F09683E7340810527
:100E6000910508F42DCDDF91CF911F910F91FF9047
:100E7000EF90DF90CF90BF90AF900895892B09F449
:100E800080CE10920B0310920A037BCEFC010190DE
:100E90000020E9F73197AF01481B590BBC0183EBE8
:100EA00091E00C948A018F929F92AF92BF920F9320
:100EB0001F93CF93DF93CDB7DEB7A1970FB6F8940A
:100EC000DEBF0FBECDBF19A2423008F44AE08E014A
:100ED0000F5D1F4F842E912CB12CA12CA5019401E4
:100EE0000E94DD0DE62FB901CA01EA30F4F4E05D9D
:100EF000D801EE938D01232B242B252B79F790E03D
:100F000080E0109719F0CD010E944607A1960FB618
:100F1000F894DEBF0FBECDBFDF91CF911F910F912F
:100F2000BF90AF909F908F900895E95CE1CF1F92A2
:100F30000F920FB60F9211242F933F938F939F938D
:100F4000AF93BF938091AB019091AC01A091AD01A3
:100F5000B091AE013091AA0123E0230F2D3758F54F
:100F60000196A11DB11D2093AA018093AB0190931E
:100F7000AC01A093AD01B093AE018091AF0190910F
:100F8000B001A091B101B091B2010196A11DB11DB6
:100F90008093AF019093B001A093B101B093B201DF
:100FA000BF91AF919F918F913F912F910F900FBE65
:100FB0000F901F90189526E8230F0296A11DB11DD2
:100FC000D2CF1F920F920FB60F9211242F933F93FF
:100FD0004F935F936F937F938F939F93AF93BF9341
:100FE000EF93FF9383EB91E00E940802FF91EF9152
:100FF000BF91AF919F918F917F916F915F914F9131
:101000003F912F910F900FBE0F901F9018951F9238
:101010000F920FB60F9211242F938F939F93EF93FC
:10102000FF93E091C301F091C4018081E091C90177
:10103000F091CA0182FD1BC090818091CC018F5F2D
:101040008F732091CD01821741F0E091CC01F0E047
:10105000ED54FE4F958F8093CC01FF91EF919F91BE
:101060008F912F910F900FBE0F901F901895808138
:10107000F4CF1F920F920FB60F9211242F933F932C
:101080004F935F936F937F938F939F93AF93BF9390
:10109000EF93FF93E091A801F091A901309749F0F7
:1010A000A685B7858585968D91FF14C09C9189236F
:1010B000A1F4FF91EF91BF91AF919F918F917F919B
:1010C0006F915F914F913F912F910F900FBE0F90B5
:1010D0001F9018959C91892361F7A389B4899C91ED
:1010E0008589809589238C93868997890197F1F763
:1010F000608D718DA685B785558538E020E0CB01E0
:101100000197F1F7822F90E095958795282F4C91C4
:10111000452309F02068315091F7868D81FD209597
:101120008091A70190E001968F7399273091A601D5
:10113000381799F0A091A701B0E0AA59BE4F2C939F
:101140008093A701828D938D0197F1F7A389B489CC
:101150008C919589892B8C93ACCF868D8160868FFD
:10116000F1CF1092B6011092B50188EE93E0A0E0A5
:10117000B0E08093B7019093B801A093B901B09308
:10118000BA0126E031E03093B4012093B30125EC9D
:1011900030E03093C0012093BF0124EC30E0309365
:1011A000C2012093C10120EC30E03093C4012093B0
:1011B000C30121EC30E03093C6012093C50122EC3D
:1011C00030E03093C8012093C70126EC30E0309323
:1011D000CA012093C9011092CC011092CD01109246
:1011E000CE011092CF0110926F02109270021092F5
:1011F0007202109271021092730210927402109295
:101200007502109276021092770210927902109273
:10121000780210927A0210927B0210927C02109255
:101220007D0210927E021092800210927F02109234
:101230008102109282021092830210928402109214
:1012400085021092870210928602109288021092F4
:10125000890210928A0210928B0210928C021092D4
:1012600091021092920210929302109294021092A4
:1012700095021092960210929F021092A002109274
:10128000A1021092A2021092A3021092A402109244
:10129000AD021092AE021092B3021092B4021092FC
:1012A000B5021092B6021092BB021092BC021092CC
:1012B000C1021092C2021092C3021092C402109294
:1012C000C9021092CA021092CF021092D00210925C
:1012D000D1021092D2021092D7021092D80210922C
:1012E000DD021092DE021092DF021092E0021092F4
:1012F000E5021092E6021092EB021092EC021092BC
:10130000ED021092EE021092F3021092F40222E02B
:101310002093040310920503109206031092070312
:10132000109209031092080310920B0310920A0303
:1013300010920C0310920D0310920E0310920F03E3
:1013400010921003109211031092120310921303C3
:1013500010921403109215031092160310921703A3
:10136000109218031092190310921A0310921B0383
:101370001092F5021092530210925202809354027E
:1013800090935502A0935602B093570288E191E0E2
:10139000909351028093500210926702109266025D
:1013A000109269021092680210926B0210926A0207
:1013B00010926D0210926C0260916E026E7F6D7FD2
:1013C00060936E026695617081E0682783E00E94F9
:1013D0009F0061E083E00E94EB00E4EDF0E0E49127
:1013E000E0936002E0ECF0E0E491F0E0EE0FFF1F2C
:1013F000ED54FF4F85919491909362028093610226
:1014000060E082E00E94EB0080916E0281FD04C0EA
:1014100061E082E00E949F0082E080935C02E3ED45
:10142000F0E0E491E0935D02EFEBF0E0E491F0E0B6
:10143000EE0FFF1FE755FF4F8591949190935F0248
:1014400080935E020895CF93DF9300D000D0CDB794
:10145000DEB7789484B5826084BD84B5816084BD34
:1014600085B5826085BD85B5816085BD80916E0042
:10147000816080936E001092810080918100826073
:1014800080938100809181008160809381008091B0
:1014900080008160809380008091B100846080939F
:1014A000B1008091B00081608093B00080917A009B
:1014B000846080937A0080917A00826080937A00C1
:1014C00080917A00816080937A0080917A008068B0
:1014D00080937A001092C10061E085E00E94EB00E9
:1014E00060E085E00E949F008DE790E00E944D0142
:1014F0000E941C014B015C0192E3C92ED12CE12C0E
:10150000F12C0E941C01681979098A099B09683E1F
:10151000734081059105A8F321E0C21AD108E108C2
:10152000F10838EE830E33E0931EA11CB11CC114E8
:10153000D104E104F10429F78DE790E00E944D0108
:10154000E091C301F091C40182E08083E091BF018A
:10155000F091C0011082E091C101F091C20180E1DF
:1015600080831092CB01E091C701F091C80186E021
:101570008083E091C501F091C60180818061808304
:10158000E091C501F091C601808188608083E0917F
:10159000C501F091C601808180688083E091C5011A
:1015A000F091C60180818F7D808310926B02109232
:1015B0006A021092690210926802109267021092F9
:1015C00066028DE991E090936D0280936C02909198
:1015D0005C02963108F047C02DEB30E03093670293
:1015E000209366022BE931E0309369022093680270
:1015F0002CE231E030936B0220936A022091680064
:1016000084E0983048F031E09E3008F430E081E02A
:1016100001C0880F3A95EAF7822B809368002DE687
:1016200030E0983050F02BE630E09E3030F02CE681
:1016300030E0963110F030E020E0309364022093E7
:101640006302292F30E0983008F095C181E001C095
:10165000880F9A95EAF78093650280916C029091C9
:101660006D020197F1F780916A0290916B02892BCC
:1016700049F1E091A801F091A901B2E0E035FB0742
:1016800009F1309739F0A389B4899C9185898095B7
:1016900089238C9380916E028E7F80936E021092CC
:1016A000A7011092A60180E592E09093A901809392
:1016B000A801E0916302F09164028081909165023B
:1016C000892B80830E9450041092920260919302B1
:1016D00070919402809195029091960220E137E2F8
:1016E00040E050E00E94DD0D211108C08EE391E042
:1016F0000E94460781E591E00E9446070E9450043F
:1017000081E591E00E94460784E6482E512C612C29
:10171000712C00E010E01092D8026091DD0270910F
:10172000DE028091DF029091E0024AE00E945307BE
:1017300084E591E00E944607109292026091930224
:1017400070919402809195029091960220E137E287
:1017500040E050E00E94DD0DCA01B90177278827DB
:1017600099274AE00E9453078FE491E00E944607C0
:10177000109292026091930270919402809195026E
:1017800090919602A30192010E94DD0DCA01B90158
:10179000A30192010E94DD0D4AE00E9453078FE4ED
:1017A00091E00E944607109292026091930270911C
:1017B00094028091950290919602A30192010E9459
:1017C000DD0D6053784F90E080E04AE00E945307BF
:1017D00084E591E00E9446071092A0026091A10268
:1017E0007091A2028091A3029091A40220E432E4BD
:1017F0004FE050E00E94DD0D622F70E06D5F7F4F83
:10180000072E000C880B990B4AE00E94530788E5CD
:1018100091E00E9446071092A0026091A10270918F
:10182000A2028091A3029091A40220E137E240E05D
:1018300050E00E94DD0DCA01B901A30192010E948E
:10184000DD0D4AE00E94530788E591E00E944607BB
:101850001092A0026091A1027091A2028091A30255
:101860009091A402A30192010E94DD0DCA01B90169
:10187000A30192010E94DD0D4AE00E94530784E516
:1018800091E00E9446071092AE026091B3027091FF
:10189000B4028091B5029091B6020E94500F26E5E5
:1018A0003EE04DEE5FE30E94051020E030E048ECA2
:1018B00052E40E94AD0E6B017C014B015C01AC0156
:1018C0009B010E947210882309F462C08AE591E0AE
:1018D0000E94460781E591E00E9446078091000141
:1018E0009091010101969093010180930001CC97A2
:1018F00041F48EE190E00E944D011092010110929E
:1019000000010E9450040E94410169387341810521
:10191000910528F180910C0390910D03A0910E0385
:10192000B0910F030A97A105B105C8F4E8E6F0E00D
:10193000FA83E983E981FA816491662361F083EB9C
:1019400091E00E942A0229813A812F5F3F4F3A831A
:101950002983892B79F781E591E00E9446070115DB
:10196000110509F4D8CE0E94F401882309F4D3CEDE
:101970000E940000D0CE9E3040F42850310981E012
:1019800001C0880F2A95EAF766CE2E503109F7CFAD
:10199000D701C601BF7789839A83AB83BC832FEFBE
:1019A0003FEF4FE75FE7BC01CD010E94721081114C
:1019B0000FC02FEF3FEF4FE75FE769817A818B819F
:1019C0009C810E94A80E18161CF48EE591E080CF31
:1019D0002FEF3FEF4FE75FE4C701B6010E94001011
:1019E00018161CF482E691E073CF2FEF3FEF4FE71C
:1019F0005FECC701B6010E94A80E87FDF3CF20E07F
:101A000030E0A901C701B6010E94A80E87FF0BC0F4
:101A10006DE283EB91E00E942A0246015701B7FA7A
:101A2000B094B7F8B0942AE037ED43EA5BE3C50120
:101A3000B4010E943C0E4B015C010E941F0F6B0120
:101A40007C010E944E0F9B01AC01C501B4010E94B4
:101A50003B0E4B015C014AE0C701B6010E945307EF
:101A60006EE283EB91E00E942A0220E030E040E247
:101A700051E4C501B4010E9405104B015C010E94B4
:101A80001F0F6B01F12CE12C4AE0C701B6010E9447
:101A90005307C701B6010E944E0F9B01AC01C5015F
:101AA000B4010E943B0E20E030E040E251E40E948D
:101AB00005100E941F0F90E080E04AE00E9453074B
:101AC00009CF88E191E09093510280935002809178
:101AD000A8019091A9018055924071F4E0916302B0
:101AE000F0916402908180916502809589238083C2
:101AF0001092A9011092A80108951F93FC01992743
:101B00008827BC01E89411911032E9F3193010F0E4
:101B10001E30C8F31B3251F01D3249F4689406C0E0
:101B20000E94A40D610F711D811D911D1191105313
:101B30001A30B0F33EF490958095709561957F4F83
:101B40008F4F9F4F1F910895592F482F372F262FC2
:101B5000660F771F881F991F660F771F881F991FB1
:101B6000620F731F841F951F660F771F881F991FB1
:101B70000895DB018F939F930E94050EBF91AF9153
:101B8000A29F800D911DA39F900DB29F900D1124D7
:101B9000089597FB072E16F4009407D077FD09D01F
:101BA0000E94180E07FC05D03EF4909581959F4F3A
:101BB0000895709561957F4F0895A1E21A2EAA1B92
:101BC000BB1BFD010DC0AA1FBB1FEE1FFF1FA217ED
:101BD000B307E407F50720F0A21BB30BE40BF50BEA
:101BE000661F771F881F991F1A9469F76095709573
:101BF000809590959B01AC01BD01CF010895EE0F3A
:101C0000FF1F0590F491E02D09940E942C0EA59FD2
:101C1000900DB49F900DA49F800D911D11240895E7
:101C2000B7FF0C94050E0E94050E821B930B0895BE
:101C3000AA1BBB1B51E107C0AA1FBB1FA617B707F2
:101C400010F0A61BB70B881F991F5A95A9F780950E
:101C50009095BC01CD010895A29FB001B39FC00132
:101C6000A39F700D811D1124911DB29F700D811DC8
:101C70001124911D08955058BB27AA270E94530E86
:101C80000C94C60F0E94B80F38F00E94BF0F20F0CE
:101C900039F49F3F19F426F40C94B50F0EF4E09537
:101CA000E7FB0C94AF0FE92F0E94D70F58F3BA1738
:101CB000620773078407950720F079F4A6F50C9462
:101CC000F90F0EF4E0950B2EBA2FA02D0B01B901E0
:101CD00090010C01CA01A0011124FF27591B99F0A2
:101CE000593F50F4503E68F11A16F040A22F232FAE
:101CF000342F4427585FF3CF469537952795A795FE
:101D0000F0405395C9F77EF41F16BA0B620B730BA4
:101D1000840BBAF09150A1F0FF0FBB1F661F771F15
:101D2000881FC2F70EC0BA0F621F731F841F48F4CA
:101D3000879577956795B795F7959E3F08F0B0CF53
:101D40009395880F08F09927EE0F9795879508953A
:101D50000E948B0F08F481E008950E94C10E0C943C
:101D6000C60F0E94BF0F58F00E94B80F40F029F430
:101D70005F3F29F00C94AF0F51110C94FA0F0C94A3
:101D8000B50F0E94D70F68F39923B1F3552391F350
:101D9000951B550BBB27AA2762177307840738F0DA
:101DA0009F5F5F4F220F331F441FAA1FA9F335D037
:101DB0000E2E3AF0E0E832D091505040E695001CEB
:101DC000CAF72BD0FE2F29D0660F771F881FBB1FA5
:101DD000261737074807AB07B0E809F0BB0B802D83
:101DE000BF01FF2793585F4F3AF09E3F510578F0AF
:101DF0000C94AF0F0C94FA0F5F3FE4F3983ED4F3CA
:101E0000869577956795B795F7959F5FC9F7880F82
:101E1000911D9695879597F90895E1E0660F771FD4
:101E2000881FBB1F621773078407BA0720F0621B65
:101E3000730B840BBA0BEE1F88F7E09508950E9490
:101E4000DF0F88F09F5798F0B92F9927B751B0F05E
:101E5000E1F0660F771F881F991F1AF0BA95C9F72E
:101E600014C0B13091F00E94F90FB1E008950C94C4
:101E7000F90F672F782F8827B85F39F0B93FCCF377
:101E8000869577956795B395D9F73EF490958095AB
:101E9000709561957F4F8F4F9F4F0895E89409C0CB
:101EA00097FB3EF490958095709561957F4F8F4F8D
:101EB0009F4F9923A9F0F92F96E9BB279395F695A3
:101EC000879577956795B795F111F8CFFAF4BB0F21
:101ED00011F460FF1BC06F5F7F4F8F4F9F4F16C085
:101EE000882311F096E911C0772321F09EE8872F0F
:101EF000762F05C0662371F096E8862F70E060E0CB
:101F00002AF09A95660F771F881FDAF7880F969543
:101F1000879597F90895990F0008550FAA0BE0E8E7
:101F2000FEEF16161706E807F907C0F0121613069B
:101F3000E407F50798F0621B730B840B950B39F4DB
:101F40000A2661F0232B242B252B21F408950A2641
:101F500009F4A140A6958FEF811D811D089597F981
:101F60009F6780E870E060E008959FEF80EC08953F
:101F700000240A9416161706180609060895002468
:101F80000A9412161306140605060895092E0394E2
:101F9000000C11F4882352F0BB0F40F4BF2B11F456
:101FA00060FF04C06F5F7F4F8F4F9F4F089557FDB5
:101FB0009058440F551F59F05F3F71F04795880FB7
:101FC00097FB991F61F09F3F79F08795089512164E
:101FD00013061406551FF2CF4695F1DF08C01616FA
:101FE00017061806991FF1CF8695710561050894AB
:101FF0000895E894BB2766277727CB0197F90895C2
:102000000E948B0F08F48FEF08950E9418100C9413
:10201000C60F0E94B80F38F00E94BF0F20F0952322
:1020200011F00C94AF0F0C94B50F11240C94FA0F0F
:102030000E94D70F70F3959FC1F3950F50E0551F85
:10204000629FF001729FBB27F00DB11D639FAA270D
:10205000F00DB11DAA1F649F6627B00DA11D661F5C
:10206000829F2227B00DA11D621F739FB00DA11D7D
:10207000621F839FA00D611D221F749F3327A00D37
:10208000611D231F849F600D211D822F762F6A2FD3
:1020900011249F5750409AF0F1F088234AF0EE0F38
:1020A000FF1FBB1F661F771F881F91505040A9F765
:1020B0009E3F510580F00C94AF0F0C94FA0F5F3FD8
:1020C000E4F3983ED4F3869577956795B795F795A1
:1020D000E7959F5FC1F7FE2B880F911D9695879519
:1020E00097F908950E948B0F880B990B0895FB01B7
:1020F000DC018D91019080190110D9F3990B08959D
:10210000FB01DC0101900D920020E1F70895FB0135
:10211000DC014150504048F001900D920020C9F779
:1021200001C01D9241505040E0F7089510E0C4E70F
:10213000D0E004C0FE010E94FF0D2196C537D107F3
:06214000C9F7F894FFCF7F
:102146000100000000002A028A01B7017702E801B7
:10215600C601DA0100000000DE028A017303DD0217
:102166003A035203C5024750524D4300474E524D63
:102176004300475047474100474E47474100576194
:102186006974696E6720666F72204750532E2E2E33
:10219600000D0A00202020003A006E616E00696E74
:0621A60066006F76660082
:00000001FF
